:020000040800F2
:10000000880600205D0100086501000867010008FE
:10001000690100086B0100086D0100080000000084
:100020000000000000000000000000006F01000858
:10003000710100080000000073010008750100084C
:100040007701000877010008770100080000000030
:100050000000000077010008770100087701000820
:100060007701000800000000770100087701000810
:100070007701000800000000770100087701000800
:1000800077010008770100080000000077010008F0
:1000900077010008000000000000000000000000E0
:1000A00000000000000000000000000077010008D0
:1000B0007701000877010008770100087701000840
:1000C00000F002F800F03AF80AA090E8000C824430
:1000D0008344AAF10107DA4501D100F02FF8AFF20D
:1000E000090EBAE80F0013F0010F18BFFB1A43F016
:1000F000010318474C1700006C170000103A24BF8A
:1001000078C878C1FAD8520724BF30C830C144BF7C
:1001100004680C60704700000023002400250026BE
:10012000103A28BF78C1FBD8520728BF30C148BF5A
:100130000B6070471FB51FBD10B510BD00F044F82F
:100140001146FFF7F7FF00F04DFD00F062F803B431
:10015000FFF7F2FF03BC00F065F800000948804794
:1001600009480047FEE7FEE7FEE7FEE7FEE7FEE799
:10017000FEE7FEE7FEE7FEE704480549054A064BB1
:10018000704700003D050008C100000888000020FD
:1001900088060020880200208802002070477047EF
:1001A000704710B500F00CF8006810BD10B504469B
:1001B00000F006F8046010BD0048704724000020DD
:1001C00000487047240000207546FFF7F5FFAE4653
:1001D00005006946534620F00700854618B020B553
:1001E000FFF7CAFFBDE820404FF000064FF00007C0
:1001F0004FF000084FF0000B21F00701AC46ACE8CF
:10020000C009ACE8C009ACE8C009ACE8C0098D463B
:10021000704710B50446AFF300802046BDE810409B
:10022000FFF795BF01491820ABBEFEE7260002008C
:10023000704700000146054A106811B140F00800FF
:1002400001E020F00800014A1060704700000940FA
:100250000146034A106820F002000844106070470D
:100260000000094001498860704700000000094013
:1002700010B5012007490880887000208872064860
:1002800000F020F80020FFF7E3FF0120FFF7D2FF86
:1002900010BD00001800002000800C4010B50320A5
:1002A00006490880012088700020087201208872A9
:1002B0004872034800F006F810BD00001800002046
:1002C00000800B402DE9FE4F4768D0F808C0D0F8F9
:1002D0000C80D0F81090D0F814A0CDF808A0D0F879
:1002E00018A0CDF804A0D0F81CA0CDF800A00022E2
:1002F000012303254FF001160C885FE004F0010A8A
:10030000BAF1000F55D027EA030A91F802B00BFAB0
:1003100002FB4AEA0B0791F808A04FEA420B0AFADF
:100320000BFA2CEA050B4AEA0B0C28EA030A91F8AF
:100330000AB00BFA02FB4AEA0B0829EA060A91F80E
:1003400003B002F1100E0BFA0EFB4AEA0B0A91F809
:1003500004B00BFA02FB4AEA0B09DDF808A02AEA0E
:10036000060A91F805B00BFA0EFB4AEA0B0A91F85F
:1003700006B00BFA02FB4AEA0B0ACDF808A091F886
:1003800009A04FEA420B0AFA0BFADDF804B02BEA97
:10039000050B4AEA0B0ACDF804A0DDF800A02AEA12
:1003A000030A91F807B00BFA02FB4AEA0B0ACDF8F0
:1003B00000A05B00AD007600521C6408002C9DD1AB
:1003C000DFF8C4A0504502D14FF01F0A01E04FF002
:1003D000000A27EA0A0AC0F804A0DFF8ACA05045DA
:1003E00002D14FF01F0A01E04FF0000A2CEA0A0A7E
:1003F000C0F808A0DFF890A0504502D14FF01F0AC6
:1004000001E04FF0000A28EA0A0AC0F80CA0DFF861
:1004100078A0504502D14FF01F0A01E04FF0000ACA
:1004200029EA0A0AC0F810A0DFF85CA0504502D102
:100430004FF01F0B01E04FF0000BDDF808A02AEA97
:100440000B0AC0F814A0DFF840A0504502D14FF0CD
:100450001F0B01E04FF0000BDDF804A02AEA0B0AA5
:10046000C0F818A0DFF820A0504502D14FF01F0BB4
:1004700001E04FF0000BDDF800A02AEA0B0AC0F8FB
:100480001CA0BDE8FE8F000000000C4029B1064A08
:10049000D2690243044BDA6104E0034AD269824321
:1004A000014BDA61704700000000024030B5204C7B
:1004B000E46804F00204022C01D11E4800E01D484B
:1004C0001B4CE46804F0010404B140080146184CD8
:1004D000E46804F00404042C05D1154C6468C4F3EA
:1004E0000324631C5943124CE468C4F3012424B16F
:1004F000012C06D0022C13D10DE00E4C0E4D2C60B9
:1005000013E00B4CE468C4F30314641CB1FBF4F275
:10051000094C226009E04FF40044074D2C6004E0D0
:1005200049F64044044D2C6000BF00BF30BD0000C0
:100530000000024000127A001400002000B50D48AF
:100540000D49C8610846C0680020C8600846406878
:1005500000204860084680680020886008460069DE
:10056000002008610846406900204861FFF79EFFAF
:1005700000BD00001000000800000240490050EAE1
:10058000C12018BF04204A0D18BF40F0010040F2FE
:10059000FF72B2EB515F08BF40F00200012808BFB4
:1005A000052070472DE9F74F144694B00021C4E9A7
:1005B00002111599079121F00045C9498D4206DCC9
:1005C0001599C4E9000117B00020BDE8F08FC549B6
:1005D000DFF814A3A9423CDD0799C44E0029C44F9B
:1005E000C44A1599534619DD00F038FF554506D029
:1005F000C14AC24B00F032FFC4E900010AE04FF0EB
:10060000D352BE4B00F02AFF32463B4600F026FF95
:10061000C4E9000117B00120BDE8F08F00F0B2FB83
:10062000554506D0B44AB54B00F0ACFBC4E9000117
:100630000AE04FF0D352B14B00F0A4FB32463B46E8
:1006400000F0A0FBC4E9000117B04FF0FF30BDE897
:10065000F08FAB49A942159978DB21F00041834620
:100660008846A84AA84B00F0EFFD0022A74B00F0F7
:1006700089FB00F08FFD099000F0BBFD06460F4698
:100680009C4A534600F0E0FD43465A4600F0DAFE2D
:1006900080468A46984A994B3046394600F0D4FD48
:1006A0002A0D01250B924246534600F0CBFE032D46
:1006B000C4E9000139D00B98C1F30A51401A05EB87
:1006C00045111139814230DA9148C346784400EB34
:1006D0000510CDF80CA00C90D0E900233046394627
:1006E00000F0B2FD02460B4604910690584603996D
:1006F00000F0B4FE80468A4602460B4658460399EF
:1007000000F0ACFE049B069A00F0A8FE83460C980D
:1007100003913946D0E90223304600F095FD5A4650
:10072000039B00F09BFE6D1CBDE707980028A2BF4D
:10073000099817B0BDE8F08F616881F000416160F1
:10074000099817B04042BDE8F08FFFE7844615983E
:10075000C1F31301C0F30A50A0F2F5304FEA60185C
:1007600000F01F06C6F120001390002006900790AD
:1007700041F4801E05206D4676B1664A08EB000103
:100780007A4452F8213002EB8101B3404A68139950
:1007900022FA01F1194305E05F4908EB00027944B0
:1007A00051F82210A1FB0E27A1FB0C131A449A4208
:1007B00034BF0123002303EB070A05EB8003D3E9D1
:1007C00001B70F448F4234BF0121002193448B4471
:1007D00011B1934502D903E0934501D2012100E014
:1007E0000021C3E901B7514445F82010011EA0F1D2
:1007F0000100C1DC0298059F00F10050800F1290AB
:100800000298DDE90356800000F0F3FC8346284699
:100810000D9100F005FD6FF01D0200F03BFFCDE9EA
:100820000E01304600F0FCFC6FF03D0200F032FF9C
:1008300080468A46384600F0F3FC6FF05D0200F017
:1008400029FF074642465346119100F09BFADDE925
:100850000E2300F097FA5A460D9B00F093FA0025FC
:100860000E465A4628460D9B00F0F8FDDDE90E23A2
:1008700000F0F4FD4246534600F0F0FD3A46119B6D
:1008800000F0E0FDDFF898A0244A534600F0DCFCBD
:1008900007468846234A244B3146284600F0D4FCBC
:1008A0003A46434600F06EFA074688464FF0A842A3
:1008B00053463146284600F0C7FC3A46434600F00E
:1008C00061FA159A12F0004F04D0129A81F000419B
:1008D00052421292C4E90001129817B0BDE8F08F9D
:1008E000FB21E93F7CD90240FB21F93F7370032EC5
:1008F0008A19A33B000040543163621A61B4D03DB1
:10090000FB21394183C8C96D305FE43F0000E03FFF
:1009100080100000FC0F0000DE0F0000182D445472
:10092000FB21F93D3326A611460B113C2DE9FF4D65
:1009300021F0004807460C46B8F1795F08DA00F06C
:1009400029FC002801BF0020324904B0BDE8F08D29
:100950003A4623461046194600F076FC0546024604
:100960002D480E460B460621784400F05DF82A46D5
:10097000334600F069FCDDE9022382468B463846A7
:10098000214600F061FC04460F4652465B4628466D
:10099000314600F059FC22463B4600F05FFD074619
:1009A0008A464FF0FF322846314600F073FE1B4A5C
:1009B00090450ADA3A46534600F050FD04B0002252
:1009C000BDE8F04D134B00F03DBD154A4245A8BFB0
:1009D000A8F500154FF00004B8BF124D22462B4673
:1009E00000F03CFD0646884622462B460020094979
:1009F00000F034FD04460D463A4653463046414623
:100A000000F02CFD04B022462B46BDE8F04D00F06E
:100A100019BD00000000F03FB40D00003333D33F98
:100A20000000E93F0000D23F2DE9F0414F1E00EBEE
:100A3000C7010446D1E9000115461E4637F00602FB
:100A40000DD02A46334600F0FFFB7F1E04EBC703A0
:100A5000D3E9002300F096F937F00602F1D1022F16
:100A600025D0042F13D0062F18BFBDE8F0812A46E9
:100A7000334600F0E9FBD4E90A2300F083F92A4663
:100A8000334600F0E1FBD4E9082300F07BF92A4665
:100A9000334600F0D9FBD4E9062300F073F92A4667
:100AA000334600F0D1FBD4E9042300F06BF92A4669
:100AB000334600F0C9FBD4E9022300F063F92A466B
:100AC000334600F0C1FBD4E90023BDE8F04100F05B
:100AD00059B900002DE9FF4D054621F0004084B0D2
:100AE0000C46B0F1795F0BDA2846FFF747FD042882
:100AF00008BF00F06FF8284608B02146BDE8F08D29
:100B00002A460B46104600F09FFB06460F462A4633
:100B1000234600F099FB804626488A4632463B46EB
:100B200005217844FFF780FF83461098029160B357
:100B3000214A224B4046514600F086FBCDE9000198
:100B40005A4640465146029B00F07EFB824688464C
:100B5000DDE906014FF0FF3200F09CFD52464346AE
:100B600000F07CFC32463B4600F06EFBDDE90623DC
:100B700000F074FCDDE9002300F070FC08B02A46A8
:100B80002346BDE8F04D00F05DBC0B465A463046AA
:100B9000394600F059FB084A084B00F0F3F842468A
:100BA000534600F051FB08B02A462346BDE8F04DFD
:100BB00000F0E8B8F20C0000495555555555C5BF31
:100BC000012200F067BD002213461046114600F0D6
:100BD00089B90000024A0020110700F05BBD000047
:100BE00001FDFFFFADF5527D01214FF07970FFF758
:100BF0004DFCFFF753FBFFF73BFB00203349086038
:100C00004FF0C80A00BF3249086037E0504600F094
:100C1000F0FA06460F462E48006800F0EAFA32461F
:100C20003B46CDE9000100F05DF900224FF0804322
:100C3000CDE9020100F008FB0446264A264B00F0ED
:100C400003FBCDE9040100F04DF80022234BCDE970
:100C5000060100F0F9FA80460022204B00F092F8DD
:100C6000CDE9080100F096FA0AA9194A126841F87C
:100C7000220017480068401C1549086014480068A5
:100C80005045C3DB20E000201149086018E00AA9A4
:100C90000F4A126851F82200FFF7E4FA0A201049BF
:100CA000086004E00E480068401E0D4908600C48CA
:100CB00000680028F6DC06480068401C044908600B
:100CC000034800685045E2DBDDE700000800002033
:100CD000100000206F1283C0CA2109400000244088
:100CE0000000002000B5254B21F0004287B09A4259
:100CF00003DC0022134600922BE0214B9A4208D1DC
:100D000040B94FF00100FFF751FAFFF75CFF07B061
:100D100000BD03DBFFF754FF07B000BD02AAFFF7D9
:100D200041FC10F003014FF001000DD0012914D057
:100D300002291AD00DF1080C9CE80F00FFF7F6FD10
:100D400007B081F0004100BD0DF1080C00909CE857
:100D50000F00FFF7BFFE07B000BD0DF1080C9CE8C7
:100D60000F00FFF7E3FD07B000BD0DF1080C009088
:100D70009CE80F00FFF7AEFEE2E70000FB21E93F31
:100D80000000F07F10B591EA030F48BF83F00043E5
:100D900000F16C83841A71EB030C05D2121943EB3A
:100DA0000C03001B61EB0C01DFF824E14FEA115446
:100DB000A4EB135C1EEA430F18BF9EEA445F73D096
:100DC00023EA0E03DCF1200E21EA045143F48013E0
:100DD00032D322FA0CFE10EB0E0023FA0CFE41EB8C
:100DE0000E01CCF1200E03FA0EFE10EB0E0051F1B5
:100DF0000001B1F5801FCCF1200E32D201EB04517D
:100E000012FA0EF2BDE8104058BF7047401C38BFC0
:100E10005FEA420218BF7047002814BF20F00100AB
:100E200041F100014FEA410313F5001F38BF70473D
:100E3000A1F1C04100F000BB012A43EB0302ACF179
:100E4000200CDCF11F0E32BF4FF0000E23FA0CF322
:100E500010EB030041EB0451B4EB115FD0D0A1EBD8
:100E6000045101F5801149085FEA300001EB04519B
:100E70000ED350F1000038BF12FA0EFE08D1BDE8C3
:100E80001040C9E7401C38BF5FEA4202CAD1C3E73D
:100E9000BDE810404FEA410313F5001F38BF70470B
:100EA000A1F1C04100F0C8BA9EEA445F08D011EA3F
:100EB0005E0FBDE8104004BF01F000410020704704
:100EC000BDE8104070B500F069FA00BF64FBBE3E9B
:100ED0000000E0FF02494FF0000000F0A9BB00BF96
:100EE0000000F87F2DE9C04130B4DFF8A0C23CEA31
:100EF000111418BF3CEA131400F0EC8081EA0305DA
:100F00001CEA111444EAD57418BF1CEA131500F04A
:100F1000C780A4EB05044FF0004545EAC12145EA2E
:100F2000C32341EA505143EA525304F17F7499427A
:100F300004F500344FEAC0204FEAC22208BF9042B5
:100F400000F09C804FEA13650FF24016765D4FEA81
:100F5000134506FB05F7C7F1807706FB07F74FEA55
:100F6000D737A7FB03687642C8F58038A7FB06CEC3
:100F700038BFA8F1010807FB08E64FF0000EA6FBFA
:100F8000028CE6FB03CEDCF1000CCEF1004E38BF44
:100F9000AEF1010EA6FB0C584FF000074FF0000514
:100FA000E6FB0E87A1FB08C6A0FB07CE16EB0E06DC
:100FB00045F10005E1FB076515F1E04E7EBFA4F5A4
:100FC00080345FEA46066D4116F1800745F1000561
:100FD0004FEA17274FEA066647EA0567A6F1DE469D
:100FE000B6F1805F4FEA15251FD9384624F0010C71
:100FF00005EBC471BCF1FE6F01EB0C1102D8F0BC23
:10100000BDE8008124425CBF01F5801E9EEAC47FDA
:1010100002D4F0BCBDE80081244238D4F0BCA1F178
:10102000C041BDE8004100F007BA4FEAD22242EACF
:1010300043524FEAD323A7FB02864FEAD02040EA6F
:10104000415007FB03661EEA0E0F4FEAD12105FB54
:10105000026658BFA6EB0056B6EB00564FEA520E9A
:101060004EEAC37E18EB0E0E56EB530EBDD518EBB1
:1010700002085E417F1C55F10005B6E74FF480156C
:101080004FF000074FF000064FF00008ADE7F0BC4E
:101090004FF0000001F1C04101F00041BDE80081C6
:1010A00011EA0C1F0CEA131500D00CE013EA0C1F18
:1010B00000F025804FF00000F0BC81EA030101F050
:1010C0000041BDE80081F0BCBDE8004181EA0301B8
:1010D00000F0B2B9F0BCBDE8004170B500F05EF9B7
:1010E000097EFC3E00F007B881EA03014FF00000E2
:1010F00001F00041704781EA030100F09DB9F0BCA6
:10110000BDE800414FF0000021497047FFFDFBF9A9
:10111000F7F5F4F2F0EEEDEBE9E8E6E4E3E1E0DE2A
:10112000DDDBDAD8D7D5D4D3D1D0CFCDCCCBCAC89C
:10113000C7C6C5C4C2C1C0BFBEBDBCBBBAB9B8B7C3
:10114000B6B5B4B3B2B1B0AFAEADACABAAA9A8A8B6
:10115000A7A6A5A4A3A3A2A1A09F9F9E9D9C9C9B84
:101160009A9999989797969595949393929191902F
:101170008F8F8E8E8D8C8C8B8B8A898988888787C0
:101180008685858484838382828181800000FF0735
:101190000000F87F4FEA41034FEA5353A3F5806301
:1011A000D3F11E03C8BFD3F1210C0CDD4FF0004278
:1011B00042EAC12242EA505232FA03FC8CEAE17C54
:1011C000ACEBE1707047102BC4BF0020704703F5F3
:1011D000787CBCF1FF3F04D06FF0004282EA21002E
:1011E000704770B500F0DAF849922480002070470B
:1011F000F2E710F0004248BF4042B0FA80F310FA24
:1012000003F10AD0C3F11D0303F580634FEA415097
:1012100002EB035202EBD12170474FF00000704700
:10122000B0FA80F310FA03F10AD0C3F11D0303F5FD
:1012300080634FEA41504FEA035202EBD1217047DD
:101240004FF0000070470000DFF848C170B51CEA9D
:10125000111E1EBF1CEA13159EEA0C0F95EA0C0F17
:1012600000F06F8081EA030423EA4C134EEAD47E37
:1012700021EA4C1141F4801143F48013AE44A1FBE8
:10128000024CA0FB0365AEF17F7E361955EB0C05D1
:10129000A1FB034C4CF10003A0FB021C16EB0C0657
:1012A000654153F10003094218BF46F0010613F4EB
:1012B000007F0BD14FEA03314FEA0530340341EA96
:1012C000155140EA16506FF003020AE04FEAC321BD
:1012D0004FEAC520F40241EA555140EA56506FF0FA
:1012E000020202EB2E4201EB025585EACE710AD0D2
:1012F0005FEA440C18BF24F0004450F1000041F1B3
:10130000000120EAD47040F2FE7C624500D270BD3C
:10131000A84214BF4FF080444FF04044002E08BF55
:101320000024BEF1806FA8BFA1F1C041BDE87040AC
:1013300080F282804FF0000001F1C04101F00041D5
:1013400070479EEA0C0F0CEA131518BF95EA0C0FB4
:1013500006D04FF0000081EA030E0EF0004170BD90
:1013600000F01CF88900013E00F007B800F009B851
:101370004FEA430C5FEA5C5C08D081EA030100F0AD
:101380005BB84FEA410C5FEA5C5CF6D14FF00000BD
:10139000014970470000FF070000F87F0EF1020EC0
:1013A0002EF0030E5EF8046B364205D4012A43EB9F
:1013B000030515F5001F12D8012841EB010C1CF59F
:1013C000001F0CD80ED14FEAD17C15F5001F0CEB95
:1013D0004C0C0CF1020C08BF4CEBD37C04E04FF03A
:1013E000080C01E04FEAD37C0CEB4C0526FA05F61D
:1013F00006F00706B6F1040C06D20EEB860CBDE82B
:1014000070404CF0010C6047DFE80CF0090B020261
:101410004FF000414FF00000A1F5002170BD1946CA
:101420001046012851EB010418BFD4F5001484BF05
:10143000002001F0004170BD0808A0F500114FEA3E
:101440003101704791EA030F10B581F000413FF57B
:10145000A1AC83F0004300F009B8000010B591EA98
:10146000030F48BF83F000433FF594AC841A71EB3F
:10147000030C07D212198CF0004C43EB0C03001B39
:1014800061EB0C01DFF8A4E14FEA1154A4EB135C0B
:101490001EEA430F18BF9EEA445F00F0B08023EAC3
:1014A0006E03524221EA0451C3EB6E0338BF5B1E48
:1014B000DCF1200E25D322FA0CFE10EB0E0043FACD
:1014C0000CFE41EB0E01CCF1200E03FA0EFE10EBE8
:1014D0000E0051F10001CCF1200E29D412FA0EF2C7
:1014E00001EB0451BDE8104058BF7047401C1CBFC1
:1014F000B2F1004F704700280CBF491C20F00100DA
:10150000704712EB020E43EB030218BF4FF0010EBF
:101510004EEA4202ACF1200CDCF11E0E54D943FA23
:101520000CFE10EB0E0051F1FF31CCF11E0ED5D5A3
:101530000EF1010E12FA0EFE404141EB010101EBEA
:10154000445C5FEA5C5C10D910EBDE7001EB045187
:1015500038BFBEF1004FBDE8104018BF70470028EB
:101560000CBF491C20F00100704730D24FEAD42C48
:1015700011F5001124F400641BD0B1FA81F20B3A8A
:10158000A41AA41ED2F12003914030FA03F31943A8
:10159000904001EBCC71002C01EB0451BDE81040F0
:1015A000A8BF704701F1C0414FF0000001F00041B9
:1015B0007047B0FA80F310FA03F100D110BDE41ABD
:1015C000173C4805C90AE4E701EB045110BD491076
:1015D00001EB0451BDE810404FEA300002E04FF04B
:1015E000000170474A0008BF0042F8D0B2F5001F62
:1015F00028BF704701F000414FF0000070479EEA9D
:10160000445F07D011EA5E0FBDE8104004BF00211F
:1016100000207047BDE8104070B5FFF7BFFE00BF67
:1016200040DFF63E83F00041104670470000E0FFC7
:101630000CF00F03092B08BF082000F059800A2B7B
:101640000BD0082B18BF704708BF1CF0400F0AD002
:101650004FF000004FF0000170471CF0400F18BF22
:101660004FF0004070471CF0100F08D020F070437E
:1016700000F07F4242EAD3014FEA4370704700F026
:10168000604021F07F4242EA000201F07F4040EAE0
:10169000727070474FF0FF0C4CF4E06C1CEA115371
:1016A0001CBF9CEA030C9445C2BFDA4201EB025115
:1016B0007047002B0DD0BCF1000F0FD0002A01F0B5
:1016C0000041A4BF41F0E04141F07F614FF00000D4
:1016D000704701F000414FF00000704750EA0133BD
:1016E0004FF09B0C18BF4CF0806C7FF4F3AB70474D
:1016F0001CF4801F11D01CF4E02F03D06FEACC3112
:10170000490070474FF04050EFF3008222F07042E2
:1017100042EA000282F3008870474FF000007047F1
:101720004C5555555555A53F7751C1166CC156BFFF
:101730009015CB19A001FA3EAD529C804F7E92BE0F
:10174000C4B1B4BD9EEE213ED43888BEE9FAA8BD2E
:1017500000004054FB21F93F3163621A61B4D03D6F
:101760000000601A61B4D03D7370032E8A19A33B48
:101770000000002E8A19A33BC14920259A837B399A
:1017800000000000000000006E83F9A22915444EFD
:10179000D15727FCC0DD34F5999562DB4190433C7D
:1017A000AB6351FE61C5BBDE3A6E24B7E0D24D4259
:1017B000EA2E49061C92D1091CEB1DFE3EA729B159
:1017C000F53582E88444BB2E26709CE9417E5FB4E7
:1017D00039D69139F43953838B5F849C3B28F9BD0A
:1017E000FF97F81F0F9805DE8B112FEF1F6D0A5A18
:1017F000CF7E366DB709CB27663F464F2DEA5F9EF9
:10180000C7BA27757BF1E5EBF739073DEA92528AB3
:10181000B15FFB6B085D8D1FA6F810111111813FA0
:10182000D561C119A0012ABF7DFEB157E31DC73E96
:10183000EB9C2B8AE6E55ABE7CD5CF5A3AD9E53DDA
:10184000601800080000002018000000FC000008DC
:101850007818000818000020700600001801000821
:101860000000000000000000000000000000000078
:081870000000000000127A00E4
:040000050800015D91
:00000001FF
