:020000040800F2
:10000000900900205D0100086501000867010008F3
:10001000690100086B0100086D0100080000000084
:100020000000000000000000000000006F01000858
:10003000710100080000000073010008750100084C
:100040007701000877010008770100080000000030
:100050000000000077010008770100087701000820
:100060007701000800000000770100087701000810
:100070007701000800000000770100087701000800
:1000800077010008770100080000000077010008F0
:1000900077010008000000000000000000000000E0
:1000A00000000000000000000000000077010008D0
:1000B0007701000877010008770100087701000840
:1000C00000F002F800F03AF80AA090E8000C824430
:1000D0008344AAF10107DA4501D100F02FF8AFF20D
:1000E000090EBAE80F0013F0010F18BFFB1A43F016
:1000F000010318470007000030070000103A24BF32
:1001000078C878C1FAD8520724BF30C830C144BF7C
:1001100004680C60704700000023002400250026BE
:10012000103A28BF78C1FBD8520728BF30C148BF5A
:100130000B6070471FB51FBD10B510BD00F036F83D
:100140001146FFF7F7FF00F00DFA00F054F803B482
:10015000FFF7F2FF03BC00F057F8000009488047A2
:1001600009480047FEE7FEE7FEE7FEE7FEE7FEE799
:10017000FEE7FEE7FEE7FEE704480549054A064BB1
:100180007047000025050008C1000008900300200A
:1001900090090020900500209005002070477047CE
:1001A00070470000004870472C0300207546FFF799
:1001B000F9FFAE4605006946534620F00700854624
:1001C00018B020B5FFF7D8FFBDE820404FF000067B
:1001D0004FF000074FF000084FF0000B21F007012F
:1001E000AC46ACE8C009ACE8C009ACE8C009ACE872
:1001F000C0098D46704710B50446AFF30080204615
:10020000BDE81040FFF7A3BF01491820ABBEFEE7D1
:1002100026000200704740F20B1CC2F2000C60473F
:1002200040F2BF0CC2F2000C604740F2152CC2F243
:10023000000C604708B500200090009002E0009894
:10024000401C0090024900988842F8D308BD000085
:10025000A08601002DE9FE4F4768D0F808C0D0F80D
:100260000C80D0F81090D0F814A0CDF808A0D0F8E9
:1002700018A0CDF804A0D0F81CA0CDF800A0002252
:10028000012303254FF001160C885FE004F0010AFA
:10029000BAF1000F55D027EA030A91F802B00BFA21
:1002A00002FB4AEA0B0791F808A04FEA420B0AFA50
:1002B0000BFA2CEA050B4AEA0B0C28EA030A91F820
:1002C0000AB00BFA02FB4AEA0B0829EA060A91F87F
:1002D00003B002F1100E0BFA0EFB4AEA0B0A91F87A
:1002E00004B00BFA02FB4AEA0B09DDF808A02AEA7F
:1002F000060A91F805B00BFA0EFB4AEA0B0A91F8D0
:1003000006B00BFA02FB4AEA0B0ACDF808A091F8F6
:1003100009A04FEA420B0AFA0BFADDF804B02BEA07
:10032000050B4AEA0B0ACDF804A0DDF800A02AEA82
:10033000030A91F807B00BFA02FB4AEA0B0ACDF860
:1003400000A05B00AD007600521C6408002C9DD11B
:10035000DFF8C4A0504502D14FF01F0A01E04FF072
:10036000000A27EA0A0AC0F804A0DFF8ACA050454A
:1003700002D14FF01F0A01E04FF0000A2CEA0A0AEE
:10038000C0F808A0DFF890A0504502D14FF01F0A36
:1003900001E04FF0000A28EA0A0AC0F80CA0DFF8D2
:1003A00078A0504502D14FF01F0A01E04FF0000A3B
:1003B00029EA0A0AC0F810A0DFF85CA0504502D173
:1003C0004FF01F0B01E04FF0000BDDF808A02AEA08
:1003D0000B0AC0F814A0DFF840A0504502D14FF03E
:1003E0001F0B01E04FF0000BDDF804A02AEA0B0A16
:1003F000C0F818A0DFF820A0504502D14FF01F0B25
:1004000001E04FF0000BDDF800A02AEA0B0AC0F86B
:100410001CA0BDE8FE8F000000000C40044A904282
:1004200001D11F2200E0002221EA0202026070478F
:1004300000000C4001B5002000216A4600BF06E024
:10044000535C184400EB802080EA9010491C04297A
:10045000F6D3002104E000EB802080EA9010491CD4
:10046000FF29F8D900EBC00080EAD02000EBC030B3
:1004700008BD000029B1064AD2690243044BDA6183
:1004800004E0034AD2698243014BDA6170470000FD
:100490000000024030B5204CE46804F00204022C55
:1004A00001D11E4800E01D481B4CE46804F0010423
:1004B00004B140080146184CE46804F00404042C1C
:1004C00005D1154C6468C4F30324631C5943124CD2
:1004D000E468C4F3012424B1012C06D0022C13D10A
:1004E0000DE00E4C0E4D2C6013E00B4CE468C4F391
:1004F0000314641CB1FBF4F2094C226009E04FF4D0
:100500000044074D2C6004E049F64044044D2C6043
:1005100000BF00BF30BD00000000024000127A00A2
:100520001C03002000B50D480D49C8610846C0688D
:100530000020C8600846406800204860084680687F
:10054000002088600846006900200861084640696C
:1005500000204861FFF79EFF00BD0000100000086A
:10056000000002400025A946002600240027A046DE
:1005700000BF00BF00BF01210806FFF77BFF01217C
:100580000820FFF777FF4FF4E050974908800120DB
:100590008870002008720120887248729348FFF723
:1005A00059FE934D00BF49462846FFF734FE661EAC
:1005B00000BF08E028194946FFF732FEB04201D0DB
:1005C0004FF00108241DB4F5805FF3D34FF480672A
:1005D000B8F1000F04D139468448FFF71FFF09E046
:1005E00007E087F4806739468048FFF717FFFFF779
:1005F00021FEF6E77E4D4FF00009002409E028199E
:10060000FFF718FF0646281932464946FFF70DFE48
:10061000241DB4F5805FF2D3754D4FF0000900241E
:100620000BE02819FFF706FF064628194946FFF791
:10063000F7FDB04200D000BF241DB4F5805FF0D3B9
:100640004FF40067B8F1000F04D139466748FFF74F
:10065000E5FE09E007E087F4006739466348FFF7E5
:10066000DDFEFFF7E7FDF6E7614D4FF00009494673
:100670002846FFF7D0FD4FF0FF36002408E0281988
:100680004946FFF7CDFDB04201D04FF00108241DCF
:10069000B4F5805FF3D34FF44067B8F1000F04D195
:1006A00039465248FFF7BAFE09E007E087F4406791
:1006B00039464E48FFF7B2FEFFF7BCFDF6E74FF0B4
:1006C00000654FF0010949462846FFF7A4FD4FF0A9
:1006D000FF36002407E028194946FFF7A1FDB04284
:1006E00000D000BF241DB4F5805FF4D34FF48057D1
:1006F000B8F1000F04D139463C48FFF78FFE09E0FE
:1007000007E087F4805739463848FFF787FEFFF740
:1007100091FDF6E74FF000654FF00109002409E074
:100720002819FFF787FE0646281932464946FFF783
:100730007CFD241DB4F5805FF2D34FF000654FF0CF
:10074000010900240BE02819FFF774FE064628195A
:100750004946FFF765FDB04200D000BF241DB4F547
:10076000805FF0D34FF4A057B8F1000F04D13946A1
:100770001E48FFF753FE09E007E087F4A05739460B
:100780001A48FFF74BFEFFF755FDF6E74FF00065FF
:100790004FF0010949462846FFF73DFD4FF0FF366F
:1007A000002407E028194946FFF73AFDB04200D07F
:1007B00000BF241DB4F5805FF4D34FF4C057B8F1E7
:1007C000000F04D139460948FFF728FE09E007E089
:1007D00087F4C05739460548FFF720FEFFF72AFD8A
:1007E000F6E700BFFEE700002003002000000C40F9
:1007F0000050000824080008000000201C0300002E
:10080000FC000008400B00081C030020040000004E
:10081000FC000008440B00082003002070060000C4
:100820001801000808B5009002E00099491E0091E7
:1008300000990029F9D108BD70B502460B46BE48A3
:10084000BE4E30613046006800F03800411C012B7C
:1008500001D1580200E000200143B8480160426025
:1008600041F4E070B54E30603046C0683046C06834
:100870003046C0683046C56801F03801016000208C
:1008800030619007C40EE540E8B270BD70B5024615
:100890000B46A948A94E30613046006800F0380088
:1008A000411C012B01D1580200E000200143A34864
:1008B0000160426041F4E070A04E30603046C06894
:1008C0003046C0683046C0683046C56801F038011F
:1008D00001600020306102F00200C400E540A8B2CF
:1008E00070BD30B502460B46934C944D2C612C469E
:1008F000246804F03804611C012B01D15C0200E083
:10090000002421438D4C2160626041F4E0748B4DE2
:100910002C602C46E4682C46E4682C46E4682C469F
:10092000E06801F03801216000242C6130BD2DE920
:10093000F04106460F468048804908610846006835
:1009400000F03800441C012F01D1481500E00020C0
:1009500004437A480460002522E070197749486012
:100960000020886044F48864084604600520FFF78E
:1009700059FF44F400547148046049F64040FFF7C1
:1009800051FF24F480646D4804600520FFF74AFF9E
:1009900024F40154694804600120FFF743FF2D1D32
:1009A000102DDAD304F03804644804600020634951
:1009B0000861BDE8F08170B506465F485F4908618F
:1009C0000846006800F03800441C022E01D148158A
:1009D00000E00020044359480460002522E0574805
:1009E000456000205549886044F44464084604602A
:1009F0000520FFF717FF44F400545048046049F6FF
:100A00004040FFF70FFF24F480644C4804606420EA
:100A1000FFF708FF24F42154484804600120FFF741
:100A200001FF2D1D102DDAD304F038044348046073
:100A300000204249086170BD2DE9F04106460D468F
:100A400017463D483D490861012D01D1481500E098
:100A5000002005463948006800F0380445F00100E0
:100A60000443364804604660876044F4825404605E
:100A70000520FFF7D7FE44F40054304804600A20F4
:100A8000FFF7D0FE44F080042C4804602820FFF7D4
:100A9000C9FE24F080042948046024F480540460D2
:100AA0000520FFF7BFFE24F4015424480460012010
:100AB000FFF7B8FE04F03800204908600020086104
:100AC000BDE8F0812DE9F047054688461446A807A1
:100AD000C70EBC40FF2000FA07F641462846FFF744
:100AE00000FF814629EA060004EA060140EA010205
:100AF00041462846FFF7A0FFBDE8F0872DE9F04703
:100B000005468846144605F00200C700BC404FF673
:100B1000FF7000FA07F641462846FFF7E2FE8146DD
:100B200029EA060004EA060140EA01024146284695
:100B3000FFF782FFBDE8F0875155AA8A0080014087
:040B400000127A0025
:04000005080000C12E
:00000001FF
