:020000040800F2
:10000000680600205D01000865010008670100081E
:10001000690100086B0100086D0100080000000084
:100020000000000000000000000000006F01000858
:10003000710100080000000073010008750100084C
:100040007701000877010008770100080000000030
:100050000000000077010008770100087701000820
:100060007701000800000000770100087701000810
:100070007701000800000000770100087701000800
:1000800077010008770100080000000077010008F0
:1000900077010008000000000000000000000000E0
:1000A00000000000000000000000000077010008D0
:1000B0007701000877010008770100087701000840
:1000C00000F002F800F03AF80AA090E8000C824430
:1000D0008344AAF10107DA4501D100F02FF8AFF20D
:1000E000090EBAE80F0013F0010F18BFFB1A43F016
:1000F000010318475C0600007C060000103A24BF8C
:1001000078C878C1FAD8520724BF30C830C144BF7C
:1001100004680C60704700000023002400250026BE
:10012000103A28BF78C1FBD8520728BF30C148BF5A
:100130000B6070471FB51FBD10B510BD00F036F83D
:100140001146FFF7F7FF00F0BFFA00F054F803B4D0
:10015000FFF7F2FF03BC00F057F8000009488047A2
:1001600009480047FEE7FEE7FEE7FEE7FEE7FEE799
:10017000FEE7FEE7FEE7FEE704480549054A064BB1
:100180007047000089060008C100000868000020D0
:10019000680600206802002068020020704770474F
:1001A0007047000000487047080000207546FFF7C0
:1001B000F9FFAE4605006946534620F00700854624
:1001C00018B020B5FFF7D8FFBDE820404FF000067B
:1001D0004FF000074FF000084FF0000B21F007012F
:1001E000AC46ACE8C009ACE8C009ACE8C009ACE872
:1001F000C0098D46704710B50446AFF30080204615
:10020000BDE81040FFF7A3BF01491820ABBEFEE7D1
:1002100026000200704710B50121C80600F0DCF985
:10022000012000F0A1F900BF00F0BCF90128FBD1CA
:100230000221032000F028F9012000F01FF900BF7F
:1002400000F042F90128FBD1002000F05DF9012007
:1002500000F054F94FF4807000F062F910BD000016
:100260002DE9FE4F4768D0F808C0D0F80C80D0F8D0
:100270001090D0F814A0CDF808A0D0F818A0CDF8B0
:1002800004A0D0F81CA0CDF800A000220123032573
:100290004FF001160C885FE004F0010ABAF1000F7C
:1002A00055D027EA030A91F802B00BFA02FB4AEA9A
:1002B0000B0791F808A04FEA420B0AFA0BFA2CEA56
:1002C000050B4AEA0B0C28EA030A91F80AB00BFA6C
:1002D00002FB4AEA0B0829EA060A91F803B002F188
:1002E000100E0BFA0EFB4AEA0B0A91F804B00BFA57
:1002F00002FB4AEA0B09DDF808A02AEA060A91F88F
:1003000005B00BFA0EFB4AEA0B0A91F806B00BFA9D
:1003100002FB4AEA0B0ACDF808A091F809A04FEABF
:10032000420B0AFA0BFADDF804B02BEA050B4AEA95
:100330000B0ACDF804A0DDF800A02AEA030A91F820
:1003400007B00BFA02FB4AEA0B0ACDF800A05B00EB
:10035000AD007600521C6408002C9DD1DFF8C4A0CB
:10036000504502D14FF01F0A01E04FF0000A27EA82
:100370000A0AC0F804A0DFF8ACA0504502D14FF043
:100380001F0A01E04FF0000A2CEA0A0AC0F808A090
:10039000DFF890A0504502D14FF01F0A01E04FF066
:1003A000000A28EA0A0AC0F80CA0DFF878A0504535
:1003B00002D14FF01F0A01E04FF0000A29EA0A0AB1
:1003C000C0F810A0DFF85CA0504502D14FF01F0B21
:1003D00001E04FF0000BDDF808A02AEA0B0AC0F894
:1003E00014A0DFF840A0504502D14FF01F0B01E0F0
:1003F0004FF0000BDDF804A02AEA0B0AC0F818A0A1
:10040000DFF820A0504502D14FF01F0B01E04FF064
:10041000000BDDF800A02AEA0B0AC0F81CA0BDE81A
:10042000FE8F000000000C400268054B984201D18D
:100430001F2300E000230B439A4302607047000033
:1004400000000C400268054B984201D11F2300E0D8
:1004500000239A430A4302607047000000000C40EA
:100460004FF6FF71018000218170C17001714171EF
:100470008171C171017241728172704701490860D6
:10048000704700008800404210B502460C4BD86807
:1004900020F003001043D860586820F4706040EAF0
:1004A00001205860074B1B6843B10123054C241DF4
:1004B00023600023034C883CC4F88C3010BD00003E
:1004C000000002408800404238B50020009000BF84
:1004D000212000F02FF805460098401C009000985D
:1004E000B0F5C06F01D2002DF2D0212000F022F82B
:1004F00008B1012400E00024204638BD014908600D
:1005000070470000880140420146044AD06820F04C
:10051000F00040EA0110D060704700000000024087
:100520000146034AD06820F440700843D060704709
:100530000000024010B5014601F0E003202B02D17B
:10054000074B1A6801E0074BDA6B01F01F04012327
:10055000A34013400BB1012000E0002010BD0000BB
:100560000000024000800D400D49896821F0030120
:100570000B4A9160012802D002280ED106E00849FA
:10058000896841F00101064A916007E004498968E1
:1005900041F00301024A916000E000BF00BF7047D4
:1005A0000000024038B50020009000BF2220FFF775
:1005B000C1FF05460098401C00900098B0F5C06F40
:1005C00001D2002DF2D02220FFF7B4FF08B10124A0
:1005D00000E00024204638BD29B1064AD269024312
:1005E000044BDA6104E0034AD2698243014BDA61C9
:1005F000704700000000024030B5204CE46804F071
:100600000204022C01D11E4800E01D481B4CE46886
:1006100004F0010404B140080146184CE46804F0F9
:100620000404042C05D1154C6468C4F30324631C32
:100630005943124CE468C4F3012424B1012C06D0C0
:10064000022C13D10DE00E4C0E4D2C6013E00B4C20
:10065000E468C4F30314641CB1FBF4F2094C226097
:1006600009E04FF40044074D2C6004E049F6404493
:10067000044D2C6000BF00BF30BD000000000240F0
:1006800000127A000400002000B50D480D49C86131
:100690000846C0680020C8600846406800204860DE
:1006A00008468068002088600846006900200861CC
:1006B0000846406900204861FFF79EFF00BD00002A
:1006C0001000000800000240FFF7A5FD00F02AF826
:1006D00021E001211048FFF7B5FE104810490860DD
:1006E00004E00F480068401E0D4908600C4800688F
:1006F0000028F6DC01210848FFF796FE0748084964
:10070000086004E006480068401E05490860044887
:1007100000680028F6DCDCE700800B40E093040072
:10072000000000200EB50121C805FFF755FF6846FF
:10073000FFF796FE01208DF802008DF809008DF874
:100740000A0069460148FFF78BFD0EBD00800B4093
:10075000700700080000002008000000FC000008EE
:100760007807000808000020600600001801000853
:080770000000000000127A00F5
:040000050800015D91
:00000001FF
