:020000040800F2
:1000000028310020ED020008F1020008F302000888
:10001000F5020008F7020008F902000800000000DD
:1000200000000000000000000000000025020008A1
:10003000FD020008000000009D020008D90200082F
:100040000303000803030008030300080000000086
:100050000000000003030008030300080303000876
:100060002D37000800000000030300080303000808
:100070000303000800000000030300080303000856
:100080000303000803030008000000000303000846
:100090000303000800000000000000000000000052
:1000A0000000000000000000000000000303000842
:1000B0000303000803030008030300080303000808
:1000C00000F002F800F058F80AA090E8000C824412
:1000D0008344AAF10107DA4501D100F04DF8AFF2EF
:1000E000090EBAE80F0013F0010F18BFFB1A43F016
:1000F0000103184730A0000050A00000103A24BFB0
:1001000078C878C1FAD8520724BF30C830C144BF7C
:1001100004680C60704700000023002400250026BE
:10012000103A28BF78C1FBD8520728BF30C148BF5A
:100130000B607047662909F04284692900F0348118
:10014000002070471FB59DE8030001F0EBFB01F0B4
:10015000CAFB04000020002109F00CFA401C60607A
:100160000020002109F0F0F9E06001F0CBFA1FBD9A
:1001700010B501F03FFB10BD01F0B4FD1146FFF7D3
:10018000E1FF0FB400F00CF80FBC06F091FE00F098
:1001900023FB03B4FFF7ECFF03BC01F09DFD00005F
:1001A00004B007F0C9FD0448002107F025FE07F060
:1001B000D5FD00F011FB00003800002080F3098815
:1001C0007047EFF309807047684680F30988044858
:1001D0000078C00714BF0220032080F31488704702
:1001E000D89A0008DFF818C0EFF305831B0618BF84
:1001F0006047EFF31483DB0708BF604700DF7047F9
:10020000F1820008DFF818C0EFF305831B0618BF62
:100210006047EFF31483DB0708BF604700DF7047D8
:10022000D5840008EFF30980816911F8021CF1B947
:1002300090E80F10E047EFF3098C8CE80700144BAF
:1002400093E8060091420FD039B12CE9F00FC1F8C4
:1002500028C00CB408F0D0FC0CBC1A60D2F828C03E
:10026000BCE8F00F8CF309886FF0020E704710B5F0
:10027000084A1268914209D8074C54F8214090E886
:100280000F10A047EFF3098C8CE80F0010BD0000A1
:1002900054000020B0330008B033000808F07EFBA3
:1002A0000C4B93E80600914210D0EFF3098C2CE937
:1002B000F00FC1F828C00CB408F09EFC0CBC1A600A
:1002C000D2F828C0BCE8F00F8CF309886FF0020E5A
:1002D000704700005400002008F056FDE0E70000E1
:1002E00007F0F0FD08F050FDDAE70000084800478D
:1002F000FEE7FEE7FEE7FEE7FEE7FEE7FEE7FEE7D6
:10030000FEE7FEE703480449044A054B7047000036
:10031000C1000008282B002028310020282D0020B3
:10032000282D002000487047CC2900200FB401463A
:1003300010B504AA039802F075FB10BC5DF814FB1D
:100340002DE9F0410E460446002020622046E16877
:10035000884730B3252805D0D4E901219047206A89
:10036000401CF2E7E168204600278847050018D0C6
:10037000A5F14100192802D820354FF40067324614
:10038000294620462760FFF7D5FE40B1012804D05A
:10039000F61D26F007060836D8E7361DD6E72846AC
:1003A000DAE7206ABDE8F0812DE9F0410646002435
:1003B00010687529314616A510D0AFF300800028CB
:1003C00002DA404213A507E031688A0701D512A579
:1003D00002E0490704D511A5012401E0AFF3008034
:1003E00000210A2206F1240709E0B0FBF2FCB0FB71
:1003F000F2F302FB1C00303078541846491C0028E8
:10040000F3D123462A463046BDE8F04100F0C0BB98
:10041000000000002D0000002B0000002000000064
:100420000FB400B589B00CA96A4600910B9902F08F
:1004300019FB09B05DF814FB2DE9FF5F1D464FF075
:10044000FF3B91464FF000085F46D5E90146A96998
:1004500001987F1C8847296A824688470028F6D180
:10046000BAF1FF3F0CD0002E24F4C06419DD600601
:1004700014D5BAF12B0F09D0BAF12D0F0ED103E02C
:10048000584604B0BDE8F09F44F48064A96901981F
:100490007F1C8847761E8246002E02DDBAF1300F9F
:1004A00003D0B9F1000F26D032E0A969761E019879
:1004B0007F1C44F400748847002E824605DDBAF1A3
:1004C000780F06D0BAF1580F03D0B9F1000F10D051
:1004D0001EE0B9F1000F02D0B9F1100F18D1A969CF
:1004E000761E01987F1C24F40074884782461020F1
:1004F00002E0082000E00A20814609E0A96908FB23
:100500000908761E01987F1C44F4007488478246CF
:10051000002E05DD4946504600F0A0FD0028EDDA2A
:10052000E96901988847A00502D46FF00100A8E7A7
:10053000E00725D1600613D5600502D5C8F100009B
:1005400000E0404629680A1D2A600968220501D595
:10055000087015E0220701D5088011E008600FE05F
:100560002868011D29600068210502D580F80080F7
:1005700006E0210702D5A0F8008001E0C0F8008065
:1005800038467EE72DE9F04704464FF000094FF06A
:10059000FF37C568D4E90486A80707D0204601F0D4
:1005A0006DF8304604F058F8002802DA3846BDE805
:1005B000F087280502D5404600F0D3FA4C212046AA
:1005C00000F0E4F9206D20F0010020654846EEE7D8
:1005D00070B505460A4E304604F00AF805F14C04A1
:1005E000204604F005F82846FFF7CCFF05462046D4
:1005F00004F024F8304604F021F8284670BD0000CD
:10060000780000202DE9F041044600F14C073846FF
:1006100003F0EEFFE068810712D0800601D5A66ADC
:1006200004E0A169606808442169461A204601F087
:1006300025F8002205463146204600F06FFF00E015
:100640000025384603F0FAFF2846BDE8F0812DE981
:10065000F04118B1BDE8F041FFF7D4BF0B4E0025C3
:10066000304603F0C5FF0A4C6F1E07E02046FFF737
:10067000C9FF00B13D46206D20F00104002CF5D1EA
:10068000304603F0DBFF2846DFE70000780000205B
:100690002C2A00202DE9F04716468846814602F1B3
:1006A0004C07384603F0A4FF3046FFF76BFF18F8FD
:1006B000010B61280AD0722802D077283FD102E0CE
:1006C0000125002405E00225042402E0082448F264
:1006D000020518F8010B2B2806D0622809D018F85B
:1006E000010C74280AD00BE045F0030544F0020425
:1006F000EFE745F0040544F00104EAE744F0100494
:100700004846214603F0E4FF411C18D00021316126
:1007100071604FF40071F560F1617061200704D5DC
:1007200030460222002100F0F9FE306D40F0010059
:100730003065384603F082FF3046BDE8F08700267A
:10074000F7E72DE9F04115460E460746204C2046B6
:1007500003F04EFF2A4631463846FFF79BFF054619
:10076000204603F06BFF2846BDE8F0812DE9F041FB
:100770000E468046164D284603F03AFF154C206D74
:10078000C10704D0410804D020F00104F7E7224655
:1007900012E0542000F0AAF9070017D0206D47F0AE
:1007A0000101084354212065384600F0EFF807F1B5
:1007B0004C0003F02DFF3A4631464046FFF76AFFF2
:1007C0000446284603F03AFF2046CDE70024F8E728
:1007D000780000202C2A002010B50446AFF30080DA
:1007E0002046BDE81040FFF7D4BC2DE9F041054696
:1007F00090460E460020044600E0641C44450BD29F
:10080000285D00F0B8F90746305D00F0B4F9381AF9
:1008100002D1295D0029F0D1BDE8F08110B5431C5B
:1008200002E010F8011B71B18107FAD14FF00132DB
:1008300002C88C1A8C4314EAC211F9D0C01A0A06F5
:1008400003D0C01E10BDC01A10BD0A0401D0801E06
:1008500010BD0902FCD0401E10BD032A40F23080BA
:1008600010F0030C00F0158011F8013BBCF1020FF1
:10087000624498BF11F801CB00F8013B38BF11F872
:10088000013BA2F1040298BF00F801CB38BF00F889
:10089000013B11F0030300F02580083AC0F0088006
:1008A00051F8043B083A51F804CBA0E80810F5E7EA
:1008B000121D5CBF51F8043B40F8043BAFF30080CD
:1008C000D20724BF11F8013B11F801CB48BF11F842
:1008D000012B24BF00F8013B00F801CB48BF00F812
:1008E000012B704710B5203AC0F00B80B1E81850CA
:1008F000203AA0E81850B1E81850A0E81850BFF40A
:10090000F5AF5FEA027C24BFB1E81850A0E81850A8
:1009100044BF18C918C0BDE810405FEA827C24BFFC
:1009200051F8043B40F8043B08BF7047D20728BF8A
:1009300031F8023B48BF11F8012B28BF20F8023BD9
:1009400048BF00F8012B70474FF000020429C0F0A7
:10095000128010F0030C00F01B80CCF1040CBCF1F1
:10096000020F18BF00F8012BA8BF20F8022BA1EB43
:100970000C0100F00DB85FEAC17C24BF00F8012B28
:1009800000F8012B48BF00F8012B70474FF0000220
:1009900000B5134694469646203922BFA0E80C5075
:1009A000A0E80C50B1F12001BFF4F7AF090728BF50
:1009B000A0E80C5048BF0CC05DF804EB890028BFCC
:1009C00040F8042B08BF704748BF20F8022B11F0F5
:1009D000804F18BF00F8012B704700004FF0013C1A
:1009E00050F8042B51F8043B9A4221D1A2EB0C039E
:1009F000934313EACC1317D150F8042B51F8043B5E
:100A00009A4215D1A2EB0C03934313EACC130BD1FA
:100A100050F8042B51F8043B9A4209D1A2EB0C0385
:100A2000934313EACC13DBD04FF00000704700BFB4
:100A3000D01A01BAB1FA81F101F0180122FA01F0DD
:100A4000CB40C1F12001DBB2C0B2C01A2CFA01F3D5
:100A5000D11A914311EAC311E6D17047704770472C
:100A600070470B3020F0070070472DE9F041174622
:100A70000E460446FFF7F5FFA042054633D9002F86
:100A80001CBF06F10C0003F0B3FD30467468F4B1EE
:100A90002168A94217D305F1080291423CBF616861
:100AA000416007D3626861194A602268521B0A607C
:100AB00041602560002F1CBF06F10C0003F0BEFD55
:100AC000201DBDE8F08120466468002CE0D1294655
:100AD000304600F013FF0028D7D1002F1CBF06F1CD
:100AE0000C0003F0ABFD0020BDE8F08110B504461A
:100AF00000F0F4FE01682046BDE810400122B4E792
:100B000070B516460D46041F002808BF70BD002EA4
:100B10001CBF05F10C0003F06BFD2B465868002844
:100B200018BFA04238BF0346F8D31968CA18A242BA
:100B300018BF5C6003D122681C461144196021680B
:100B40000A19824218BF606004D14268626000687E
:100B500008442060002E1CBF05F10C0003F06EFD60
:100B600070BD10B5044600F0B9FE01682046BDE82E
:100B700010400122C4E710B5044600F0A7FE00684B
:100B8000005DC00602D504F1200010BD204610BD56
:100B90002DE9F0470D4699469246044600F1240897
:100BA0000168880604D5E06921F01001216000E0A9
:100BB0000120A84201DD471B00E00027A1697A1946
:100BC00002EB0900081AA0612078C00602D4204672
:100BD000AFF30080002608E0D4E901211AF80600EE
:100BE0009047206A401C761C20624E45F4DB20783A
:100BF000C0060AD52046AFF3008006E0D4E9012103
:100C000030209047206A401C2062381EA7F101075F
:100C1000F4DC07E0D4E9012118F805009047206AC8
:100C2000401C2062281EA5F10105F3DC2046AFF32D
:100C300000802078000602D50220BDE8F087012060
:100C4000FBE770472DE9FF4F0C461E464FF0FF377C
:100C50008BB0D2E90001DDF860800A908A46C1F3CA
:100C60000A5505B93D46002108464FF00000BAF18B
:100C7000000F00F4400005DA00EB80004FF4400163
:100C800001EA50004FEA9059B9F1010F00DDB94671
:100C90000A9850EA4A000ED044F61050A5F2FF35EB
:100CA00045432F14B8F1000F1ED07542291E1EDDDA
:100CB000C9F100021CE0B8F1010F4FF0000001D0B3
:100CC000302103E0F24305E02154401CB042FBDB3D
:100CD00030460022002121540B99C1F80880C1E957
:100CE00000200FB0BDE8F08FBD1B6D1CDEE74A464B
:100CF00000DA694206A800F001FF06AB93E807009E
:100D000003AB83E8070050460A9901F042FF8DE8E3
:100D10000700A0F500501F3800900398002D09DD52
:100D200042F21F014A46084403A90390684602F0B4
:100D3000CCF908E0A0F500504A461F3803A90390FB
:100D4000684602F0EAF98DE807000004000C03D0C1
:100D50004FF0FF30410800E01046B8F1000F03D01B
:100D60000022009215461EE0751E05D400F012FE0A
:100D7000303262556D1EF9D5B3460122084302D0C8
:100D800000227F1C04E02078302801D100227F1E41
:100D9000002A099786D01DE0112D07DA00F0FAFD30
:100DA000303262556D1C50EA0102F5D1084302D081
:100DB0000098C8B10EE00021681E05E0235C625C6B
:100DC00063542254401E491C8142F7DBAB46A81BEA
:100DD000401E0990002004F80B000B98099AC0F8F7
:100DE0000880C0E9002B7CE711264FF0000859E786
:100DF0002DE9F04F88460446D21D22F0070191B03C
:100E0000D1E90001CDE90A0103F028FA02460B9866
:100E1000C00F01D02D2007E02068810701D52B20CD
:100E200002E0202101EAC000032A099001D0072A2C
:100E300005DB03464146204600F00AFE0BE1207820
:100E4000800601D5E06900E00620B8F1650F814613
:100E500006D0B8F1660F18D0B8F1670F70D131E045
:100E60000020B9F1110F009001DB112301E009F11D
:100E700001030AAA01A90CA8FFF7E4FEDDE90C7042
:100E8000002609F10105834647E001204B4600900A
:100E90004FF000470AAA01A90CA8FFF7D3FEDDE92D
:100EA0000DB00C995D46002610B909F101000D182E
:100EB000B9EB050003D4C0F1FF3609F10105A5EB3C
:100EC00009002BE0B9F1010F01DA4FF00109002010
:100ED000B9F1110F0090484601DD112300E00346EF
:100EE0000AAA01A90CA8FFF7ADFEDDE90C704D467A
:100EF00000268346207800070AD4AB4500DA5D4619
:100F000001A8012D04DD411911F8011C302907D079
:100F10004F4502DA17F1040F04DA012082460FE090
:100F20006D1EEEE7002F02DCED1B3E4403E0781C53
:100F3000A84200DD7D1CB81B00F1010A4FF00047FC
:100F40002078000703D4AA4501DB4FF0FF3A0021C7
:100F5000B7F1004F0DF143088DF8431024D0022063
:100F60002B23002F01DA7F422D230A21021EA0F13C
:100F7000010000DC5FB197FBF1FC97FBF1F201FB94
:100F80001C7C17460CF1300C08F801CDEEE7A8F1F7
:100F9000010003702188090501D5452100E0652184
:100FA000A0F1010800F8011C09980FA9A1EB08079E
:100FB000FF1D00B10120411901EBEA70A16938441D
:100FC000081A401EA0612078C00602D42046AFF364
:100FD0000080099828B1D4E901219047206A401C7B
:100FE00020622078C00622D52046AFF300801EE0A4
:100FF000002E04DBB34502DD01A8805D00E0302057
:10100000D4E901219047206A401C2062761CAAF195
:1010100001005FEA000A0AD100F065FCC0680168BF
:10102000405CD4E901219047206A401C2062281EC0
:10103000A5F10105DCDC07E0D4E9012118F8010B7A
:101040009047206A401C2062381EA7F10107F3DC9C
:101050002046AFF30080032011B043E63A2800D2C7
:10106000303820F02002412A01D3A2F13700884213
:1010700001D34FF0FF3070472DE9FF4F064689B08E
:101080000878FF2806D0491C2D2805D000244FF0F1
:10109000000908E000200CE00124F8E709EB8903CF
:1010A000491C00EB43090878FF28F7D114B1C9F1B6
:1010B00000008146107800252C46AA4629462D2896
:1010C00001D02B2804D1521C2D2813D00020824699
:1010D0008B461078FF280FD04FF0000C0A21521CCD
:1010E000A5FB017804FB018105FB0C11C5194BEB35
:1010F0000104EEE70120EAE7002108464FF0000076
:10110000BAF1000F02D000EB80004008C0F3815814
:10111000B8F1010F01DD4FF0FF380C9809EB000723
:1011200055EA040009D04FF0020917F5FA7F0BDAEF
:101130004FEACA70C6E900B012E04FEACA70C6E9C9
:1011400000B00DB0BDE8F08FB7F5FA7F0DDDF048C7
:101150007844D0E90010C6E9001040EACA70706017
:1011600000F0C6FBC0F80090EBE7391E02DAC8F1C8
:10117000000200E0424600DA794206A800F0BEFC18
:1011800006AB93E8070003AB83E8070044F23E0098
:101190005BEA04010090584604D144F21E012C463B
:1011A0005D460091210C0904014306D100992404F5
:1011B00044EA15442D041039009104F07F410143A5
:1011C00006D10099240244EA15642D0208390091E1
:1011D00004F07041014306D10099240144EA1574DA
:1011E0002D01091F009104F04041014306D10099EF
:1011F000A40044EA9574AD00891E009104F00041FA
:10120000084304D100986D196441401E0090424685
:101210006846002FCDE9014503A902DD01F091FFE9
:1012200001E001F066FFBAF1000F04460D4601D05F
:1012300084F0004440F2FF7724F00040284303D0BC
:10124000C4F30A50B84212D100F052FBC0F800902B
:10125000C4F30A50B8420AD1AE487844D0E900102D
:10126000C6E9001004F000410843706069E7C6E970
:10127000005466E72DE9FF4F1F464FF0000A4FF07C
:10128000FF38454691B0D7E90146CDF83CA000F0C3
:101290002AFBC0680168405C1090B96912986D1C07
:1012A0008847396A814688470028F6D1B9F1FF3F5F
:1012B0000AD0002E24F4D06411DDB9F12B0F08D030
:1012C000B9F12D0F0BD102E0404615B03AE744F4D6
:1012D0008064B96912986D1C8847761E8146600546
:1012E00004A901D52D2000E02B20002E01F1010BD7
:1012F0000DF130088DF810003FDDB9F1690F08D00D
:10130000B9F1490F05D0B9F16E0F02D0B9F14E0F06
:101310001CD13B4601A8009580E85002DDE912127D
:101320006FF0020008F0B1FBC11CCED10EE0B9692C
:1013300012986D1C884781461398761E44F40074F9
:1013400005600F98401C002E0F9016DDB9F1300F8C
:10135000EDD0B9F1780F02D0B9F1580F0DD10F9837
:1013600001280AD13B46CDE90054DDE91212001FE5
:10137000029608F088FBC11CA7D1109989453ED17F
:1013800044F0800406E01399681CAAF1010A44F4B1
:1013900000740860B9696D1C1298761E8847302861
:1013A0008146F0D02BE01099894505D1200603D461
:1013B000761E44F0800418E0484603F012F908B3A2
:1013C000761E0DF123018B4544F4007408D2A9F177
:1013D00030000BF8010B200607D5AAF1010003E04D
:1013E000200602D40AF101008246A00502D5139915
:1013F000681C0860B96912986D1C88478146002EE8
:10140000D1DC53E0002E51DDB9F1650F02D0B9F106
:10141000450F4BD1A00549D5B9696D1C1298761EB0
:1014200024F440748847002E81460CDD2B2804D01C
:10143000B9F12D0F07D144F48074B96912986D1C6D
:101440008847761E8146E00501D52D2100E02B213D
:1014500008F8011BCDF8008021E0761E0DF139015E
:10146000884544F400740CD2A9F1300010F0FF005C
:1014700088F8000002D10099884509D908F10108CF
:1014800006E0E00501D5244801E042F20F708246F3
:10149000B96912986D1C8847814613980560002E23
:1014A00004DD484603F09DF80028D6D1F96912986A
:1014B0008847FF2053468BF8000088F80000002082
:1014C0000A900B9004AA0CA90AA8FFF7D5FDA00565
:1014D00002D46FF00100F8E614F0240F0AD0E00700
:1014E00014D13868DDE90A12031D3B600068C0E9C9
:1014F00000120BE00AA9684602F0D4FEE00705D10D
:101500003868009A011D3960006802602846DCE6F0
:10151000F08F0000E68E0000F1D8FFFF2DE9F041CA
:10152000044616460D464769007B80072ED0384694
:1015300003F0BCF850BB3EB3012E02D0022E25D1E1
:1015400004E0204600F06CFB05441DE0384603F043
:1015500098F8E168002841F01001E16005DA2046C2
:1015600000F058F80120BDE8F081C9030BD562688E
:10157000E16A914200D81146A26911442269891A90
:10158000814200DD08460544002D01DA0220EAE729
:10159000E16A6068E268814206D29103E06203D5A5
:1015A00022F4003141F01002A6690027AE4213DC9C
:1015B000E16A814201D90B4600E0034603EB060CC9
:1015C0002369ACEB030CAC4506DD814201D98C46A6
:1015D00000E084469C4505D1A760276042F02000CA
:1015E000A5620DE0AD1BE669AE1B8142A66000D985
:1015F0000846C01A281A20605819606022F020009E
:1016000003490840E060002084F84870ABE7000020
:10161000BFCFD7FFC16821F4001141F08001C16044
:1016200000218160016070472DE9F0478146144632
:101630000E464FF0FF383248D5685769054209D049
:101640003846A16903F099F8002811DB2C48C04303
:101650000540E5602B4632464946384603F0A7F878
:10166000A16920F00042B21A11440028A16103D000
:101670002046FFF7CFFF4046BDE8F08770B504462F
:101680000569C06A6168884200D80846E16821F4AB
:101690002011E160C90312D5A84208D02246411B9F
:1016A0002846FFF7C1FF10B14FF0FF3070BD00209A
:1016B000E562C4E90150E06820F48030E060002079
:1016C00070BD10B50446C06820F02000E060A16A3B
:1016D000A06988420DD02046FFF7D0FFE06820F4D3
:1016E000405040F01000E060A06AA0612069E06214
:1016F000606044F24001E0688843E06010BD000093
:101700001000020010B565485421FFF73FF9644806
:101710005421FFF73BF963485421FFF737F962483A
:101720005E49624A624B01605D4810605D4A1A6022
:10173000431C0B65511C01650120106557484C3056
:1017400002F066FF56484C3002F062FF55484C30BC
:1017500002F05EFF574802F05BFF58484F4A56A11F
:101760007844FEF7EEFF20B9544878440A3800F078
:10177000ACFA54484A4A52A17844FEF7E2FF20B935
:10178000504878440A3800F0A0FA4F48454A4CA126
:101790007844FEF7D6FF20B94B4878440A3800F069
:1017A00094FA40233D48DC000021224600F059FA1B
:1017B00020B142487844543800F087FA384822462D
:1017C0004023002100F04DFA20B13E4878445438BF
:1017D00000F07BFA334822461023002100F041FA42
:1017E000002806D038487844BDE81040563800F04C
:1017F0006CBA10BD2B482DE9F041006D2D4E20F044
:101800000104304602F0F4FE244D4C35284602F027
:10181000EFFE2248FEF7B6FE284602F00FFF2846EC
:10182000AFF300801E4D4C35284602F0E1FE1C4807
:10183000FEF7A8FE284602F001FF2846AFF300801D
:10184000184D4C35284602F0D3FE1648FEF79AFE96
:10185000284602F0F3FE2846AFF3008014E0206D26
:1018600020F0010504F14C00074602F0C1FE2046BD
:10187000FEF788FE384602F0E1FE3846AFF30080FE
:101880002046FFF76EF92C46002CE8D1304602F0D6
:10189000D5FE0848AFF30080BDE8F0812C2A002077
:1018A000802A0020D42A00207C0000208000002014
:1018B0008400002078000020720000002C840000CA
:1018C000770000001B8400000B84000010B500F0BE
:1018D0000AF8001D10BD00BF9D7C000010B5FEF78A
:1018E00021FD083010BD10B5FEF71CFD203010BDE5
:1018F00002F03EBE704770477047704738B50446E7
:101900000A4600206946AFF30080002808BF38BDB2
:1019100002460099204600F00AFA012038BD012055
:1019200001F064B8F8B5AFF30080054600200C461E
:10193000102000BF0646A819A0420DD932466946BC
:101940000020AFF30080070008BF01F04FF80098B7
:10195000A04218BF0546C419FFF7C0FF056007463F
:10196000F01D20F007004619284600F00AF8B4429E
:1019700008BFF8BDA21B31463868BDE8F84000F04A
:10198000D6B900210160C0E901100C3002F040BE60
:101990001020704730B5B0F10A024FEA900E71F195
:1019A00000034EEA817EB0EB0E0061EB91014FEA3D
:1019B000101E4EEA017E10EB0E0041EB11114FEAB2
:1019C000102E4EEA016E10EB0E0041EB11214FEA92
:1019D000104E4EEA014E10EB0E0041EB1141401843
:1019E00041F100014FEAD00040EA41704FEAD101D5
:1019F00010EB80054FEA810444EA907444EB010443
:101A00006D1944EB0404521BA3414FF0000348BF7F
:101A10000A3200D530BD401C41F1000130BD00004C
:101A200001694A1C02610878704700B58FB0CDE9A2
:101A300001310021059105497944CDE90310114692
:101A40006846FEF77DFC0FB000BD0000E5FFFFFF1C
:101A50002DE9F0411F46044603260168072A01F4D8
:101A6000006004DB08B116A505E016A503E008B187
:101A700015A500E015A521F010002060A069C01E8A
:101A8000A0610FB1401EA0612046AFF300804FB1AE
:101A9000D4E9012138469047206A401C2062C01CCE
:101AA000206206E0206AFAE7D4E9012115F8010B6B
:101AB0009047761EF8D22046AFF30080BDE8F08153
:101AC0004E414E006E616E00494E4600696E6600E2
:101AD000026811441378016018467047D1600549C7
:101AE0007944516104497944116200211161114620
:101AF00000F050B9EDFFFFFF990200002DE9F0471B
:101B0000814616468AB0334878440DC88DE80D00EA
:101B100030487844801C03AC0DC884E80D0041F6C1
:101B20009B300844372190FBF1F290FBF1F5A5F1D1
:101B3000800501FB12041B3C02D56442012000E039
:101B40000020DFF890A080460027FA44AAF1BE0AE0
:101B50000DE0E00709D03246684607EB47010AEB83
:101B6000810101F0DAFA8DE8070064107F1C002C77
:101B7000EFD1184F7F44AC3F18E0E80714D007EBD3
:101B800004100DF1180A90E80E008AE80E00C068F3
:101B9000F04201D198190890324606A903A801F035
:101BA000BCFA03AB83E807006D10641C002DE4D180
:101BB00032466946B8F1000F03A802D001F085FA59
:101BC00001E001F0AAFAC9E90001C9F808200AB049
:101BD000BDE8F08700860000704710B54FF0FF3475
:101BE000C1688A020FD5036B42689A420BD1014645
:101BF00090F82520104600F0B5FE401C01D120468B
:101C000010BD002010BD11F0C00FF8D1026941686D
:101C10009142F4D90268491E521CC0E90021F0E744
:101C200010B50146C268900703D0900607D5886AB0
:101C30000AE0FFF75DFE01210160881E10BD8B697F
:101C4000486818440B69C01A91F848301BB191F8E4
:101C50004910401A10BD1103FCD50028FADD401EC2
:101C600010BD2DE9F04704461E4690460D46C76854
:101C70004C30814602F0BCFCB80714D0780212D474
:101C80004046B8F5807F09D0B0F5007F06D0B8F5A2
:101C9000806F08D1012604F1240506E0701E6FF064
:101CA0007F41884201D3012409E02561E661656036
:101CB000E06820F4706040EA0800E06000244846D4
:101CC00002F0BCFC2046BDE8F08710B500F074FEC1
:101CD000BDE8104000F06ABE01491820ABBEFEE727
:101CE000260002007546FEF71DFBAE46050069465C
:101CF000534620F00700854618B020B5FEF702FBDA
:101D0000BDE820404FF000064FF000074FF00008FC
:101D10004FF0000B21F00701AC46ACE8C009ACE87D
:101D2000C009ACE8C009ACE8C0098D46704730B4C2
:101D300004468C464368002B18BF634538BF1846DD
:101D4000F8D303681844604507D0C81C20F007008A
:101D500000F1040CACEB0100121A2146CCF8002073
:101D600030BC00220CF10400FEF7CABE10B5FFF72C
:101D7000BFFD006810BD10B50446FFF7B9FD046053
:101D800010BD10B50446FFF7A1FD0068005D00F02E
:101D9000010010BD2DE9F34F4FF0000A0C465646E6
:101DA0008DB001200C9001F10C000B9062690B9832
:101DB00001219047051E2DD0252D2CD0216A884762
:101DC000C0B162690B9801219047216A88470028B9
:101DD000F7D16269411E0B98904700E0761CA1691B
:101DE0000D988847216A88470028F7D1E1690D9846
:101DF0008847DBE7A1690D988847A842074601D1CB
:101E0000761CD3E7E1690D9888477F1C02D1BAF1AF
:101E1000000F6FD06BE162690B9800273D46394691
:101E200090472A2804D162690B9801219047012527
:101E3000DFF8D08262690B9801219047A0F1300150
:101E40000A290AD24745E5DC07EB870100EB410789
:101E5000303FDFD445F01005ECE7E90601D46FF020
:101E600000476C280AD04C2814D0682815D06A285E
:101E70000DD074281CD07A281AD01DE062690B9806
:101E8000012190476C2802D045F0040514E045F08C
:101E900002050DE045F020050AE062690B9801217A
:101EA0009047682802D045F0080505E045F4006534
:101EB00062690B9801219047C4E9015765283DD01C
:101EC00019DC58287AD00CDC452837D004DC2528CA
:101ED00026D041289ED131E046282FD0472899D1DD
:101EE0002CE05B2877D0612828D063287CD0642838
:101EF00023D15AE0F6E06F2848D008DC66281DD0D0
:101F000067281BD0692821D06E2816D127E07028B9
:101F100045D0732868D0752847D078280DD14DE07A
:101F2000A1690D988847252805463FF469AFE16906
:101F30000D9888476D1C3FF46AAFD8E00D99234691
:101F40006A466FF0010007F09CFDC5E045F04000D7
:101F500023464FF000026060A80736D43EE0E80751
:101F60007FF447AF2068011D21600068290501D575
:101F700006701BE7290701D5068017E7A90703D5D7
:101F8000F117C0E9006111E706600FE745F0400076
:101F900023464FF008026060A80716D41EE040F602
:101FA0000E0125EA0100606016E045F0400023467E
:101FB0004FF00A026060A80707D40FE045F0400028
:101FC0006060A80708D5234610220D996FF0010024
:101FD000AFF3008080E007E0102223460D996FF0F8
:101FE0000100FEF729FA77E04FF0000963284F4619
:101FF000C8464B46CB4602D05B2806D038E0E80600
:1020000001D40120A060012732E06269D4F80CB04D
:102010000B98012190475E2807D14FF001094946EE
:102020006269D4F80CB00B989047216939B9002146
:102030000A4603AB43F82120491C0829FADBD8B330
:10204000216949B308F1010862690B9801219047A1
:102050005D28F4D1B9F1000F09D0002003A951F88F
:102060002020D24341F82020401C0828F7DB03AB96
:102070002069002820794FEA40701ED05B46224636
:10208000CDF80080CDE901970D9900286FF001008F
:1020900020DAAFF300801FE0C11703AA00EBD16183
:1020A0004B1121F01F0102EB8302411A136801203A
:1020B000884003431360C7E719E00D9922460028C2
:1020C0006FF00100009702DAAFF3008004E0AFF395
:1020D000008001E0AFF3008000280ADA401C06D13E
:1020E0000C9820B14FF0FF300FB0BDE8F08F504694
:1020F000FAE7E90701D10AF1010A064400200C9031
:1021000054E60000CCCCCC0C2DE9FF4F1F464FF01D
:102110003C0987B04FF00042DDE9141001F10108DD
:10212000DDF858A002EA4050039000200490834656
:10213000054604460590B969461E08988847AAF1E5
:10214000010A0290BAF1000F37DD02982E2815D04F
:102150001021FEF783FF00282ADB4FF0010B0499C2
:10216000014316D0B9F1000F0BDB4A46C11700F04E
:1021700045FC05430C43A9F1040905E00120059045
:1021800007E008B145F0010501200490059800B969
:10219000361DB969089808F101088847BBF1000F9E
:1021A000AAF1010A0290CDD00999C1F80080C9E7CF
:1021B0000298702808D0502806D0F96908988847F6
:1021C000BBF1000F14D04FE0002002900120BBF1C2
:1021D000000F049009D0B969089808F101088847F0
:1021E000AAF10109B9F1000F07DCF96908988847DD
:1021F0006FF001000BB0BDE8F08F2B2804D02D2824
:102200000CD14FF0FF300490B969089808F101082B
:102210008847A9F10109B9F1000FE6DD411CE4D0BE
:102220000A21FEF71BFF0028DFDB029908F10108F5
:1022300001EB810100EB41000290B96908988847E1
:102240000A21FEF70BFF099AA9F10109B9F1000F64
:10225000C2F8008001DD0028E7DAF96908988847AC
:102260000499029800FB016655EA040004D004F0CA
:102270004041090002D006E0039898E0A40044EA37
:102280009574AD00B61E04F00041080002D16D192E
:102290006441761E159810F0240F03D04FF00B09FF
:1022A0005C4803E04FF028096FF07D0082465645F8
:1022B00007DAAAEB06018944B9F1410F01DD4FF0BD
:1022C000410901200021A9F1010200F097FB02461B
:1022D00028400B462140084301D0012100E00021A5
:1022E000501E029143F1FF3128402140084301D0A4
:1022F000012000E000200299834651EA0B014FD0F3
:10230000002108464FF00000039900F4400039B165
:1023100000EB80004FF4400100EBD07001EA600058
:102320008015012802DD4FF0FF3000E013D0401C83
:1023300036D0029860B3BBF1000F0CD14A460120A1
:10234000002100F05BFB28402140084301D0012020
:1023500000E00020E0B101204A46002100F04EFBE1
:10236000034640190A4661412D1A8C4111D3B9F137
:10237000400F09DD159810F0240F02D0AAF13406A1
:1023800003E0AAF1170600E0761C00254FF0004498
:1023900006E05B1E42F1FF3220EA030521EA020457
:1023A000CAF10100B04206DA1B49039808430190C4
:1023B000002000900EE0039AC4F3D321E80A0A43F8
:1023C000164940EA44500A433146CDE900026846C6
:1023D00001F0B4FF159810F0240F0BD01598C0072A
:1023E00015D13868DDE90012031D3B600068C0E9C3
:1023F00000120CE002A8694601F054FF1598C007CE
:1024000005D13868029A011D3960006802604046B3
:10241000F0E6000002FCFFFF0000F07F0000F03F4C
:102420002DE9FF4F92461D4685B04FF00041DDE992
:10243000124BDDE914727F1E01EA4B50414940F016
:10244000FF4940EA0108002122F0200049280491B8
:1024500002D04E2828D04CE03BA0012607C88DE8CA
:102460000700A9690698641C88477F1E014606D4A8
:102470001DF8060018B121F0200181420BD0E96956
:1024800006988847032E34D0082E32D06FF0010012
:1024900009B0BDE8F08F761C032E01D0082EE0D1E4
:1024A000601CCAF80000DCE7A9690698641C88472C
:1024B0007F1E2AD420F02000412826D1A969069841
:1024C000641C88477F1E20D420F020004E281CD199
:1024D000A9690698641C88477F1E48F4002849F4BF
:1024E0008009CAF8004001D4282806D0E969069876
:1024F00088475FEACB7012D022E0A9690698641C75
:1025000088477F1E01D4002803DAE96906988847C6
:10251000BCE72928F1D1641CCAF80040E9E71BF0A8
:10252000240F07D028680499031D2B600068C0E9B8
:10253000001805E02868021D2A600068C0F80090B5
:102540002046A5E70000F07F494E46494E495459C0
:102550000000000070B50D4601461446D36850696E
:102560002A4602F0EBF8002807DA411C07D0E168A0
:1025700020F0004041F48041E160281A70BD2046FF
:10258000FFF748F84FF0FF3070BDC16800220260CD
:1025900021F4805141F0400111F4C06FC16001D0BD
:1025A0008260704702694168891AC269891A81602C
:1025B00070472DE9F0470446C06840F48000E060B1
:1025C000010312D520F40020E060810606D4E26AFF
:1025D00061688A4200D80A46511A216040F400100E
:1025E000E06094F82500BDE8F08720F40010E0607A
:1025F000800602D52046FFF764F8E06842F28101C8
:102600004FF0FF390140012903D02046FFF702F8BF
:10261000B6E02168002600290ADAC94340F4805058
:102620002160C4E902606068411C61600078DAE7FB
:1026300044F2400108420CD020F4A04040F0400099
:102640002660E06021696068401AE169401AA06074
:1026500096E0216991B9C00310D4E069FEF746FA0B
:102660002061B0B1E06840F4006010F4407FE060A9
:1026700002D140F48070E06020696060E068D4F8C6
:1026800014A0C1061AD5C0030ED52046FEF7F6FFEA
:1026900014E004F1240020610120E061E06820F4EE
:1026A000407040F48060E6E721696068401AA169E3
:1026B0000144504602F061F80028A6DBE068C00340
:1026C0002AD56168E06A884200D808462169451A1F
:1026D000E069471B1BD02046D4F81880FEF7CEFFD8
:1026E00008EB05015046C4F8188002F046F80028AF
:1026F0008BDBE06840F40030E060000202D5A069A6
:102700002844A061E1692069C91B45180DE02046F5
:10271000FEF7B4FFE769F5E725696168D4E90607C4
:10272000491BE56208446560A061E06820F0100084
:1027300010F4C06FE06002D0204600F0B3F9E0680A
:1027400040F48050C4E90260000205D52069E062CF
:1027500060606FF0010046E7224639462846FFF7E1
:10276000F9FE411C0CD02918E16258B1401E2060CE
:10277000681C6060E06840F40030E060287832E770
:10278000484630E765602046FFF7FFFEF8E72DE991
:10279000F04705460C46C86820F4201040F480003D
:1027A000C860800602D50846FEF78BFFE06841F25C
:1027B00082014FF0FF390140022903D02046FEF785
:1027C00029FFB5E000F42041B1F5004F0FD1C0035F
:1027D00006D56168E06A884200D80846606006E075
:1027E0002069E0626060606901F04BFFA061A06851
:1027F0000022EEB200280DDAE1688B050AD4C0434E
:10280000A06041F490302260E0606068411C61602B
:102810000670A5E0E0689046226040F40050E06059
:10282000206968BB606901F041FF012704F12405BC
:10283000A0B1A08910F4407F08D0E069FEF756F9F6
:10284000206118B1E06840F4006016E0E76125619E
:10285000E06820F4407040F480600EE0E069FEF72C
:1028600045F900282061F1D0E06840F4006010F4E0
:10287000407FE06002D140F48070E06020696060D9
:10288000E06825696FF0010AC1051FD56168E06A3B
:10289000884200D80846411B04D022462846FEF74D
:1028A000C3FEF0BBE068010203D5E562C4E901584C
:1028B00054E0691CE1626160E16940F48030491EC6
:1028C000C4E9021030462E70BDE8F087010202D53F
:1028D00000F480320AE06068411C61600670E068C4
:1028E0000A2E40F48030E06006D00022E16A606881
:1028F000814203D90B4602E00122F7E70346A7898C
:102900005B1B7F0503D4E7699F4200DDE2B1814292
:1029100000D80146E5620F1AC4E90158002B09DD11
:1029200000E005E0224619462846FEF77DFE08B184
:102930004846C9E747B1A069E5626560C01BA06170
:10294000E06840F01000E060E068000208D56168CF
:10295000A069E562491B08446560A0615046B3E781
:102960003046B1E7CA68431C0FD00D4B1A420CD158
:10297000D3070AD081F825004B680B6300238B60D6
:1029800012F0C06F0B6003D004E04FF0FF307047CF
:1029900042F00072034B1A40034B1A43CA6070475F
:1029A00080200800BFFFDFFF00104800002801D092
:1029B000FFF792B97047000010B5014602A000F081
:1029C0009FF8012010BD000053494752545245441E
:1029D0003A2052656469726563743A2063616E27B8
:1029E00074206F70656E3A200000000010B500F092
:1029F000A1F8BDE81040FFF7D9BF7047B2F120033E
:102A00000AD5C2F1200301FA02F120FA03F300FA19
:102A100002F041EA0301704700FA03F14FF00000B1
:102A2000704700002DE9F04114460D46074601F1BC
:102A30004C06304601F0DCFD094B7B44224629461A
:102A40003846FEF7F2FF0446287B000601D54FF01A
:102A5000FF34304601F0F2FD2046BDE8F081000071
:102A6000793500002DE9F04114460F46064600F185
:102A70004C05284601F0BCFD08487844A061084890
:102A8000784422463946E0613046FFF727F804468D
:102A9000284601F0D3FD2046BDE8F0818B330000CD
:102AA00057F1FFFF2DE9F04707461348814601F033
:102AB0009FFD124C40F2022817E094F85000C00726
:102AC00010D0BC420ED004F14C05284601F090FD18
:102AD000E668284601F0B2FD38EA060002D1204639
:102AE000FDF790FD206D20F00104002CE5D1484653
:102AF00001F0A4FDBDE8F087780000202C2A00201A
:102B000070B505460C460A2000E06D1C00F03AF84E
:102B100035B128780028F8D102E0641C00F032F8C2
:102B200014B120780028F8D1BDE870400A2000F0E8
:102B300029B8000010B5012805D0002103A0FFF737
:102B4000DFFF012010BD09A1F8E7000053494752FB
:102B5000544D454D3A204F7574206F66206865616D
:102B600070206D656D6F7279000000003A20486535
:102B70006170206D656D6F727920636F7272757010
:102B80007465640008B569468DF800000320ABBE8B
:102B900008BD5FEA400C08BF91F0000F4FEA8C239C
:102BA0004FEAC12243EA51514FEA1C5018BF00F5C9
:102BB000F0404FEA300018BF41F000415FEA6C5C22
:102BC00000F02980BCF1FF3F08BF40F08040704713
:102BD000130C06BF12044FF0100C4FF0000C130E34
:102BE00004BF12020CF1080C130F04BF12010CF108
:102BF000040C930F04BF92000CF1020CD30F04BF1E
:102C000052000CF1010C11464FF00002A0F11F0020
:102C1000A0EB0C00704711F0004F08BF704731F077
:102C200000413FF4D5AF0B0C06BF09044FF0100C68
:102C30004FF0000C0B0E04BF09020CF1080C0B0F37
:102C400004BF09010CF1040C8B0F04BF89000CF1C7
:102C5000020CCB0F04BF49000CF1010CCCF1200396
:102C6000A0EB0C0022FA03F302FA0CF241EA030192
:102C700000F10100704720F07F4C80EA030023F050
:102C80007F47ACEB070303F57C5300F0004003F1F2
:102C9000FF032DE980494FEA154B09B44FEA14436D
:102CA00025EA0B4E24EA03480FF2042606EB13270D
:102CB00049083E785FEA320203FB0667C7F5000762
:102CC00007FB06F64FEA54374FEAD64606F10206EE
:102CD00007FB066CCCF1005C4FEA1C472CEA074C62
:102CE00007FB06F40CFB06F504EB15464FEA9616B7
:102CF00034BF00204FF000404FEAD13706FB07FCFD
:102D00004FEA1C4C0CFB0BF7D21B03FB0CF761EBDF
:102D100007010CFB0EF7B0EB074072EB17420CFB00
:102D200008F734BFA2EB0742B2EB074261EB174151
:102D30004FEA0C444FEA910706FB07FC4FEA1C4C94
:102D40000CFB0BF7B0EBC74072EB573203FB0CF7F1
:102D500034BFA2EBC742B2EBC74261EB57310CFB69
:102D60000EF7B0EBC70072EB57720CFB08F734BFDD
:102D7000A2EBC702B2EBC70261EB5771039F4FEAA8
:102D8000816141EA921104EBCC044FEAD1374FEA5A
:102D9000826206FB07FC42EA90124FEA80604FEA2B
:102DA0001C4C0CFB0BF7D21B03FB0CF761EB070170
:102DB0000CFB0EF7B0EB074072EB17420CFB08F769
:102DC00034BFA2EB0742B2EB074261EB17414FEA77
:102DD0008C554FEA910704EB9C2406FB07FC4FEA55
:102DE0001C4C0CFB0BF7B0EBC74072EB573203FBEC
:102DF0000CF734BFA2EBC742B2EBC74261EB5731CD
:102E00000CFB0EF7B0EBC70072EB57720CFB08F728
:102E100034BFA2EBC702B2EBC70261EB577115EBEF
:102E20004C254FEA816141EA92114FEA82624FEAF2
:102E3000D13742EA901206FB07FC44F100044FEA46
:102E400080604FEA1C4C0CFB0BF7D21B03FB0CF70A
:102E500061EB07010CFB0EF7B0EB074072EB17427A
:102E60000CFB08F734BFA2EB0742B2EB074261EB61
:102E7000174115EB1C154FEA813141EA92414FEAA7
:102E8000823242EA90424FEA80304FEA0C7644F1B7
:102E9000000448EA03434EEA0B484FF0000EB2EB41
:102EA000080C71EB030724BF624639464EEB0E0E49
:102EB0004FF0000B0018524149414BEB0B0BB2EBAA
:102EC000080C71EB03077BF1000B24BF6246394607
:102ED0004EEB0E0E4FF0000B0018524149414BEBE8
:102EE0000B0BB2EB080C71EB03077BF1000B24BF5B
:102EF000624639464EEB0E0E51EA020718BF46F005
:102F0000010616EB0E7655F1000254F1000103D5CF
:102F1000BDE88901BDE80088BDE88901BDE8004839
:102F2000B619524141EB0101A3F1010370478080C2
:102F30007F7E7D7C7B7A7978777676757473727113
:102F400071706F6E6E6D6C6C6B6A6A6968686766CB
:102F500066656464636362616160605F5F5E5E5D5D
:102F60005D5C5C5B5B5A5A595958585757565655D1
:102F700055555454535352525251515050504F4F33
:102F80004F4E4E4D4D4D4C4C4C4B4B4B4A4A4A4983
:102F900049494848484747474746464645454544C6
:102FA000444444434343434242424241414100007E
:102FB00046EA0646A3F570534FEA164646EA4256DD
:102FC0004FEAD22242EA415210B54FEAD121A3F191
:102FD000010300F017F820F0004000F1010C00F0B0
:102FE000004701EB00501146BCF5006F40EA0700B6
:102FF00000D210BD02484FF0000140EA070010BDAA
:103000000000F07F002B26D4770021D01CB54FEABA
:10301000370703B44FF010004FF010014FF00000DD
:103020000FBCBDE810400BF1010BBBF1010F08BF55
:103030005FEA170722BF12F1010211F101014FF0FF
:10304000004143F1000300F0004043EA00007047F4
:10305000F9D35708DAE746EA064613F1400F4FEA7C
:1030600016461FDD13F1200FDFBF16430A4600216D
:1030700020335B42C8D0C3F1200746EA064602FA75
:1030800007F74FEA164646EA0706C3F1200722FA79
:1030900003F201FA07F721FA03F14FF0000342EAC5
:1030A0000702B1E746EA020646EA06464FEA164636
:1030B00046EA0106BCBF46EA0646360C4FF000035E
:1030C0004FF000024FF000019EE72DE9C048934603
:1030D00030B491E8380007C831EA400C48BF34EA00
:1030E000430C03D5FFF7C7FDFFF78CFFF0BCBDE82D
:1030F00000882DE9C048934630B491E8380007C8ED
:1031000031EA400C48BF34EA430C03D5FFF7B3FD66
:10311000FFF74EFFF0BCBDE800882DE9C04893469C
:1031200030B491E8380007C810F0804F08BF13F0A2
:10313000804F03D100F019F8FFF764FFF0BCBDE841
:1031400000882DE9C048934630B491E8380007C89C
:1031500010F0804F08BF13F0804F03D100F005F846
:10316000FFF726FFF0BCBDE8008820F07F4780EA2B
:10317000030023F07F4C07EB0C03A3F57C5300F016
:103180000040A3F1FE0392F0000F00F0B38095F031
:10319000000F00F077802DE901494FEA11404FEA16
:1031A000144621EA004800FB06FC24EA064708FB17
:1031B00006F607FB08F800FB07F718EB06484CEB90
:1031C000164C4FEA124B18EB07484FEA15464CEBEA
:1031D000174022EA0B4E0BFB06FC25EA06470EFBC6
:1031E00006F607FB0EFE0BFB07F71EEB064E4CEB3D
:1031F000164C4FF000061EEB074E4CEB174B18EB2E
:103200000B0840F1000018EB0E0B58EB000840F1E2
:1032100000008F1A4FF000013CBFC943661B14BF6A
:10322000B5EB040C00213CBFC943F61B4FEA174421
:103230004EEA8E0E27EA04454FEA1C4704FB07625C
:103240002CEA074C05FB07F70CFB05F604FB0CFC0E
:1032500016EB074642EB174216EB0C4642EB1C42BC
:103260001BEB060658EB0202414146EA9E0601D5D9
:10327000BDE80189B619524141EB0101A3F10103F7
:10328000BDE801894FEA14454FEA114724EA054693
:1032900021EA074C05FB07F406FB07F70CFB06F1D8
:1032A00005FB0CFC11EB074144EB17444FEA1247B6
:1032B00011EB0C4144EB1C4422EA074C05FB07F2DE
:1032C00006FB07F70CFB06F605FB0CFC16EB0746A6
:1032D00042EB174216EB0C4642EB1C456A1854F1C0
:1032E000000148BF7047B619524141EB0101A3F1FB
:1032F0000103704795F0000F37D04FEA11424FEAB3
:10330000144721EA024624EA074C02FB07F106FBB8
:1033100007F70CFB06F402FB0CFC14EB074441EB33
:1033200017414FEA154714EB0C4441EB1C4125EAC9
:10333000074C02FB07F506FB07F70CFB06F602FB42
:103340000CFC16EB074645EB174516EB0C4645EB18
:103350001C42121951F1000148BF7047B619524181
:1033600041EB0101A3F1010370474FEA14454FEA15
:10337000114724EA054621EA074C05FB07F106FB45
:1033800007F70CFB06F24FF0000605FB0CFC12EBF6
:10339000074241EB174112EB0C4251EB1C4148BF75
:1033A0007047921841EB0101A3F10103704700003F
:1033B0000000000070B504460D46406803F080FB35
:1033C000104EB0421CD1606800F5FE7003F078FB2F
:1033D000B04215D16068001D03F072FB2860606880
:1033E000083003F06DFB686060680C3003F068FB28
:1033F000A8606068103003F063FBE860012070BDD6
:10340000002070BD4A53464BF0B50446C168032006
:10341000B1FBF0F789B000265FE000BFA16806EBC2
:1034200046000D18D4E9000101228368681C984702
:10343000002855D069462046FFF7BCFFF0B3D4E919
:10344000000101228368A81C9847002848D0206901
:103450000099884202D3401C08D139B9E81CC4E95C
:103460000410781E864201D1A0686061204604A93C
:10347000FFF7A0FF18B10499009888422CD0D4E936
:1034800000010122836828469847002828D0226836
:1034900061680298D36801229847002820D00398D9
:1034A00030B1D4E90021D36801229847002817D011
:1034B0004FF400716068FDF747FA00E00CE0D4E9D2
:1034C00000010122C368681C9847002808D0607E6C
:1034D00040F00400607602E0761CBE429ED30120DC
:1034E00009B0F0BD204A811A904226D009DC1F495C
:1034F000014469B1B1F5004F11D0B1F5803F31D130
:1035000014E0B1F5004F1FD0B1F5203F2AD122E0E1
:103510001749C96941F40011154AD16122E01449E3
:10352000C96941F48001124AD1611BE01049C9699F
:1035300041F400010E4AD16114E00D49C96941F01E
:1035400080710B4AD1610DE00949C96941F00071F0
:10355000074AD16106E00649C96941F00051044AB1
:10356000D16100BF00BF704700000C400080F5BF74
:103570000000024010201249C8610120886000BF8D
:10358000104880680028FBD002200D49C8604FF425
:103590001060486001200B49883108600949C1F872
:1035A0008C00002007498C31086000BF0548406846
:1035B0000028FBD04FF483700149C86070470000B9
:1035C0000000024000004042014903F099BF0000A2
:1035D0002C13002030B5046801238B409C43046009
:1035E000C36801248C402343C36083684D000324D7
:1035F000AC40A343836082B1446801238B401C43E9
:10360000446083694D000324AC40234383614369D4
:1036100001248C40A343436110E0446801238B40A4
:103620009C434460436901F110040125A540AB436C
:103630004361C36901248C40A343C36101238B40D0
:1036400001F110040125A5402B4304699C4304614A
:1036500030BD10B52AB1036801248C4023430360B8
:1036600004E0036801248C40A343036010BD000004
:1036700070B504460D46034A2946204600F0E8F896
:1036800070BD0000189B000810B5024800F04EFB0A
:1036900010BD0000189B000808B5024800F057FB59
:1036A000009008BD189B000810B50446024920464A
:1036B00000F0DDFB10BD0000189B000810B50446AB
:1036C0000249204600F026FC10BD0000189B0008AF
:1036D00070B504460D46034A2946204600F0A6FC74
:1036E00070BD0000189B000870B504460D46034AE3
:1036F0002946204600F0D5FC70BD0000189B00084C
:1037000070B504460D461646034B32462946204600
:1037100000F002FD70BD0000189B000810B50248C3
:1037200000F035FD10BD0000189B000810B50248E0
:1037300000F011FB10BD0000189B00080148006854
:1037400070470000609B000808B5024800680090C0
:1037500008BD00005C9B000870B5C46801258D4061
:103760002C43C46084684E000325B540AC4384609C
:1037700084684D0002FA05F52C438460ABB10468FF
:1037800001258D40AC430460456801248C402543ED
:10379000456084694E000325B5402C43846145692A
:1037A00001248C40A543456110E0456801248C400C
:1037B000A5434560C56901248C40A543C5614469A2
:1037C00001F110050126AE40B443446101248C4050
:1037D00001F110050126AE4034430569A54305619A
:1037E00070BD10B5036801228A4093430360C2682C
:1037F00001238B409A43C26082684C000323A3409C
:103800009A438260426801238B409A4342608269F6
:103810004C000323A3409A438261C26901238B4079
:103820009A43C26101228A4001F1100301249C40A5
:10383000224303699343036101228A4001F110038B
:1038400001249C40224343699343436110BD00001F
:103850002DE9F84F0546884614464FF0020B00202C
:103860000090E06B007A00F0020018B94FF0FF30D2
:10387000BDE8F88FE8B214281AD12068406820F01B
:103880000200216848601821206CFDF77FF80020B5
:1038900021684861E06B406820F00100E16B4860FE
:1038A0002068406840F00200216848600020DFE79F
:1038B000E06B007900F0010010B16FF00100D7E774
:1038C000E8B204287BD007DC88B1012827D0022881
:1038D0004AD0032808D171E0102873D011286AD08B
:1038E000122869D0132868D06FF00300C0E7206861
:1038F000406820F0020021684860E06BC06820F05A
:10390000FF00E16BC860E06BC068E16BC860E06B12
:10391000007A20F00400E16B08720020A8E720681C
:10392000406820F00200216848602068406820F06C
:10393000040021684860E06BC06820F0FF00E16B84
:10394000C860E06BC06840F00100E16BC860E06BEC
:10395000007A40F00400E16B08722068406840F093
:103960000200216848602EE02068406820F00200D4
:10397000216848602068406840F004002168486081
:10398000E06BC06820F0FF00E16BC860E06BC068CE
:1039900040F00200E16BC860E06B007A40F0040088
:1039A000E16B08722068406840F0020021684860BE
:1039B00091E004E006E055E065E069E000BF6FF0EB
:1039C000060055E700BFD849606BB1FBF0F902264D
:1039D0002CE0002727E008FB06F0791C4843484507
:1039E00002D1B346009724E00098401C0BFB00F086
:1039F000B9FBF0F100FB119081020098401C0BFB19
:103A000000F0B1FBF0F1781C7043B9FBF0F200FB61
:103A100012908202781C7043B2FBF0F0814201D90F
:103A2000B34600977F1CFF2FD5D9B61CFF2ED0D3ED
:103A300000BF0BF00F00216808612068006820F4C7
:103A40007F4021680860206800684FF47F4101EAE8
:103A50000721084321680860E8B2102801D100203E
:103A600006E738E0B049606BB1FBF0F2206800690E
:103A700000F00F002168096801F47F41491C4843A8
:103A8000B2FBF0F0F4E6216CA1F814800020EFE620
:103A9000E06B007B012806D1E06BC06800F4C01029
:103AA000B0F5002F02D04FF0FF30E1E6207910B9D9
:103AB0004FF0FF30DCE6B8F1000F05D1217B012289
:103AC000A068FFF7C6FD04E0217B0022A068FFF795
:103AD000C0FD0020CCE600BFE06B007B01285FD179
:103AE00005F4C01048B1B0F5002F21D0B0F5801F0B
:103AF0003CD0B0F5C01F52D111E02079012803D18C
:103B0000217BA068FFF76DFEE06BC06820F4C01059
:103B1000E16BC860E06BC068E16BC8603FE0E06BE0
:103B2000C06820F4C010E16BC8606FF00A009FE627
:103B3000E06BC06820F4C010E16BC86020790128F8
:103B400010D1217B0122A068FFF744FD217B0122D7
:103B5000A068FFF77EFDE06BC06840F40020E16BD9
:103B6000C86002E06FF00A0082E618E0E06BC0680F
:103B700020F4C010E16BC860207901280CD1627B71
:103B8000217B0123A068FFF7E7FDE06BC06840F4EC
:103B90008010E16BC86002E06FF00A0068E600BFC9
:103BA000E06B007B022828D105F4001018B1B0F5B5
:103BB000001F21D117E0E06BC06820F40010E16B1A
:103BC000C860207901280AD1627B217B0023A0688C
:103BD000FFF7C2FDE06BC068E16BC86002E06FF008
:103BE0000A0045E608E0E06BC06820F40010E16BD5
:103BF000C8606FF00A003BE600BF05F4E060B0F576
:103C0000407F42D007DC68B1B0F5807F17D0B0F5B7
:103C1000007F61D126E0B0F5806F43D0B0F5A06F92
:103C20005AD14CE02068006820F03000216808601C
:103C30002068006820F0C000216808604FE020681C
:103C4000006820F03000216808602068006820F0DB
:103C50004000216808602068006840F0800021680A
:103C600008603CE02068006820F0300021680860AF
:103C70002068006840F04000216808602068006803
:103C800020F080002168086029E02068006820F0AA
:103C90003000216808602068006840F0C00021689A
:103CA00008601CE02068006820F03000216808608F
:103CB0002068006840F01000216808600FE020686C
:103CC000006820F03000216808602068006840F03B
:103CD00020002168086002E06FF00700C8E500BF1F
:103CE000C5F3053ABAF1040F10D3BAF1100F0DD88D
:103CF0002068006820F00F002168086020680068D4
:103D0000AAF1010108432168086002E06FF0080091
:103D1000AEE505F48020B0F5802F02D16FF00900E8
:103D2000A6E50020A4E5000000B4C4040146C86B69
:103D3000007A00F0040008B900207047086C406861
:103D400010B9086C0069F8E7086CC068F5E701462F
:103D5000C86B4068704770B504462068C66906F0B5
:103D60000300216808622068C06800F0020030B3D8
:103D7000206C0068216C0969884220D9206C806819
:103D8000A0B1206C8168481C226C90600D7820687E
:103D9000006800F00F0007280AD9206C8168481CD1
:103DA000226C9060087845EA002501E0206C858A45
:103DB00020688560206C0069401C216C08613DE032
:103DC0002068806885B2206C0068216CC9688842D0
:103DD00034D9206C406890B1206C4268501C236C30
:103DE000586015702068006800F00F00072806D999
:103DF0002912206C4268501C236C58601170206C92
:103E0000C068401C216CC860206CC068216C0968C7
:103E1000884213D12068406920F00F002168486172
:103E2000E06B406820F00100E16B4860E06B0068E7
:103E300018B1E06B01680120884705E02068C06880
:103E400000F004000028BBD100BF06F0010068B1FB
:103E5000E06B406820F00200801CE16B4860E06B82
:103E6000006818B1E06B01680220884770BD70B52A
:103E700005460C46E06B007A00F0010008B1002016
:103E800070BDE06B007A00F0020010B14FF0FF301F
:103E9000F6E7E06B0560E06B406820F00100E16B45
:103EA0004860E06B406820F00200E16B4860E06B26
:103EB000406820F00400E16B48601821206CFCF79A
:103EC00065FDA068FFF70EFB2069FFF70BFB206A7A
:103ED000FFF708FBA069FFF705FB217BA068FFF750
:103EE00080FC627D217D01232069FFF735FC94F879
:103EF000252094F824100123206AFFF72DFC627F0F
:103F0000217F0023A069FFF727FC0120E16B0872E5
:103F10000020B5E730B50246C86B007A00F001001A
:103F200010B94FF0FF3030BDC86B007900F00100D0
:103F300010B16FF00100F6E712B1022A69D128E052
:103F4000C86B007A00F0020010B391F9380000F05D
:103F50001F040123A340324C450944F8253000BF1B
:103F60000868406820F002000B685860C86A006862
:103F70008B6A9843CB6A18602A48C0690B6B9843D8
:103F8000284BD861C86B007A20F00200CB6B187206
:103F900042E0C86B007A00F00200C8BB2148C0694B
:103FA0000B6B18431F4BD861C86A00688B6A1843B3
:103FB000CB6A186000200B6818600B6858600B68AB
:103FC00098600B6818610B6858620B685861032091
:103FD0000B68186291F9380000F01F040123A34018
:103FE000114C450944F8253000BF91F9380000F024
:103FF0001F040123A3404409A40004F1E024C4F8F1
:10400000003100BFC86B007A40F00200CB6B187221
:1040100002E06FF0030086E700BF002083E70000A6
:1040200080E100E00000024080E200E010B50346BD
:1040300003B111B96FF0040010BDD06B007A00F02D
:10404000040010B94FF0FF30F6E7D06B007900F0B4
:10405000010010B16FF00100EEE7D06B406820F076
:104060000100401CD46B6060D06B406820F00200FF
:10407000D46B6060D06B406820F00400D46B60604B
:10408000106C43600020146CA060106C0160002074
:10409000146CE060146C20610F20146860610020D3
:1040A000CAE710B5034603B111B96FF0040010BDA3
:1040B000D06B007A00F0040010B94FF0FF30F6E743
:1040C000D06B007900F0010010B16FF00100EEE755
:1040D000D06B406820F00100401CD46B6060D06B56
:1040E000406820F00200D46B6060D06B406820F024
:1040F0000400D46B60600020146C6060106C8360FE
:10410000106C01600020146CE060146C20610F20C2
:10411000146860610020CAE730B504460CB101B1F3
:1041200012B96FF0040030BDD86B007A00F00400C3
:1041300010B94FF0FF30F6E7D86B007900F00100BE
:1041400010B16FF00100EEE7D86B406820F001007D
:10415000401CDD6B6860D86B406820F00200DD6BAE
:104160006860D86B406820F00400DD6B6860186CF4
:104170004160186C8460186C026000201D6CE8605F
:104180001D6C28610F201D6868610020CBE710B509
:104190000446E06B007A00F0010008B9002010BD71
:1041A000E06B007A00F0020010B14FF0FF30F6E74C
:1041B0002079012803D1217BA068FFF712FB217D24
:1041C0002069FFF70EFB94F82410206AFFF709FB23
:1041D000217FA069FFF705FB0020E16B087200BF9B
:1041E000DDE700002DE9F0410F4604461646406821
:1041F0004FF40071FCF7A8FB154D6068294604F0E8
:1042000053FF60682169001D04F04EFF207E0228E4
:1042100004D0042804D00020BDE8F0810D4900E05E
:104220000D496068083004F03FFF606839460C3083
:1042300004F03AFF60683146103004F035FF6068E2
:10424000294600F5FE7004F02FFF0120E4E700008E
:104250004A53464B544F4F46444E4554490050EA4A
:10426000C12018BF04204A0D18BF40F0010040F2E1
:10427000FF72B2EB515F08BF40F00200012808BF97
:104280000520704740F2013200204FF0E04105F078
:10429000CABB0000024A0020110705F0C4BB0000A1
:1042A00001FDFFFF10B50446D1E9000100F002F85E
:1042B000206010BDF8B504460D466A4602F010F9BC
:1042C00000987E30009000281FDC00221346204614
:1042D000294605F0ABF918D0002140F608004FF050
:1042E000000006462046294605F05AF9044640F6E5
:1042F000080006EA00014FF0000034F0004004BF5F
:104300000220FDF738FD2046F8BD0098FF280DDBA0
:104310000220FDF730FD002213462046294605F015
:1043200013FB8CBF04484FF0FF40F8BD20462946E0
:10433000BDE8F84005F034B9000080FF10B5044630
:104340000A46D4E90003194602F051FDC4E9000110
:1043500010BD000070B5114D044615B1284600F09F
:1043600047F9E0030CD524F48034204600F04EFEDB
:104370000B4A04EB840102EBC1010020888005E0B8
:10438000A00303D524F4003000F088FD002415B10B
:10439000024800F053F9204670BD0000780000206C
:1043A0001012002070B50E4D044615B1284600F0DD
:1043B0001FF9E00304D524F4803000F0CBFE05E0C3
:1043C000A00305D524F4003000F06AFD044601E0A6
:1043D0004FF0FF3415B1024800F030F9204670BDAF
:1043E000780000202DE9F3411E4E0F4616B13046ED
:1043F00000F0FEF86946009802F00CF94FF0FF3526
:10440000002824DB184901EBC000C1790068490786
:104410000DD500F0C7FE0446401C18D03A46204691
:10442000009901F081F890B944F4803410E000F074
:104430003CFD0446401C0AD03A462046009900F054
:104440003BFD60B10949002001EB441188802C46F6
:1044500016B1044800F0F2F82046BDE8FC8144F4AF
:104460000034F5E778000020CC9B000848000020CD
:104470002DE9F041154D16468846074615B12846E8
:1044800000F0B6F846F00044B8F1000F17D0F8037A
:1044900006D527F480303246414601F0A1F907E005
:1044A000B8030CD527F400303246414600F006FD33
:1044B000002801DA044602E001D0A6EB000415B1A1
:1044C000024800F0BBF82046BDE8F08178000020EB
:1044D00070B5104D0E46044615B1284600F088F818
:1044E000E00305D524F48030314601F04BFA06E0B4
:1044F000A00305D524F40030314600F0E1FC38B1CA
:104500004FF0FF3415B1034800F098F8204670BD15
:104510000024F7E7780000202DE9F041134E904683
:104520000F46044616B1304600F062F84FF0FF35F2
:104530008FB1E00306D524F480304246394601F0BD
:1045400087FB07E0A00306D524F400304246394635
:1045500000F0BCFC08B12C4600E0002416B1034872
:1045600000F06CF82046BDE8F081000078000020E3
:10457000074810B5007848B104F082FD30B1054914
:1045800000EB400001EB4010603810BD024810BD48
:104590004D000020C80E0020CC29002010B5002AB4
:1045A00006DA22F00042D21D22F00703102203E0B7
:1045B000D21C22F003030C2213B19C188C4201D9A7
:1045C000012010BD024401448360C0E90021C91AE2
:1045D000D018884202D810600246F9E70020106027
:1045E00010BD30380A2801D20120704700207047E2
:1045F00005490978002905D000684FF6FF71DFF8FA
:104600000CC000DF704700004D0000203589000815
:10461000084A10B511690346082900D3FEE7064889
:1046200000EB0110491C1860116104F00FF9012022
:1046300010BD000024000020681100200449097802
:10464000002903D00068DFF80CC000DF70470000CD
:104650004D0000205D88000810B504466FF400404E
:10466000204420B1012804D0022806D103E0002014
:1046700010BD0020FCE70020FAE72046FFF76AFEA5
:10468000F6E710B504466FF40040204420B101283D
:1046900004D0022806D103E0002010BD0020FCE772
:1046A0000020FAE72046FFF77DFEF6E701466FF4AB
:1046B0000040084420B1012804D0022806D103E0BC
:1046C000012070470120FCE70120FAE70020F8E70D
:1046D00070B504460D4614B94FF0FF3070BD207818
:1046E0003A281AD10FA12046FCF778F910B948F200
:1046F0000100F3E70DA12046FCF770F910B948F26C
:104700000200EBE70BA12046FCF768F910B948F26C
:104710000300E3E74FF0FF30E0E729462046FFF7CC
:1047200061FEDBE73A535444494E00003A53544487
:104730004F5554003A535444455252002DE9F0412C
:1047400004460E4615461F466FF40040204420B133
:10475000012806D002280AD106E045F00040BDE855
:10476000F0814FF0FF30FAE74FF0FF30F7E72A46CD
:1047700031462046FFF77CFEF1E770B504460D4652
:104780006FF40040204420B1012805D0022809D14F
:1047900005E04FF0FF3070BD4FF0FF30FBE74FF00A
:1047A000FF30F8E729462046FFF792FEF3E72DE9B0
:1047B000F04104460D4616461F466FF40040204463
:1047C00020B1012806D0022808D105E04FF0FF30C3
:1047D000BDE8F0810020FBE70020F9E732462946DA
:1047E0002046FFF799FEF3E7F8B506464FF0FF3095
:1047F00000900C460D6F09E022466946284600F0FD
:1048000026F8002809D0009840B16D1C206B801C50
:10481000A842F1D8009808B10020F8BD207F02F02E
:10482000FBF801462246284600F05DF80028F4D047
:10483000681C2067207F032806D1E06E401EE066DA
:10484000606840F48070606001203560F8BD2DE93B
:10485000F041884605460146144602F1180002F070
:10486000FFF806460146204600F001F9002807D06F
:10487000207F012806D0022824D0032829D0002038
:10488000BDE8F08105EB4500C0F34800B0F5FF7FBF
:1048900004D8216D084402F003F90CE0206D711C6E
:1048A00090F8FF71204600F0E2F80028E8D0206D73
:1048B000007847EA0020E90701D000090FE0C0F3C3
:1048C0000B000CE0216D280601EBD05002F0E8F857
:1048D00005E0216D680601EBD05002F0E6F8C8F85B
:1048E00000000120CCE72DE9F0470D4606460146C1
:1048F000144602F1180002F0B3F881460146204642
:1049000000F0B5F800280AD0207F29464FF00108B2
:10491000012806D0022842D0032846D00020BDE856
:10492000F08706EB4600C0F34807C5F30B05B7F563
:10493000FF7F11D8206D384402F0B2F8F10702D0A1
:1049400065F31F1002E000F4704028430146206D1B
:10495000384404F09DFB2EE0F007206D06D090F85F
:10496000FF1165F31F1180F8FF1101E080F8FF517E
:1049700084F8548009F10101204600F078F80028FD
:10498000CDD0F00703D0216D2809087013E0206D09
:10499000017801F0F00141EA152101700BE0226D70
:1049A0003006A9B202EBD050D3E7226D700602EBBD
:1049B000D05004F071FB84F854800120AFE710B5AB
:1049C0000446816903F06BFC002809D0206E00F5D5
:1049D000FF7002F065F8A0F52A41553901D000209A
:1049E00010BD206E417BA1770B3002F059F8E085B5
:1049F000206E0E3002F054F86084206E017C6177E6
:104A0000113002F04DF8A085206E133002F048F806
:104A10006062206E163002F043F82084616AE9B9C2
:104A2000B8B9206E2434283002F03AF8E083E06B05
:104A30002C3002F03AF82062E06B303002F030F8AF
:104A4000A084E06B323002F02BF8E08454F82409A3
:104A500020B9206E203002F028F86062208C20B946
:104A6000206E243002F021F82084012010BD70B5A2
:104A70000446C06C0D46A8423ED094F8541001295B
:104A800028D166697EB1217949060CD5617F02295A
:104A900006D0002201463046236D01F0D4FE14E01A
:104AA000218C4218F6E72268216DD36801229847CD
:104AB000002820D0607F022809D12268218CE06C78
:104AC000D3680844216D01229847002813D00020A4
:104AD00084F8540085B194F85500218C226848432D
:104AE00028449368216D01229847012806D04FF091
:104AF000FF30E064002070BD012070BDE564FBE77D
:104B00000021A0F12002012A16D9D21E062A13D9AB
:104B10002D2823D02E2821D00D3A092A0CD940283F
:104B20001CD0113A192A07D91D3A1D2A04D97D280B
:104B300014D07E2812D000E001212B280BD02C2885
:104B400009D03B2807D03D2805D05B2803D05D283D
:104B500001D07F2800D90221084670470121FBE7D8
:104B600070B50D46014605F1180000F01AF806462A
:104B70004FF40071286EFBF7E7FE002406E03119C0
:104B8000284604F071FC00280AD0641CA87FA042CB
:104B9000F5D80021284604F067FC002800D0012049
:104BA00070BDC36902681A44037941B1032B01D077
:104BB000038C1A448079891E01FB00207047032B67
:104BC000F8D010467047F8B500250E460746022477
:104BD0000AE0324669462046FFF739FE002809D030
:104BE000009800B96D1C641C306B801CA042F0D88A
:104BF00001203D60F8BD00002DE9F04186B00D4672
:104C000004460020CDE901501646694601A800F08F
:104C1000C4F918B1012006B0BDE8F08103A801F085
:104C200059FD03A801F0B0F9804603A801F096F9F8
:104C300007460B2222A10098FBF754FE0098102192
:104C4000C17241460E3004F023FA00983946103004
:104C500004F01EFA00983946123004F019FA009850
:104C60004146163004F014FA00983946183004F022
:104C70000FFA0099202201F12000FBF733FE009883
:104C8000290C143004F004FA0098A9B21A3004F088
:104C9000FFF900982E21203000904170716CA142E4
:104CA00000D10024210C143004F0F2F90098A1B2D4
:104CB0001A3004F0EDF9314601A800F016F9AAE720
:104CC0002E20202020202020202020002DE9F74F1A
:104CD0000546007B0D210C30B0FBF1F0334E82B065
:104CE000C4B201274FF0000A05F1100B694658467F
:104CF000049A00F052F9A0BB00990C700FB140204B
:104D000000E000202043087003984873A1F81AA01F
:104D10000F20C872641E81F80CA0E4B204EB84007A
:104D20002B7B00EBC40000271B1A52460D2B00D929
:104D30000D23D5F808C092460CEB000900204A1C50
:104D40000BE000BF16F8008019F800C001F808C099
:104D500016F80080401C08F802A09842F2D3002305
:104D60000AE01BE016F800C001F80C3016F800C08D
:104D70000CF80230FF23401C0D28F3D3287DC043DC
:104D8000000705D15846049900F0AFF8002806D175
:104D900001215846049A00F0D1F818B1012005B05D
:104DA000BDE8F08F002CA1D10020F8E7809C00081E
:104DB0002DE9FE4388460A9E154604461F463246A4
:104DC0006946404600F0E9F8A0BB00990020225C4B
:104DD0000A54401C0B28FAD3CF7200240C734C7376
:104DE00001A801F077FC01A801F0CEF80146009877
:104DF0000E3004F04DF901A801F0B0F8014600981A
:104E0000103004F045F90098018A4182C289C282BB
:104E10000183290C143004F03BF90098A9B21A3030
:104E200004F036F900983146C461404600F05DF860
:104E3000002800D00120BDE8FE830000084800687B
:104E4000C0010BD507480068C00707D00548803867
:104E50000068002802DA0449012008707047000049
:104E6000FCED00E0800E00E0740000204FF0604296
:104E7000D36F002BFCD0036BD367D36F002BFCD018
:104E8000C07840EA0120A2F87C0070474FF06041F2
:104E9000CA6F002AFCD081F87C007047012070475F
:104EA0004FF0FF307047002070474FF0FF307047E1
:104EB0000120704701207047012070470020704793
:104EC0000120704701207047012070474FF0FF30EC
:104ED0007047002070470120704701207047FF2075
:104EE0007047012070470120704770B50C46D0E92B
:104EF000001511B9207F032803D1B4F84000401EEB
:104F0000054004F11800FFF74CFE00EB15110122DB
:104F1000204604F000FB08B1002070BD082070BDE1
:104F200051B102684B6A9A4206D140688A6A90423F
:104F300002D191F82C00704700207047F8B5164652
:104F40004268B6F8403004465B1E02EA030045188A
:104F500011446160307F032801D022681AB101F04A
:104F60005BFD074613E0B1F5007F0DD213E02D1A6B
:104F70002068324669460090FFF769FC20B100982E
:104F8000B84203D10120F8BD0220F8BD2060B6F878
:104F90004000A842EBD90020F8BD70B50E46D0E91C
:104FA0000015144611B9207F032803D1B4F840003E
:104FB000401E054004F11800FFF7F3FD00EB15114A
:104FC000204603F06CF938B1206E05F00F0100EBBC
:104FD00041103060002070BD012070BD017861B1CA
:104FE000E5290CD0C07A00F03F010F2909D0C0F3A9
:104FF000C100012807D0042070470020704701201D
:1050000070470320704702207047000070B586B0DB
:10501000002803DB41490978884202DB042006B0FE
:1050200070BD3F4900EB800001EBC004A088C106C1
:1050300071D481076FD010F0600F69D01C202168F7
:1050400000F0CEFD20B1A18841F01001A180E6E77B
:1050500060690190208B0290694601A82268FFF7E1
:105060009CFF002857D103A801F034FB03A800F0EF
:105070008BFF064603A800F071FF0546009812302A
:1050800001F013FDA84208D000982946123003F021
:10509000FFFF2079400603D41DE02079400637D574
:1050A000E069010C0098143003F0F2FFA08B81B28C
:1050B00000981A3003F0ECFF0098E1681C3003F010
:1050C000EBFF00983146163003F0E2FF00982946C6
:1050D000183003F0DDFF01A82168FFF706FFC8B90B
:1050E0002079400614D521684868C20506D520F409
:1050F00080704860206801F053FB58B1002120689F
:1051000004F0B2F930B100212068FFF7B0FC08B11B
:10511000002084E7FFE7012081E70000A89B00084A
:105120001012002030B50346094C0CE0585CA0F189
:105130006105192D01D820F0200080EA126054F892
:10514000200080EA0222491EF0D2104630BD000045
:10515000909C0008064900EB800001EBC00001793B
:10516000890701D0C06870474FF0FF3070470000DA
:105170001012002010B5044601460C2000F030FD4E
:1051800068B9207F032805D0214604F16C00FFF7A1
:105190001AFD20B1E16BE06EA0FB010110BD002003
:1051A000014610BD70B5064600250A4C0A4804E0C9
:1051B0002179890707D028346D1C01788D42F7D3F7
:1051C0004FF0FF3070BD28212046FBF7DFFB28465B
:1051D000266070BD10120020A89B000810B5044680
:1051E000002060602068A8B1A068206500F500710B
:1051F00000F58060C4E91810A06FFFF76EFE20680C
:1052000001680020884738B1606840F001006060A4
:10521000002010BD012010BD082010BD38B5044687
:10522000406900B3606820F040006060607F022841
:105230004FF0000018D300906946204601F05CFD55
:10524000002811D00099204679B101F0BBFD00285B
:105250000AD02168606901F0D5FA002804D060689E
:1052600040F040006060012038BD00F001F8EEE73A
:105270007CB504464069D8B3606801AA20F04000BC
:1052800060604FF0FF30E064002084F8540000902C
:1052900001906946204601F099FC58B3DDE90012FF
:1052A000204601F072FD002823D0DDE90001014411
:1052B00004F11800491EFFF774FCA17F401E451839
:1052C0000F4E206E314603F0E7FE206E314600F5AA
:1052D000FE7003F0E1FE00222946204604F01BF98F
:1052E000002806D02046009901F06CFD002800D06F
:1052F00001207CBDDDE900010843FAD000207CBD1F
:105300004A54414630B587B00D46040004D01DB163
:1053100002F06AFF48BB02E0042007B030BD294616
:105320001C2000F05DFC0028F7D12A466946204683
:1053300002F0ECFE2946684602F002FF04460D2802
:1053400001D074B113E02A460121684602F0CEFD77
:1053500004000CD100212846FFF789FB38B9012051
:10536000DBE70198C07AC00601D40620D5E72046C5
:10537000D3E72DE9F84304464068C1070ED040F05A
:1053800030006060206869464269002090470098BC
:10539000010606D5606820F0200009E00720BDE87E
:1053A000F883C1073BD0800703D5606820F0100068
:1053B0006060206801680120884778B3606840F029
:1053C00006006060A06FFFF786FD342104F118002D
:1053D000FBF7DCFA4FF0FF360025E66484F8545002
:1053E00084F85550A66584F8685084F869500227FF
:1053F00029462046276702F052FFB0B3206E00F521
:10540000FF7001F04DFBA0F52A4155395ED1206EA9
:105410000178E9291AD0EB2905D007E001E00A203C
:10542000BDE70920BBE7817890290FD000F5E37034
:1054300001F03BFBA0614FF001092046FFF7BFFAE6
:1054400098B1E08DB0F5007F40D101E0A561F2E7B1
:10545000A17F102910D009DC01290DD002290BD021
:10546000042909D0082931D106E02FE0202903D0F2
:10547000402901D0802929D1638C3BB3657F012D60
:1054800001D0022D22D1B4F820C0626A94451DD803
:10549000B4F82C8005FB0C3306EB481606F50076B5
:1054A00096FBF0F01D18521BA262B2FBF1F2C4E9A8
:1054B0000C2320874802E0634009A4F8400040F62E
:1054C000F570824204D284F81C9017E00B2066E746
:1054D0004FF6F570824201D227770FE00320207744
:1054E000204601F01DF948B9214604F16C00FFF790
:1054F0006AFB80B1204601F053F960B1204601F00B
:10550000C8FA6067606840F0080060602046FFF7F6
:1055100085FE10B105E0082041E7606840F080009A
:10552000606000203BE700002DE9F0478AB090461C
:1055300004000E4605D426B1084602F055FE68BBAD
:1055400003E004200AB0BDE8F0875E4904EB840064
:1055500001EBC004002018F00C0104D0042905D090
:1055600008297AD101E0012502E0042040F002057B
:1055700069463046226802F0C9FD6846216802F09B
:10558000DFFD06004FF000090DF1100A02D00D2ECC
:1055900064D094E00198C07AC00601D50620D1E716
:1055A0009DF818105046491E2268FFF7C7FC0028D6
:1055B00063D102215046226800F032FC28B9022D46
:1055C00055D10198C07AC00701D00320BAE70198ED
:1055D0001A3001F065FA07460198143001F060FABC
:1055E00007EB0040E06107A801F074F807A800F09D
:1055F000CBFC014601980E3003F04AFD07A800F0ED
:10560000ADFC01460198103003F042FD019801996C
:10561000008A488201980199C089C882019801993D
:10562000008A088301995046A1F814900199A1F8C5
:105630001A900199C1F81C902168FFF756FC60B9D7
:105640002168E06903F0E2FE38B12068017F032998
:105650000DD101F0A5F800B109E00EE0E8072ED168
:1056600000216846226802F041FC060027D150461E
:1056700001A92268FFF791FC08B1012062E70198B7
:105680001C3001F012FAA060C4E9030904986061BB
:105690000598208301981A3001F002FA0746019814
:1056A000143001F0FDF907EB0040E061206284F85E
:1056B00024905FEA887001D545F00B05A58030463F
:1056C00040E70000101200202DE9F04F89B092460B
:1056D0000F46060068D0BAF1000F65D0002F63D0E6
:1056E0004FF0000B86F800B07C1E504601F0D1F957
:1056F0008046DAF8745053E00120CDE90450524658
:1057000004A801A9FFF749FC18B1082009B0BDE8B9
:10571000F08F0198143001F0C3F94FEA0049019865
:105720001A3001F0BDF950EA090007902CD0022090
:105730000590079804900120DAF87810FFF7C9FB6C
:105740005346621E711C684600F0F4FD0028DDD14E
:105750009DF818100598084405900198143001F040
:105760009FF94FEA004901981A3001F099F940EA8F
:105770000900A842E4D1701CFBF750F8211A022955
:1057800012D35C21315507E0CDF814B0CDF81C8060
:10579000CFE7315C3155401E641E0028F9D1079DCA
:1057A0004545A9D1042C01D20420AFE7002550467D
:1057B00000F07AFF02E07155401C6D1C0178002951
:1057C000F9D13A2070555C206D1C00E0305D7055B9
:1057D000641C6D1CBC42F9D306F805B0002095E7A7
:1057E0002DE9F04716468946002820DB3D49097817
:1057F00088421CDAB9F1000F19D03B4900EB800058
:1058000001EBC004A188880714D001F00F024FF00B
:10581000FF30022A0CD0C9060AD40C20216800F0FF
:10582000DFF950B1A08840F01000A08015E00420FE
:10583000BDE8F08742F00040FAE72169E0688A1984
:10584000824201D9461A08D0A088002540F02000E5
:10585000A080208AC0F308073DE00020E8E700BFF1
:10586000226894F82400917F884209D104F1200134
:10587000206AFEF7ECFF0028DAD0002084F824002C
:105880002068216A1830FFF78CF994F824208118D9
:105890002068837F9A1A02F0C5FC0028C8D0A6EBC6
:1058A000050808EB0700B0F5007F01D9C7F50078BF
:1058B00020684246006EC11909EB0500FAF7CDFFDA
:1058C00007EB0800C705FF0D04D194F82400401C25
:1058D00084F824004544B542C2D32069284420619D
:1058E0002846A5E7A89B000810120020FEB5002559
:1058F0000C4606460D7001F0CCF8CDE901053246A4
:10590000694601A8FFF749FB08B10820FEBD0098D1
:10591000FFF764FB40B1022808D03246012101A8FC
:10592000FFF70CFB0028EAD10020FEBD00990B22F6
:10593000881810F8010C202801D0002006E0521E23
:10594000F6D1002004E00B5C2354401C9042FAD3B3
:105950002554E9E770B50D460446816902F09FFCC5
:10596000012801D0082070BD207F032801D0272006
:1059700000E04320216E084401F097F828600020E1
:1059800070BD00002DE9FE4F0E46002803DB78496C
:105990000978884202DB0420BDE8FE8F00EB80011D
:1059A000744800EBC104A088C1067DD480077BD079
:1059B0000C20216800F014F920B1A18841F01001F9
:1059C000A180E9E72069B04201D10020E4E7E06866
:1059D000B0426AD2E069E0B12068007F01F01CF8B3
:1059E000D4F80080814698F81C0001F015F8256A6B
:1059F0000746424602A92846FEF729FFB8B1029899
:105A0000B84216D0B9F1000F13D00546A9F101092B
:105A1000EFE704F11C002168FEF7E6FE38B12168CB
:105A2000E069FFF79DF810B1E069009005E00820FB
:105A3000B2E725620298CDE90050E0682268410A89
:105A4000C0F30807927FA6EB0008B1FBF2F302FB5C
:105A5000131500203CE0206800991830FFF7A1F8EA
:105A600000EB050BA8EB090A0AEB0700B0F5007F75
:105A700001D9C7F5007A27B15946206802F00FFC1A
:105A800090B120685146006E3844FAF75DFF5946E0
:105A9000206803F0E9FC38B107EB0A00C705FF0DE9
:105AA00014D12168887F01E045E019E06D1CA8420F
:105AB0000CD101A8FEF798FEE8B3DDE900012268E9
:105AC00001F0E0F9B8B301980025009009EB0A0055
:105AD00081464045BFD3E16801EB0800E06040E04B
