:020000040800F2
:1000000088060020750100087D0100087F010008B6
:10001000810100088301000885010008000000003C
:100020000000000000000000000000008701000840
:1000300089010008000000008B0100088D01000804
:100040008F0100088F0100088F01000800000000E8
:10005000000000008F0100088F0100088F010008D8
:100060008F010008000000008F0100088F010008C8
:100070008F010008000000008F0100088F010008B8
:100080008F0100088F010008000000008F010008A8
:100090008F010008000000000000000000000000C8
:1000A0000000000000000000000000008F010008B8
:1000B0008F0100088F0100088F0100088F010008E0
:1000C00000F002F800F047F80AA090E8000C824423
:1000D0008344AAF10107DA4501D100F03CF8AFF200
:1000E000090EBAE80F0013F0010F18BFFB1A43F016
:1000F0000103184798280000B8280000103A24BFD0
:1001000078C878C1FAD8520724BF30C830C144BF7C
:1001100004680C60704700000023002400250026BE
:10012000103A28BF78C1FBD8520728BF30C148BF5A
:100130000B607047662902F03B80002070471FB5B6
:1001400000F03EF904000020002101F0C9FEE0604B
:100150001FBD10B510BD00F0A1FC1146FFF7EFFF69
:1001600001F070FE00F0BFFC03B4FFF7F2FF03BC28
:1001700000F0C2FC0948804709480047FEE7FEE757
:10018000FEE7FEE7FEE7FEE7FEE7FEE7FEE7FEE747
:1001900004480549054A064B70470000A1160008AF
:1001A000C100000888000020880600208802002086
:1001B000880200200FB41CB5084B06AA7B44694690
:1001C0000090059800F015FB04460020694600F0F9
:1001D00023FB20461CBC5DF814FB00005906000000
:1001E00070B5044685690068C10601D5302600E077
:1001F0002026C00707D070BDD4E9012130469047C2
:10020000206A401C20626D1EF6D570BD70B5044694
:1002100085690078C00707D170BDD4E9012120208D
:100220009047206A401C20626D1EF6D570BD00000C
:100230002DE9F05F894604464FF0000ADFF874B1FB
:10024000FB44C0F820A02046E1688847002874D00D
:10025000252806D0D4E901219047206A401C20625D
:10026000F1E700265F462046E168884720280546DA
:1002700007DB312D05D2781910F8200C08B10643A0
:10028000F1E7B00701D526F00406C4F81CA000274A
:10029000C4F818A02A2D09D0284601F0CBFD38B3A8
:1002A00004EB8708303DC8F8185019E059F8041BD2
:1002B000204604EB87029161E1688847012F0546DB
:1002C00018D1E069002820DA26F020061DE0D8F8D1
:1002D000180000EB800005EB40003038C8F818002B
:1002E0002046E1688847054601F0A4FD0028EED1CC
:1002F000012F0AD02E2D08D12046E16888477F1CA7
:100300000546022F46F02006C4DBA069002803DA68
:10031000404246F00106A061F00701D026F0100629
:100320006C2D0BD0682D09D04C2D39D06A2D35D0CD
:10033000742D35D07A2D33D016E038E0E1682F46A1
:1003400020468847B842054609D16C2F26D04FF485
:100350008060E168064320468847054604E06C2F2C
:100360001AD04FF4807006430DB3A5F1410019284F
:1003700002D8203546F400664A46294620462660C3
:100380004E46FFF7D7FE80B101280BD0F61D26F0B0
:10039000070000F1080956E74020E4E78020D8E78D
:1003A0000020D6E706F104094DE7284652E7206A07
:1003B000BDE8F09F9026000070477047704700002E
:1003C000004870474800002070472DE9FF4F0C4659
:1003D0001E464FF0FF378BB0D2E90001DDF8608098
:1003E0000A908A46C1F30A5505B93D4600210846E0
:1003F0004FF00000BAF1000F00F4400005DA00EB06
:1004000080004FF4400101EA50004FEA9059B9F1E1
:10041000010F00DDB9460A9850EA4A000ED044F6B2
:100420001050A5F2FF3545432F14B8F1000F1ED030
:100430007542291E1EDDC9F100021CE0B8F1010F52
:100440004FF0000001D0302103E0F24305E02154D9
:10045000401CB042FBDB30460022002121540B99A6
:10046000C1F80880C1E900200FB0BDE8F08FBD1BC6
:100470006D1CDEE74A4600DA694206A800F05CFA25
:1004800006AB93E8070003AB83E8070050460A99E0
:1004900000F039FB8DE80700A0F500501F380090F0
:1004A0000398002D0ADD42F21F014A46084400234A
:1004B00003A90390684600F0A2FD09E0A0F50050F2
:1004C0004A461F38002303A90390684600F0ACFD9C
:1004D0008DE807000004000C03D04FF0FF30410806
:1004E00000E01046B8F1000F03D00022009215463C
:1004F0001EE0751E05D400F099F9303262556D1E6C
:10050000F9D5B3460122084302D000227F1C04E043
:100510002078302801D100227F1E002A099784D03C
:100520001DE0112D07DA00F081F9303262556D1CA3
:1005300050EA0102F5D1084302D00098C8B10EE09C
:100540000021681E05E0235C625C63542254401E57
:10055000491C8142F7DBAB46A81B401E09900020D6
:1005600004F80B000B98099AC0F80880C0E9002B2A
:100570007AE711264FF0000857E72DE9F04F88463B
:100580000446D21D22F0070191B0D1E90001CDE966
:100590000A0101F03BFC02460B98C00F01D02D2050
:1005A00007E02068810701D52B2002E0202101EA25
:1005B000C000032A099001D0072A05DB0346414603
:1005C000204600F079F90BE12078800601D5E0693A
:1005D00000E00620B8F1650F814606D0B8F1660F3D
:1005E00018D0B8F1670F70D131E00020B9F1110FC8
:1005F000009001DB112301E009F101030AAA01A91E
:100600000CA8FFF7E2FEDDE90C70002609F10105F8
:10061000834647E001204B4600904FF000470AAA6E
:1006200001A90CA8FFF7D1FEDDE90DB00C995D46DC
:10063000002610B909F101000D18B9EB050003D42B
:10064000C0F1FF3609F10105A5EB09002BE0B9F176
:10065000010F01DA4FF001090020B9F1110F0090EC
:10066000484601DD112300E003460AAA01A90CA8AF
:10067000FFF7ABFEDDE90C704D460026834620787F
:1006800000070AD4AB4500DA5D4601A8012D04DD60
:10069000411911F8011C302907D04F4502DA17F132
:1006A000040F04DA012082460FE06D1EEEE7002FF2
:1006B00002DCED1B3E4403E0781CA84200DD7D1CFB
:1006C000B81B00F1010A4FF000472078000703D45F
:1006D000AA4501DB4FF0FF3A0021B7F1004F0DF1C1
:1006E00043088DF8431024D002202B23002F01DA79
:1006F0007F422D230A21021EA0F1010000DC5FB120
:1007000097FBF1FC97FBF1F201FB1C7C17460CF107
:10071000300C08F801CDEEE7A8F101000370218844
:10072000090501D5452100E06521A0F1010800F887
:10073000011C09980FA9A1EB0807FF1D00B10120BA
:10074000411901EBEA70A1693844081A401EA06102
:100750002078C00602D42046FFF742FD099828B150
:10076000D4E901219047206A401C20622078C0060D
:1007700022D52046FFF734FD1EE0002E04DBB345F2
:1007800002DD01A8805D00E03020D4E9012190471E
:10079000206A401C2062761CAAF101005FEA000A70
:1007A0000AD1FFF70DFEC0680168405CD4E9012161
:1007B0009047206A401C2062281EA5F10105DCDC60
:1007C00007E0D4E9012118F8010B9047206A401C8A
:1007D0002062381EA7F10107F3DC2046FFF716FD63
:1007E000032011B041E6000001694A1C026108784B
:1007F000704700B58FB0CDE9013100210591054961
:100800007944CDE9031011466846FFF711FD0FB09A
:1008100000BD0000E5FFFFFF0A6802F8010B0A6057
:1008200070470000004870472800002030B5B0F144
:100830000A024FEA900E71F100034EEA817EB0EB9E
:100840000E0061EB91014FEA101E4EEA017E10EBA3
:100850000E0041EB11114FEA102E4EEA016E10EB23
:100860000E0041EB11214FEA104E4EEA014E10EB03
:100870000E0041EB1141401841F100014FEAD00058
:1008800040EA41704FEAD10110EB80054FEA810444
:1008900044EA907444EB01046D1944EB0404521BC8
:1008A000A3414FF0000348BF0A3200D530BD401CC1
:1008B00041F1000130BD00002DE9F0411F46044622
:1008C00003260168072A01F4006004DB08B116A5BD
:1008D00005E016A503E008B115A500E015A521F077
:1008E00010002060A069C01EA0610FB1401EA06171
:1008F0002046FFF775FC4FB1D4E9012138469047F7
:10090000206A401C2062C01C206206E0206AFAE7D0
:10091000D4E9012115F8010B9047761EF8D2204644
:10092000FFF774FCBDE8F0814E414E006E616E0031
:10093000494E4600696E66002DE9F047814616462D
:100940008AB0354878440DC88DE80D0032487844A7
:10095000801C03AC0DC884E80D0041F69B300844B0
:10096000372190FBF1F290FBF1F5A5F1800501FB39
:1009700012041B3C02D56442012000E00020DFF895
:1009800098A080460027FA44AAF1BE0A0EE0E007CC
:100990000AD03246684607EB470101230AEB810182
:1009A00000F042FB8DE8070064107F1C002CEED1A4
:1009B000194F7F44AE3F19E0E80715D007EB04104C
:1009C0000DF1180A90E80E008AE80E00C068F042A7
:1009D00001D1981908903246012306A903A800F016
:1009E00023FB03AB83E807006D10641C002DE3D1EB
:1009F0004FF0010332466946B8F1000F03A802D058
:100A000000F0FDFA01E000F00FFBC9E90001C9F8B0
:100A100008200AB0BDE8F0871C2000004FF0013C20
:100A200050F8042B51F8043B9A4221D1A2EB0C035D
:100A3000934313EACC1317D150F8042B51F8043B1D
:100A40009A4215D1A2EB0C03934313EACC130BD1BA
:100A500050F8042B51F8043B9A4209D1A2EB0C0345
:100A6000934313EACC13DBD04FF00000704700BF74
:100A7000D01A01BAB1FA81F101F0180122FA01F09D
:100A8000CB40C1F12001DBB2C0B2C01A2CFA01F395
:100A9000D11A914311EAC311E6D170477546FFF7A9
:100AA000C1FEAE4605006946534620F00700854664
:100AB00018B020B5FFF76CFBBDE820404FF00006F2
:100AC0004FF000074FF000084FF0000B21F0070136
:100AD000AC46ACE8C009ACE8C009ACE8C009ACE879
:100AE000C0098D46704710B50446AFF3008020461C
:100AF000BDE81040FFF738BB01491820ABBEFEE748
:100B00002600020070475FEA400C08BF91F0000F1A
:100B10004FEA8C234FEAC12243EA51514FEA1C505D
:100B200018BF00F5F0404FEA300018BF41F0004117
:100B30005FEA6C5C00F02980BCF1FF3F08BF40F029
:100B400080407047130C06BF12044FF0100C4FF09A
:100B5000000C130E04BF12020CF1080C130F04BF9B
:100B600012010CF1040C930F04BF92000CF1020C63
:100B7000D30F04BF52000CF1010C11464FF00002DC
:100B8000A0F11F00A0EB0C00704711F0004F08BF50
:100B9000704731F000413FF4D5AF0B0C06BF09049C
:100BA0004FF0100C4FF0000C0B0E04BF09020CF1BB
:100BB000080C0B0F04BF09010CF1040C8B0F04BFD0
:100BC00089000CF1020CCB0F04BF49000CF1010CA1
:100BD000CCF12003A0EB0C0022FA03F302FA0CF292
:100BE00041EA030100F10100704720F07F4C80EAE8
:100BF000030023F07F47ACEB070303F57C5300F0C1
:100C0000004003F1FF032DE980494FEA154B09B479
:100C10004FEA144325EA0B4E24EA03480FF2042658
:100C200006EB132749083E785FEA320203FB0667AA
:100C3000C7F5000707FB06F64FEA54374FEAD646DA
:100C400006F1020607FB066CCCF1005C4FEA1C477C
:100C50002CEA074C07FB06F40CFB06F504EB1546E3
:100C60004FEA961634BF00204FF000404FEAD137CC
:100C700006FB07FC4FEA1C4C0CFB0BF7D21B03FBDB
:100C80000CF761EB07010CFB0EF7B0EB074072EBC2
:100C900017420CFB08F734BFA2EB0742B2EB074246
:100CA00061EB17414FEA0C444FEA910706FB07FC42
:100CB0004FEA1C4C0CFB0BF7B0EBC74072EB573202
:100CC00003FB0CF734BFA2EBC742B2EBC74261EBA8
:100CD00057310CFB0EF7B0EBC70072EB57720CFBF1
:100CE00008F734BFA2EBC702B2EBC70261EB577142
:100CF000039F4FEA816141EA921104EBCC044FEA71
:100D0000D1374FEA826206FB07FC42EA90124FEAB3
:100D100080604FEA1C4C0CFB0BF7D21B03FB0CF75B
:100D200061EB07010CFB0EF7B0EB074072EB1742CB
:100D30000CFB08F734BFA2EB0742B2EB074261EBB2
:100D400017414FEA8C554FEA910704EB9C2406FBB0
:100D500007FC4FEA1C4C0CFB0BF7B0EBC74072EBE7
:100D6000573203FB0CF734BFA2EBC742B2EBC742CA
:100D700061EB57310CFB0EF7B0EBC70072EB57720B
:100D80000CFB08F734BFA2EBC702B2EBC70261EB62
:100D9000577115EB4C254FEA816141EA92114FEAF8
:100DA00082624FEAD13742EA901206FB07FC44F117
:100DB00000044FEA80604FEA1C4C0CFB0BF7D21B7F
:100DC00003FB0CF761EB07010CFB0EF7B0EB0740E0
:100DD00072EB17420CFB08F734BFA2EB0742B2EBF1
:100DE000074261EB174115EB1C154FEA813141EACF
:100DF00092414FEA823242EA90424FEA80304FEA13
:100E00000C7644F1000448EA03434EEA0B484FF0E5
:100E1000000EB2EB080C71EB030724BF62463946A3
:100E20004EEB0E0E4FF0000B0018524149414BEBB8
:100E30000B0BB2EB080C71EB03077BF1000B24BF2B
:100E4000624639464EEB0E0E4FF0000B0018524131
:100E500049414BEB0B0BB2EB080C71EB03077BF139
:100E6000000B24BF624639464EEB0E0E51EA0207D4
:100E700018BF46F0010616EB0E7655F1000254F14C
:100E8000000103D5BDE88901BDE80088BDE88901FE
:100E9000BDE80048B619524141EB0101A3F101033D
:100EA000704780807F7E7D7C7B7A797877767675D7
:100EB0007473727171706F6E6E6D6C6C6B6A6A694F
:100EC0006868676666656464636362616160605FE9
:100ED0005F5E5E5D5D5C5C5B5B5A5A595958585762
:100EE00057565655555554545353525252515150CA
:100EF00050504F4F4F4E4E4D4D4D4C4C4C4B4B4B1D
:100F00004A4A4A4949494848484747474746464662
:100F1000454545444444444343434342424242419D
:100F20004141002B9C4630D477002BD01CB54FEAB2
:100F3000370703B44FF010004FF01001BAF1000F63
:100F400006D0BCF1000FDCBF40F0080040F0080103
:100F50004FF000000FBCBDE810400BF1010BBBF1DE
:100F6000010F08BF5FEA170722BF12F1010211F15A
:100F700001014FF0004143F1000300F0004043EA5B
:100F800000007047F9D35708D0E746EA064613F148
:100F9000400F4FEA16461FDD13F1200FDFBF164347
:100FA0000A46002120335B42BED0C3F1200746EA47
:100FB000064602FA07F74FEA164646EA0706C3F165
:100FC000200722FA03F201FA07F721FA03F14FF0A2
:100FD000000342EA0702A7E746EA020646EA064697
:100FE0004FEA164646EA0106BCBF46EA0646360CFC
:100FF0004FF000034FF000024FF0000194E72DE99D
:10100000804C9A46934670B491E8380007C831EA9C
:10101000400C48BF34EA430C03D5FFF7E6FDFFF769
:1010200080FFF0BCBDE8008C2DE9804C9A469346C9
:1010300070B491E8380007C810F0804F08BF13F073
:10104000804F03D100F005F8FFF76BFFF0BCBDE85F
:10105000008C20F07F4780EA030023F07F4C07EBF1
:101060000C03A3F57C5300F00040A3F1FE0392F0C3
:10107000000F00F0B38095F0000F00F077802DE9AD
:1010800001494FEA11404FEA144621EA004800FBAB
:1010900006FC24EA064708FB06F607FB08F800FBF7
:1010A00007F718EB06484CEB164C4FEA124B18EBBF
:1010B00007484FEA15464CEB174022EA0B4E0BFB54
:1010C00006FC25EA06470EFB06F607FB0EFE0BFBA9
:1010D00007F71EEB064E4CEB164C4FF000061EEBCE
:1010E000074E4CEB174B18EB0B0840F1000018EBC8
:1010F0000E0B58EB000840F100008F1A4FF0000172
:101100003CBFC943661B14BFB5EB040C00213CBFB8
:10111000C943F61B4FEA17444EEA8E0E27EA0445F0
:101120004FEA1C4704FB07622CEA074C05FB07F754
:101130000CFB05F604FB0CFC16EB074642EB1742D2
:1011400016EB0C4642EB1C421BEB060658EB020268
:10115000414146EA9E0601D5BDE80189B6195241D2
:1011600041EB0101A3F10103BDE801894FEA1445F8
:101170004FEA114724EA054621EA074C05FB07F42C
:1011800006FB07F70CFB06F105FB0CFC11EB074116
:1011900044EB17444FEA124711EB0C4144EB1C445B
:1011A00022EA074C05FB07F206FB07F70CFB06F6E5
:1011B00005FB0CFC16EB074642EB174216EB0C4600
:1011C00042EB1C456A1854F1000148BF7047B6193C
:1011D000524141EB0101A3F10103704795F0000F6B
:1011E00037D04FEA11424FEA144721EA024624EA77
:1011F000074C02FB07F106FB07F70CFB06F402FBAA
:101200000CFC14EB074441EB17414FEA154714EB74
:101210000C4441EB1C4125EA074C02FB07F506FB99
:1012200007F70CFB06F602FB0CFC16EB074645EB3A
:10123000174516EB0C4645EB1C42121951F1000103
:1012400048BF7047B619524141EB0101A3F10103B8
:1012500070474FEA14454FEA114724EA054621EA50
:10126000074C05FB07F106FB07F70CFB06F24FF0F6
:10127000000605FB0CFC12EB074241EB174112EB99
:101280000C4251EB1C4148BF7047921841EB0101E1
:10129000A3F10103704700B58BB0684600F099F8E0
:1012A00007200390684600F025F8012000F002F8BE
:1012B0000BB000BD0146054A106811B140F00100B5
:1012C00001E020F00100014A1060704700800840F2
:1012D0000146044A126A0A400AB9002000E00120CF
:1012E0007047000000800840014880697047000096
:1012F0000080084010B5144B1A68144B1A40D0E90E
:101300000034234484682344C46803EB0413446911
:101310002344C4692344446A234490F8284003EBDF
:1013200044631A44084B596821F40031038C01EBE3
:101330004341054B1A605960038B034C2361438B77
:10134000A3600369A36210BD008008400300FFF1A1
:101350000348006840F0020001490860704700003F
:101360000080084000B587B00121480400F040F932
:10137000684600F025F8684600F002F807B000BDA6
:1013800010B50479836803EB0473C46823440469CB
:10139000234444691919048B036803EB445319442B
:1013A000044A054B1A43054B1B6893430B44034CFB
:1013B000236010BD00001EF00000E1010080084025
:1013C0000021016041608160C16001614161816112
:1013D00070470021016041608160C160016141612D
:1013E00001834183C16101624162816270470000F3
:1013F0002DE9FE4F4768D0F808C0D0F80C80D0F82F
:101400001090D0F814A0CDF808A0D0F818A0CDF80E
:1014100004A0D0F81CA0CDF800A0002201230325D1
:101420004FF001160C885FE004F0010ABAF1000FDA
:1014300055D027EA030A91F802B00BFA02FB4AEAF8
:101440000B0791F808A04FEA420B0AFA0BFA2CEAB4
:10145000050B4AEA0B0C28EA030A91F80AB00BFACA
:1014600002FB4AEA0B0829EA060A91F803B002F1E6
:10147000100E0BFA0EFB4AEA0B0A91F804B00BFAB5
:1014800002FB4AEA0B09DDF808A02AEA060A91F8ED
:1014900005B00BFA0EFB4AEA0B0A91F806B00BFAFC
:1014A00002FB4AEA0B0ACDF808A091F809A04FEA1E
:1014B000420B0AFA0BFADDF804B02BEA050B4AEAF4
:1014C0000B0ACDF804A0DDF800A02AEA030A91F87F
:1014D00007B00BFA02FB4AEA0B0ACDF800A05B004A
:1014E000AD007600521C6408002C9DD1DFF8C4A02A
:1014F000504502D14FF01F0A01E04FF0000A27EAE1
:101500000A0AC0F804A0DFF8ACA0504502D14FF0A1
:101510001F0A01E04FF0000A2CEA0A0AC0F808A0EE
:10152000DFF890A0504502D14FF01F0A01E04FF0C4
:10153000000A28EA0A0AC0F80CA0DFF878A0504593
:1015400002D14FF01F0A01E04FF0000A29EA0A0A0F
:10155000C0F810A0DFF85CA0504502D14FF01F0B7F
:1015600001E04FF0000BDDF808A02AEA0B0AC0F8F2
:1015700014A0DFF840A0504502D14FF01F0B01E04E
:101580004FF0000BDDF804A02AEA0B0AC0F818A0FF
:10159000DFF820A0504502D14FF01F0B01E04FF0C3
:1015A000000BDDF800A02AEA0B0AC0F81CA0BDE879
:1015B000FE8F000000000C400268054B984201D1EC
:1015C0001F2300E000230B439A4302607047000092
:1015D00000000C400268054B984201D11F2300E037
:1015E00000239A430A4302607047000000000C4049
:1015F00029B1064AD2690243044BDA6104E0034A86
:10160000D2698243014BDA6170470000000002405A
:1016100030B5204CE46804F00204022C01D11E48CD
:1016200000E01D481B4CE46804F0010404B14008CC
:101630000146184CE46804F00404042C05D1154C50
:101640006468C4F30324631C5943124CE468C4F374
:10165000012424B1012C06D0022C13D10DE00E4C34
:101660000E4D2C6013E00B4CE468C4F30314641CAF
:10167000B1FBF4F2094C226009E04FF40044074D3D
:101680002C6004E049F64044044D2C6000BF00BFCC
:1016900030BD00000000024000127A00100000205F
:1016A00000B50D480D49C8610846C0680020C860F3
:1016B000084640680020486008468068002088602E
:1016C000084600690020086108464069002048611A
:1016D000FFF79EFF00BD0000100000080000024060
:1016E00070B50546002404E0E1B2284600F004F895
:1016F000641C082CF8DB70BD70B505460E463146FB
:10170000284600F0B3FA0021284600F025FA00240C
:101710000CE000BF284600F0BBF900F08000002874
:10172000F8D10021284600F009FB641C402CF0DBB6
:1017300070BD08B5009000BF00994A1E00920029B4
:10174000FAD108BD10B50446012C04D180212C48E3
:10175000FFF740FF04E04FF480712948FFF73AFF9C
:1017600001212848FFF728FF4FF480612448FFF744
:1017700023FF0520FFF7DDFF2348406840F03F00CE
:10178000214948602148406840F00C001F494860EA
:101790003F2000F049FA0520FFF7CBFF022119484E
:1017A000FFF718FF0520FFF7C4FF02211548FFF7D8
:1017B00003FF0520FFF7BDFF01211248FFF7FCFEE4
:1017C0004FF480610E48FFF7F7FE0F4840684FF670
:1017D000C07108400C4948600C4840684FF6F371EE
:1017E00008400A494860012C04D180210448FFF7D1
:1017F000E3FE04E04FF480710148FFF7DDFE10BD09
:1018000000000B4000800B4000800A4000800E402A
:1018100008B500F053F800F02FF800BF012000F0E9
:1018200037F900F080000028F8D10120FFF78AFF87
:1018300000BF022000F02CF900F080000028F8D151
:101840000220FFF77FFF0120FFF74AFF0220FFF78A
:1018500047FF01210648006800F0FEF8012003461A
:10186000002211460090034800F0B0F808BD0000C7
:101870000C000020B428000810B54FF400710E4889
:10188000FFF79AFEC820FFF754FF4FF400710A4893
:10189000FFF7A0FE0520FFF74CFF00BF012000F07E
:1018A000F7F800F0900030B1022000F0F1F800F0FD
:1018B00090000028F2D110BD00000B400EB50121B0
:1018C0001C48FFF795FE00208DF803008DF80400FA
:1018D0008DF805008DF806008DF807003F20ADF863
:1018E000000000208DF802008DF8080001208DF81E
:1018F0000A0003208DF8090069460F48FFF778FDBC
:101900000C20ADF8000069460C48FFF771FD4FF45C
:10191000F060ADF8000001208DF80200694608482B
:10192000FFF766FD0320ADF8000069460548FFF7A4
:101930005FFD0EBD0000E02000800A4000800E40E8
:1019400000000B4000800B402DE9F05F05460C467F
:1019500091462046E11704EB5171C9104E1CCA464E
:101960002046E11704EB5171C910A4EBC1014FEA05
:10197000C10B0AF0FF01F0B200F078F90BF0FF01A3
:10198000F0B200F0E9F8202D06DBFF2D04DCA5F114
:1019900020004FEAC00801E04FF0000847460DE084
:1019A00000BFF0B200F074F800F080000028F8D119
:1019B000054AD15DF0B200F0C1F97F1C08F10800C2
:1019C0008742EDDBBDE8F09FB42100082DE9FF4F11
:1019D00083B08046894692464FF0000B4E4635E074
:1019E00054462FE02046E11704EB5171C9104D1CFD
:1019F0000296E11704EB5171C910A4EBC101CA00B2
:101A00000192029EF1B2E8B200F030F9019AD1B22F
:101A1000E8B200F0A1F800270FE000BFE8B200F044
:101A200037F800F080000028F8D10BEB070218F817
:101A30000210E8B200F082F97F1C082FEDDB0BF1F9
:101A4000080B641C10988442CCDD761C06988642F4
:101A5000C6DD07B0BDE8F08F70B505460E46002420
:101A600008E0285D00B907E0285D32462146FFF70F
:101A70006BFF641C102CF4DB00BF05E032462146EE
:101A80002020FFF761FF641C102CF7DB70BD000005
:101A900070B504462C4840684FF6C07108402A498A
:101AA00048602A4840684FF6F3710840274948606B
:101AB000012C04D180212648FFF78CFD04E04FF46F
:101AC00080712348FFF786FD01212248FFF774FD4E
:101AD0004FF480611E48FFF77DFD0520FFF729FECA
:101AE00002211C48FFF776FD0520FFF722FE16486D
:101AF000006800F03F0015490968C02202EA0111A0
:101B000040EA01050520FFF714FE02211148FFF706
:101B100053FD0520FFF70DFE01210E48FFF74CFD98
:101B20004FF480610A48FFF747FD012C04D1802162
:101B30000748FFF741FD04E04FF480710448FFF7C8
:101B40003BFD284670BD000000800A4000800E402A
:101B500000000B4000800B4070B504460D46012C80
:101B600004D180212C48FFF735FD04E04FF480714B
:101B70002948FFF72FFD01212848FFF71DFD4FF4ED
:101B800080612548FFF718FD0520FFF7D2FD2448A6
:101B9000406840F03F00224948602248406840F0D9
:101BA0000C002049486045F0400000F03DF8052059
:101BB000FFF7BFFD02211948FFF70CFD0520FFF7D5
:101BC000B8FD02211548FFF7F7FC0520FFF7B1FD2E
:101BD000134840684FF6C0710840114948601148E9
:101BE00040684FF6F37108400E49486001210B48E8
:101BF000FFF7E2FC4FF480610748FFF7DDFC012CA2
:101C000004D180210448FFF7D7FC04E04FF4807131
:101C10000148FFF7D1FC70BD00000B4000800B4075
:101C200000800A4000800E400E4909684FF6C072DD
:101C300011400C4A11601146096800F03F0211433F
:101C4000084A1160084909684FF6F3721140064AC4
:101C50001160114609680C2202EA20121143024A5F
:101C60001160704700800A4000800E4070B5044645
:101C70000D46012C04D180212C48FFF7ABFC04E079
:101C80004FF480712948FFF7A5FC01212848FFF790
:101C900093FC4FF480612548FFF78EFC0520FFF789
:101CA00048FD2448406840F03F00224948602248EF
:101CB000406840F00C002049486045F0B800FFF74C
:101CC000B3FF0520FFF735FD02211948FFF782FC1D
:101CD0000520FFF72EFD02211548FFF76DFC0520BA
:101CE000FFF727FD134840684FF6C07108401149BF
:101CF0004860114840684FF6F37108400E4948604B
:101D000001210B48FFF758FC4FF480610748FFF7AB
:101D100053FC012C04D180210448FFF74DFC04E062
:101D20004FF480710148FFF747FC70BD00000B4085
:101D300000800B4000800A4000800E4070B50446D1
:101D40000D46012C04D180212C48FFF743FC04E010
:101D50004FF480712948FFF73DFC01212848FFF727
:101D600039FC4FF480612548FFF726FC0520FFF77A
:101D7000E0FC2448406840F03F0022494860224887
:101D8000406840F00C00204948602846FFF74CFFAF
:101D90000520FFF7CEFC02211948FFF71BFC0520A8
:101DA000FFF7C7FC02211648FFF706FC0520FFF7E6
:101DB000C0FC144840684FF6C071084011494860A3
:101DC000114840684FF6F37108400F4948600121FF
:101DD0000B48FFF7F1FB4FF480610848FFF7ECFB7D
:101DE000012C04D180210548FFF7E6FB04E04FF405
:101DF00080710248FFF7E0FB70BD000000000B405F
:101E000000800B4000800A4000800E40490050EAEC
:101E1000C12018BF04204A0D18BF40F0010040F255
:101E2000FF72B2EB515F08BF40F00200012808BF0B
:101E30000520704730380A2801D201207047002061
:101E400070470000FFF7E4FCFFF78CFAFFF723FA76
:101E500034E0FFF77DFA00BF0420FFF739FA0028CD
:101E6000FAD0FFF741FAC0F30B00154908600846A5
:101E7000006800F03FF90446124900F079F8124971
:101E800008600846006800F047F8044622460B4602
:101E90000EA11148FEF78EF903210F48FFF7DCFD74
:101EA0004FF6FF700D49086004E00C480068401EC2
:101EB0000A490860094800680028F6DCC9E7000004
:101EC0000800002000E09B440400002055203D2035
:101ED00025352E3366560000140000200000002037
:101EE00010B500290AD00878002807D005487844A2
:101EF000FEF794FD002801D0002010BD0248784470
:101F000010BD0000BE0A0000B60A00000808A0F5D7
:101F100000114FEA3101704743004FEAD30C4FEAFA
:101F20003C0C43401FBF40070CF1605113F0FE4FC3
:101F300070471CF0006F03D100200CF00041704787
:101F40000CF0004343EA507010B540EACC0000F0BA
:101F5000E4F800BF000000924FEA0001FFF7D6BF8F
:101F60004FF000414FF00000A1F500217047000044
:101F70004FF47F0C1CEAD0121EBF1CEAD11392EA68
:101F80000C0F93EA0C0F00F0858090EA010F48BF18
:101F900042F4807240F4000C41F400002CF07F41C8
:101FA00020F07F4000B58142A2EB03020FF2081C33
:101FB000ACEB504EC0F100009EF800E04FEA4E0E30
:101FC00000FB0EFC38BF49004FEA2C1C02F5FA0258
:101FD0000CFB0EF34FEACE1E4FEA112C4FEAC12143
:101FE0000EEB635E42EB22420EFB0CFC4FEA1C53ED
:101FF00000FB03114FEA112C4FEA01310EFB0CFCE0
:102000004FEADC4C00FB0C11C14228BF09184CEB15
:1020100003335DF804EB10EB410143EBC250B2F522
:102020007C0F38BF704729D512F0F00F1CBF00F1AC
:10203000C04000F00040704700818283848586871D
:1020400088898B8C8D8E8F919293959697999A9C77
:102050009D9FA0A2A3A5A7A8AAACAEB0B2B3B5B7E6
:10206000B9BCBEC0C2C5C7C9CCCED1D4D7D9DCDFBC
:10207000E2E6E9ECF0F3F7FAFE0000004FEA400C6C
:102080000CF1807CBCF17E4F28BF7047B0F1C0409E
:1020900000F089B890EA010F0CEAD11348BF42F46E
:1020A0008072624538BF634507D213F47F0F16D0A4
:1020B00080EA010000F00040704710B500F02DF8F4
:1020C000097EFC3E00F005B880EA010000F0004007
:1020D000704780EA010000F0004000F064B812F49C
:1020E0007F0F04BF0248704780EA010000F05BB830
:1020F0000000C07FB0FA80F310FA03F2C3F19D0331
:102100000AD0D90501EB1220530638BF704700F101
:10211000010008BF20F0010070470EF1020E2EF002
:10212000030E5EF8044B244204D44FEA4102B2F19C
:102130007F4F11D84FEA4003B3F17F4F0CD80ED137
:102140004FEAD07CB2F17F4F0CEB4C0C0CF1020C3F
:1021500008BF4CEBD17C04E04FF0080C01E04FEAE3
:10216000D17C0CEB4C0324FA03F404F00704B4F123
:10217000040C06D20EEB840CBDE810404CF0010CB0
:102180006047DFE80CF0070802024FF00040A0F5BE
:10219000800010BD0846420018BFD2F1807288BF8F
:1021A00000F0004010BDFF2141EAD050C00570474B
:1021B000FEF7E3B90000000000000000000000DFAF
:1021C000DF00000000070700070700002424FF24A9
:1021D000FF2424000000000000000000006333180A
:1021E0000C66630060F69F899F76D80000000007A8
:1021F00007000000003C7EC381810000008181C394
:102200007E3C0000082A1C7F1C2A08000018187E4B
:102210007E181800000080E0600000000018181808
:102220001818180000000060600000000000C0F0F6
:102230003C0F03003E7F71594D7F3E0040427F7F3F
:1022400040400000627359496F66000022634949AB
:102250007F360000181C16537F7F500027674545C6
:102260007D3900003C7E4B497930000003037179D1
:102270000F070000367F49497F360000064F496945
:102280003F1E00000000006666000000000080663F
:1022900066000000000008142241000000282828E1
:1022A00028282800000041221408000000020369C9
:1022B0006D07020000000000000000007C7E131388
:1022C0007E7C0000417F7F49497F36001C3E634190
:1022D00041632200417F7F41633E1C00417F7F4973
:1022E0005D416300417F7F491D0103001C3E634146
:1022F000517372007F7F08087F7F000000417F7F5D
:1023000041000000307040417F3F0100417F7F0865
:102310001C776300417F7F41406070007F7F0E1C0F
:102320000E7F7F007F7F060C187F7F001C3E63417D
:10233000633E1C00417F7F49090F06001E3F21714B
:102340007F5E0000417F7F09197F6600266F4D592F
:102350007332000003417F7F410300003F7F6060D4
:102360007F3F00001F3F60603F1F00007F7F3018ED
:10237000307F7F0063673C183C676300074F7878C5
:102380004F070000476371594D677300000000005C
:10239000000000000000000000000000000000003D
:1023A000000000000000000000000000000000002D
:1023B00000000000000000000000000020745454E1
:1023C0003C784000417F3F4848783000387C4444A6
:1023D0006C280000307848493F7F4000387C5454D6
:1023E0005C180000487E7F49030200004C5E525298
:1023F0007C3E0200417F7F08047C780000447D7DA4
:1024000040000000307040407D3D0000417F7F1063
:10241000386C440000417F7F400000007C7C18380D
:102420001C7C78007C7C04047C780000387C44446C
:102430007C38000044787C54141C0800081C145498
:10244000787C4000447C784C041C1800485C545450
:102450007424000000043E7F442400003C7C404083
:102460003C7C40001C3C60603C1C00003C7C7038A4
:10247000707C3C00446C3810386C44004C5C50500C
:102480007C3C00004C64745C4C6400000000000064
:10249000000000000000000000000000000000003C
:1024A000000000000000000000000000000000002C
:1024B000000000000000000000000000000000001C
:1024C000000000000000000000000000000000000C
:1024D00000000000000000000000000000000000FC
:1024E00000000000000000000000000000000000EC
:1024F00000000000000000000000000000000000DC
:1025000000000000000000000000000000000000CB
:1025100000000000000000000000000000000000BB
:1025200000000000000000000000000000000000AB
:10253000000000000000000000000000000000009B
:10254000000000000000000000000000000000008B
:10255000000000000000000000000000000000007B
:10256000000000000000000000000000000000006B
:10257000000000000000000000000000000000005B
:10258000000000000000000000000000000000004B
:10259000000000000000000000000000000000003B
:1025A000000000000000000000000000000000002B
:1025B000000000000000000000000000000000001B
:1025C000000000000000000000000000000000000B
:1025D00000000000000000000000000000000000FB
:1025E00000000000000000000000000000000000EB
:1025F00000000000000000000000000000000000DB
:1026000000000000000000000000000000000000CA
:1026100000000000000000000000000000000000BA
:1026200000000000000000000000000000000000AA
:10263000000000000000060909060000000000007C
:10264000000000000000000000000000000000008A
:10265000000000000000000000000000000000007A
:10266000000000000000000000000000000000006A
:10267000000000000000000000000000000000005A
:10268000000000000000000000000000000000004A
:10269000000000000000000000000000000000003A
:1026A000000000000000000000000000000000002A
:1026B000000000007C7E13137E7C0000417F7F4978
:1026C00049793300417F7F49497F3600417F7F410F
:1026D00001030300787E3733377E7800417F7F49DE
:1026E0005D41630063147F7F1463000063634949A5
:1026F0006B7F36007F7F30180C7F7F007F7F301B21
:102700000C7F7F00417F7F081C776300607F1F0381
:102710007F7F41007F7F0E1C0E7F7F007F7F080838
:102720007F7F00001C3E6341633E1C007F7F0303EC
:102730007F7F0000417F7F49090F06001C3E6341F7
:102740004163220003417F7F4103000063673C181F
:102750000C0703001E527F7F521E000063673C1867
:102760003C6763003F3F20203F3F60000F1F185829
:102770007F7F40007F7F607F607F7F003F203F3F03
:10278000203F6000017F7F48487830007F7F4848C5
:1027900078007F007F7F48487830000036634949E1
:1027A0006B7F3E007F083E6341633E00667F1909F0
:1027B0007F7F4100207454543C784000307C4A4A6A
:1027C0007A310000447C7C5454280000447C7C44D2
:1027D0000C0800006038343438600000387C5454F1
:1027E0005C18000044287C7C284400002E4454548B
:1027F0007C2800007C7C20107C7C00007C7C2111EB
:102800007C7C0000447C7C10386C440040780C04D4
:102810007C7C4000787C0810087C78007C7C101060
:102820007C7C0000387C44447C3800007C7C0404C0
:102830007C7C000044787C54141C0800387C4444A0
:102840006C28000008447C7C440800004C5C50501C
:102850007C3C000008547C7C54080000446C381018
:10286000386C44003C3C203C3C6000001C10507C18
:102870007C4000007C407C407C0000003C203C20F0
:102880003C600000443C505070200000403C5050E0
:1028900020007C00403C50505020000028445454FC
:1028A000380000007C1038444438000040281414DC
:1028B0007C7C0000FEFEFEFEFE7E1E06061E7EFEE8
:1028C000FEFEFEFE7F5F47417C7870606070787C22
:1028D00041475F7F04000008000000000000000284
:1028E000000100001000000002400000000000A0F5
:1028F0000000000005400000000000C800000000CB
:102900000C4000000000409C000000001940000046
:102910000020BCBE0000000034400000BFC91B8E78
:1029200000000004B5400000504BCFD06607E2CF56
:10293000010000006C4100003E8251AADFEEA73486
:1029400001000000D9420000DCB5A0E23A301F9738
:10295000FFFFFFFFB4450000FD25A0C8E9A3C14F5C
:10296000FFFFFFFFFF3F00000000008000000000AD
:10297000FF3F00000000008000000000202020C079
:10298000CE2022CCE8EBE0EDE4F02200C8290008DC
:102990000000002014000000FC000008DC290008F2
:1029A0001400002074060000180100081C0000003C
:1029B00043000000F8FFFFFF0C0000000E000000C5
:1029C0000F0000002E0000000000000000000000CA
:0C29D000000000007C29000800127A00C2
:040000050800017579
:00000001FF
