:020000040800F2
:1000000080090020650100086D0100086F010008EB
:10001000710100087301000875010008000000006C
:100020000000000000000000000000007701000850
:1000300079010008000000007B0100087D01000834
:100040007F0100087F0100087F0100080000000018
:10005000000000007F0100087F0100087F01000808
:100060007F010008000000007F0100087F010008F8
:100070007F010008000000007F0100087F010008E8
:100080007F0100087F010008000000007F010008D8
:100090007F010008000000000000000000000000D8
:1000A0000000000000000000000000007F010008C8
:1000B0007F0100087F0100087F0100087F01000820
:1000C00000F002F800F03FF80AA090E8000C82442B
:1000D0008344AAF10107DA4501D100F034F8AFF208
:1000E000090EBAE80F0013F0010F18BFFB1A43F016
:1000F000010318474408000074080000103A24BFA8
:1001000078C878C1FAD8520724BF30C830C144BF7C
:1001100004680C60704700000023002400250026BE
:10012000103A28BF78C1FBD8520728BF30C148BF5A
:100130000B607047642900F04B80002070471FB5AA
:100140001FBD10B510BD00F0C1F91146FFF7F7FF54
:1001500000F0A8FB00F0DFF903B4FFF7F2FF03BCE7
:1001600000F0E2F90948804709480047FEE7FEE74A
:10017000FEE7FEE7FEE7FEE7FEE7FEE7FEE7FEE757
:1001800004480549054A064B704700005508000819
:10019000C1000008800300208009002080050020A5
:1001A000800500200FB41CB5084B06AA7B446946A5
:1001B0000090059800F06DF904460020694600F0B3
:1001C0007BF920461CBC5DF814FB0000090300000D
:1001D0002DE9F0410646002410687529314616A520
:1001E00010D0AFF30080002802DA404213A507E0E8
:1001F00031688A0701D512A502E0490704D511A587
:10020000012401E0AFF3008000210A2206F1240757
:1002100009E0B0FBF2FCB0FBF2F302FB1C00303053
:1002200078541846491C0028F3D123462A46304604
:10023000BDE8F04100F0CFB8000000002D00000044
:100240002B000000200000002DE9F05F89460446E5
:100250004FF0000ADFF874B1FB44C0F820A020463C
:10026000E1688847002874D0252806D0D4E9012108
:100270009047206A401C2062F1E700265F46204636
:10028000E16888472028054607DB312D05D278191B
:1002900010F8200C08B10643F1E7B00701D526F0AD
:1002A0000406C4F81CA00027C4F818A02A2D09D001
:1002B000284600F0EFFA38B304EB8708303DC8F861
:1002C000185019E059F8041B204604EB870291618D
:1002D000E1688847012F054618D1E069002820DA37
:1002E00026F020061DE0D8F8180000EB800005EB92
:1002F00040003038C8F818002046E16888470546B5
:1003000000F0C8FA0028EED1012F0AD02E2D08D116
:100310002046E16888477F1C0546022F46F02006EC
:10032000C4DBA069002803DA404246F00106A06160
:10033000F00701D026F010066C2D0BD0682D09D0E7
:100340004C2D39D06A2D35D0742D35D07A2D33D03F
:1003500016E038E0E1682F4620468847B842054657
:1003600009D16C2F26D04FF48060E1680643204607
:100370008847054604E06C2F1AD04FF4807006437E
:100380000DB3A5F14100192802D8203546F40066C6
:100390004A462946204626604E46FFF7CBFE80B1EE
:1003A00001280BD0F61D26F0070000F1080956E7DA
:1003B0004020E4E78020D8E70020D6E706F10409D2
:1003C0004DE7284652E7206ABDE8F09FC8060000C6
:1003D0007047704770472DE9F0470D4699469246A1
:1003E000044600F124080168880604D5E06921F07C
:1003F0001001216000E00120A84201DD471B00E060
:100400000027A1697A1902EB0900081AA061207877
:10041000C00602D42046AFF30080002608E0D4E9ED
:1004200001211AF806009047206A401C761C2062C1
:100430004E45F4DB2078C0060AD52046AFF3008095
:1004400006E0D4E9012130209047206A401C206258
:10045000381EA7F10107F4DC07E0D4E9012118F800
:1004600005009047206A401C2062281EA5F1010566
:10047000F3DC2046AFF300802078000602D502208E
:10048000BDE8F0870120FBE701694A1C026108789A
:10049000704700B58FB0CDE90131002105910549C4
:1004A0007944CDE9031011466846FFF7CDFE0FB041
:1004B00000BD0000E5FFFFFF0A6802F8010B0A60BB
:1004C0007047000000487047200300207546FFF782
:1004D000F9FFAE4605006946534620F00700854601
:1004E00018B020B5FFF74CFEBDE820404FF00006E5
:1004F0004FF000074FF000084FF0000B21F007010C
:10050000AC46ACE8C009ACE8C009ACE8C009ACE84E
:10051000C0098D46704710B50446AFF300802046F1
:10052000BDE81040FFF718BE01491820ABBEFEE73A
:1005300026000200704740F20B1CC2F2000C60471C
:1005400040F2152CC2F2000C604740F2BF0CC2F220
:10055000000C60470EB50121C80500F023F968467C
:1005600000F012F901208DF802008DF809008DF8D5
:100570000A000320ADF800006946024800F004F8C4
:100580000EBD000000800B402DE9FE4F4768D0F8FB
:1005900008C0D0F80C80D0F81090D0F814A0CDF896
:1005A00008A0D0F818A0CDF804A0D0F81CA0CDF871
:1005B00000A00022012303254FF001160C885FE004
:1005C00004F0010ABAF1000F55D027EA030A91F8A6
:1005D00002B00BFA02FB4AEA0B0791F808A04FEAB7
:1005E000420B0AFA0BFA2CEA050B4AEA0B0C28EA32
:1005F000030A91F80AB00BFA02FB4AEA0B0829EA4F
:10060000060A91F803B002F1100E0BFA0EFB4AEA4B
:100610000B0A91F804B00BFA02FB4AEA0B09DDF869
:1006200008A02AEA060A91F805B00BFA0EFB4AEA7E
:100630000B0A91F806B00BFA02FB4AEA0B0ACDF856
:1006400008A091F809A04FEA420B0AFA0BFADDF86C
:1006500004B02BEA050B4AEA0B0ACDF804A0DDF83A
:1006600000A02AEA030A91F807B00BFA02FB4AEA53
:100670000B0ACDF800A05B00AD007600521C6408A8
:10068000002C9DD1DFF8C4A0504502D14FF01F0AC5
:1006900001E04FF0000A27EA0A0AC0F804A0DFF8D8
:1006A000ACA0504502D14FF01F0A01E04FF0000A04
:1006B0002CEA0A0AC0F808A0DFF890A0504502D141
:1006C0004FF01F0A01E04FF0000A28EA0A0AC0F8BA
:1006D0000CA0DFF878A0504502D14FF01F0A01E0CE
:1006E0004FF0000A29EA0A0AC0F810A0DFF85CA05F
:1006F000504502D14FF01F0B01E04FF0000BDDF829
:1007000008A02AEA0B0AC0F814A0DFF840A0504560
:1007100002D14FF01F0B01E04FF0000BDDF804A0F9
:100720002AEA0B0AC0F818A0DFF820A0504502D131
:100730004FF01F0B01E04FF0000BDDF800A02AEA9C
:100740000B0AC0F81CA0BDE8FE8F000000000C40A2
:100750000268054B984201D11F2300E000230B43A0
:100760009A4302607047000000000C400268054B8D
:10077000984201D11F2300E000239A430A430260FC
:100780007047000000000C404FF6FF71018000210F
:100790008170C170017141718171C17101724172C9
:1007A0008172704729B1064AD2690243044BDA616B
:1007B00004E0034AD2698243014BDA6170470000CA
:1007C0000000024030B5204CE46804F00204022C22
:1007D00001D11E4800E01D481B4CE46804F00104F0
:1007E00004B140080146184CE46804F00404042CE9
:1007F00005D1154C6468C4F30324631C5943124C9F
:10080000E468C4F3012424B1012C06D0022C13D1D6
:100810000DE00E4C0E4D2C6013E00B4CE468C4F35D
:100820000314641CB1FBF4F2094C226009E04FF49C
:100830000044074D2C6004E049F64044044D2C6010
:1008400000BF00BF30BD00000000024000127A006F
:100850001C03002000B50D480D49C8610846C0685A
:100860000020C8600846406800204860084680684C
:100870000020886008460069002008610846406939
:1008800000204861FFF79EFF00BD00001000000837
:100890000000024030380A2801D2012070470020B1
:1008A000704700008AB0002600BF00BF002400256A
:1008B000FFF750FE01210820FFF774FF4FF000669C
:1008C00000213046FFF737FE01211348FFF74EFFA6
:1008D0000A2200213046FFF733FE00213046FFF7A1
:1008E00034FE04460D4D00E06D1E002DFCD10121AB
:1008F0000948FFF72DFF224609A101A8FFF752FC86
:1009000009E024B902210448FFF730FF03E0022187
:100910000148FFF71DFFF4E700800B4040420F0045
:100920002564000004000008000000000000000230
:10093000000100001000000068090008000000200D
:100940001C030000FC000008840C00081C030020AD
:1009500004000000FC000008880C000820030020B0
:10096000600600001801000808B5009002E0009938
:10097000491E009100990029F9D108BD70B50246C1
:100980000B46BE48BE4E30613046006800F038006D
:10099000411C012B01D1580200E000200143B8485E
:1009A0000160426041F4E070B54E30603046C0688E
:1009B0003046C0683046C0683046C56801F038012E
:1009C0000160002030619007C40EE540E8B270BDC0
:1009D00070B502460B46A948A94E30613046006802
:1009E00000F03800411C012B01D1580200E000202A
:1009F0000143A3480160426041F4E070A04E3060C2
:100A00003046C0683046C0683046C0683046C56869
:100A100001F0380101600020306102F00200C400E2
:100A2000E540A8B270BD30B502460B46934C944DDC
:100A30002C612C46246804F03804611C012B01D180
:100A40005C0200E0002421438D4C2160626041F48F
:100A5000E0748B4D2C602C46E4682C46E4682C46F0
:100A6000E4682C46E06801F03801216000242C6124
:100A700030BD2DE9F04106460F46804880490861A7
:100A80000846006800F03800441C012F01D14815C9
:100A900000E0002004437A480460002522E0701939
:100AA000774948600020886044F488640846046000
:100AB0000520FFF759FF44F400547148046049F6DB
:100AC0004040FFF751FF24F480646D480460052026
:100AD000FFF74AFF24F40154694804600120FFF73E
:100AE00043FF2D1D102DDAD304F038046448046050
:100AF000002063490861BDE8F08170B506465F4893
:100B00005F4908610846006800F03800441C022E66
:100B100001D1481500E00020044359480460002535
:100B200022E05748456000205549886044F44464F9
:100B3000084604600520FFF717FF44F400545048AE
:100B4000046049F64040FFF70FFF24F480644C48EE
:100B500004606420FFF708FF24F42154484804602F
:100B60000120FFF701FF2D1D102DDAD304F038040A
:100B70004348046000204249086170BD2DE9F041FE
:100B800006460D4617463D483D490861012D01D1F5
:100B9000481500E0002005463948006800F0380498
:100BA00045F001000443364804604660876044F421
:100BB000825404600520FFF7D7FE44F40054304807
:100BC00004600A20FFF7D0FE44F080042C48046043
:100BD0002820FFF7C9FE24F080042948046024F48B
:100BE000805404600520FFF7BFFE24F4015424481C
:100BF00004600120FFF7B8FE04F0380020490860C7
:100C000000200861BDE8F0812DE9F04705468846DF
:100C10001446A807C70EBC40FF2000FA07F641465D
:100C20002846FFF700FF814629EA060004EA06018C
:100C300040EA010241462846FFF7A0FFBDE8F087E1
:100C40002DE9F04705468846144605F00200C70026
:100C5000BC404FF6FF7000FA07F641462846FFF702
:100C6000E2FE814629EA060004EA060140EA0102A2
:100C700041462846FFF782FFBDE8F0875155AA8A12
:080C80000080014000127A001F
:04000005080000C12E
:00000001FF
