:020000040800F2
:10000000D00600205D0100086501000867010008B6
:10001000690100086B0100086D0100080000000084
:100020000000000000000000000000006F01000858
:10003000710100080000000073010008750100084C
:100040007701000877010008770100080000000030
:100050000000000077010008770100087701000820
:100060007701000800000000770100087701000810
:100070007701000800000000770100087701000800
:1000800077010008770100080000000077010008F0
:1000900077010008000000000000000000000000E0
:1000A00000000000000000000000000077010008D0
:1000B0007701000877010008770100087701000840
:1000C00000F002F800F03AF80AA090E8000C824430
:1000D0008344AAF10107DA4501D100F02FF8AFF20D
:1000E000090EBAE80F0013F0010F18BFFB1A43F016
:1000F00001031847F813000018140000103A24BF39
:1001000078C878C1FAD8520724BF30C830C144BF7C
:1001100004680C60704700000023002400250026BE
:10012000103A28BF78C1FBD8520728BF30C148BF5A
:100130000B6070471FB51FBD10B510BD00F036F83D
:100140001146FFF7F7FF00F0E9FD00F054F803B4A3
:10015000FFF7F2FF03BC00F057F8000009488047A2
:1001600009480047FEE7FEE7FEE7FEE7FEE7FEE799
:10017000FEE7FEE7FEE7FEE704480549054A064BB1
:100180007047000069050008C1000008D000002089
:10019000D0060020D0020020D00200207047704717
:1001A0007047000000487047700000207546FFF758
:1001B000F9FFAE4605006946534620F00700854624
:1001C00018B020B5FFF7D8FFBDE820404FF000067B
:1001D0004FF000074FF000084FF0000B21F007012F
:1001E000AC46ACE8C009ACE8C009ACE8C009ACE872
:1001F000C0098D46704710B50446AFF30080204615
:10020000BDE81040FFF7A3BF01491820ABBEFEE7D1
:10021000260002007047000000B587B001214FF0B2
:10022000107000F049F904A800F038F92020ADF86A
:10023000100001208DF81A0000208DF81200012016
:100240008DF8190000208DF8160004A90D4800F063
:100250001DF801A800F022F90420ADF804000120E7
:100260008DF80E0000208DF8060001208DF80D009D
:1002700000208DF80A0001A9034800F007F807B034
:1002800000BD000000000B4000800B402DE9FE4F38
:100290004768D0F808C0D0F80C80D0F81090D0F89B
:1002A00014A0CDF808A0D0F818A0CDF804A0D0F87C
:1002B0001CA0CDF800A00022012303254FF0011659
:1002C0000C885FE004F0010ABAF1000F55D027EA6C
:1002D000030A91F802B00BFA02FB4AEA0B0791F805
:1002E00008A04FEA420B0AFA0BFA2CEA050B4AEA7D
:1002F0000B0C28EA030A91F80AB00BFA02FB4AEA4F
:100300000B0829EA060A91F803B002F1100E0BFA65
:100310000EFB4AEA0B0A91F804B00BFA02FB4AEA18
:100320000B09DDF808A02AEA060A91F805B00BFAD5
:100330000EFB4AEA0B0A91F806B00BFA02FB4AEAF6
:100340000B0ACDF808A091F809A04FEA420B0AFA6F
:100350000BFADDF804B02BEA050B4AEA0B0ACDF8DC
:1003600004A0DDF800A02AEA030A91F807B00BFA0E
:1003700002FB4AEA0B0ACDF800A05B00AD00760054
:10038000521C6408002C9DD1DFF8C4A0504502D156
:100390004FF01F0A01E04FF0000A27EA0A0AC0F8EE
:1003A00004A0DFF8ACA0504502D14FF01F0A01E0D5
:1003B0004FF0000A2CEA0A0AC0F808A0DFF890A063
:1003C000504502D14FF01F0A01E04FF0000A28EA21
:1003D0000A0AC0F80CA0DFF878A0504502D14FF00F
:1003E0001F0A01E04FF0000A29EA0A0AC0F810A02B
:1003F000DFF85CA0504502D14FF01F0B01E04FF039
:10040000000BDDF808A02AEA0B0AC0F814A0DFF8F8
:1004100040A0504502D14FF01F0B01E04FF0000B00
:10042000DDF804A02AEA0B0AC0F818A0DFF820A023
:10043000504502D14FF01F0B01E04FF0000BDDF8EB
:1004400000A02AEA0B0AC0F81CA0BDE8FE8F00003D
:1004500000000C40024613680B400BB1012000E085
:10046000002070470268054B984201D11F2300E02D
:1004700000230B439A4302607047000000000C40C9
:100480000268054B984201D11F2300E000239A43E4
:100490000A4302607047000000000C404FF6FF71F5
:1004A000018000218170C170017141718171C17140
:1004B000017241728172704729B1064AD2690243C2
:1004C000044BDA6104E0034AD2698243014BDA61EA
:1004D000704700000000024030B5204CE46804F092
:1004E0000204022C01D11E4800E01D481B4CE468A8
:1004F00004F0010404B140080146184CE46804F01B
:100500000404042C05D1154C6468C4F30324631C53
:100510005943124CE468C4F3012424B1012C06D0E1
:10052000022C13D10DE00E4C0E4D2C6013E00B4C41
:10053000E468C4F30314641CB1FBF4F2094C2260B8
:1005400009E04FF40044074D2C6004E049F64044B4
:10055000044D2C6000BF00BF30BD00000000024011
:1005600000127A006C00002000B50D480D49C861EA
:100570000846C0680020C8600846406800204860FF
:1005800008468068002088600846006900200861ED
:100590000846406900204861FFF79EFF00BD00004B
:1005A000100000080000024070B50546002404E079
:1005B000E1B2284600F004F8641C082CF8DB70BD9A
:1005C00070B505460E463146284600F0B3FA0021C4
:1005D000284600F025FA00240CE000BF284600F071
:1005E000BBF900F080000028F8D10021284600F077
:1005F00009FB641C402CF0DB70BD08B5009000BF07
:1006000000994A1E00920029FAD108BD10B504468F
:10061000012C04D180212C48FFF732FF04E04FF475
:1006200080712948FFF72CFF01212848FFF71AFFA6
:100630004FF480612448FFF715FF0520FFF7DDFF29
:100640002348406840F03F00214948602148406805
:1006500040F00C001F4948603F2000F049FA052097
:10066000FFF7CBFF02211948FFF70AFF0520FFF72C
:10067000C4FF02211548FFF7F5FE0520FFF7BDFF77
:1006800001211248FFF7EEFE4FF480610E48FFF79C
:10069000E9FE0F4840684FF6C07108400C494860B9
:1006A0000C4840684FF6F37108400A494860012C35
:1006B00004D180210448FFF7D5FE04E04FF4807197
:1006C0000148FFF7CFFE10BD00000B4000800B403B
:1006D00000800A4000800E4008B500F053F800F09A
:1006E0002FF800BF012000F037F900F0800000284B
:1006F000F8D10120FFF78AFF00BF022000F02CF99B
:1007000000F080000028F8D10220FFF77FFF0120D1
:10071000FFF74AFF0220FFF747FF01210648006864
:1007200000F0FEF801200346002211460090034825
:1007300000F0B0F808BD000068000020BC140008FC
:1007400010B54FF400710E48FFF78CFEC820FFF77C
:1007500054FF4FF400710A48FFF792FE0520FFF79F
:100760004CFF00BF012000F0F7F800F0900030B11E
:10077000022000F0F1F800F090000028F2D110BD46
:1007800000000B400EB501211C48FFF795FE00202C
:100790008DF803008DF804008DF805008DF8060033
:1007A0008DF807003F20ADF8000000208DF8020012
:1007B0008DF8080001208DF80A0003208DF809004B
:1007C00069460F48FFF762FD0C20ADF8000069464E
:1007D0000C48FFF75BFD4FF4F060ADF8000001201E
:1007E0008DF8020069460848FFF750FD0320ADF878
:1007F000000069460548FFF749FD0EBD0000E020F6
:1008000000800A4000800E4000000B4000800B403A
:100810002DE9F05F05460C4691462046E11704EBB2
:100820005171C9104E1CCA462046E11704EB5171A4
:10083000C910A4EBC1014FEAC10B0AF0FF01F0B2ED
:1008400000F078F90BF0FF01F0B200F0E9F8202D8C
:1008500006DBFF2D04DCA5F120004FEAC00801E013
:100860004FF0000847460DE000BFF0B200F074F80A
:1008700000F080000028F8D1054AD15DF0B200F008
:10088000C1F97F1C08F108008742EDDBBDE8F09F4D
:10089000BC0D00082DE9FF4F83B080468946924683
:1008A0004FF0000B4E4635E054462FE02046E1174E
:1008B00004EB5171C9104D1C0296E11704EB517104
:1008C000C910A4EBC101CA000192029EF1B2E8B2C4
:1008D00000F030F9019AD1B2E8B200F0A1F8002797
:1008E0000FE000BFE8B200F037F800F08000002809
:1008F000F8D10BEB070218F80210E8B200F082F909
:100900007F1C082FEDDB0BF1080B641C1098844250
:10091000CCDD761C06988642C6DD07B0BDE8F08FB8
:1009200070B505460E46002408E0285D00B907E0D2
:10093000285D32462146FFF76BFF641C102CF4DB68
:1009400000BF05E0324621462020FFF761FF641C0E
:10095000102CF7DB70BD000070B504462C484068D1
:100960004FF6C07108402A4948602A4840684FF64F
:10097000F371084027494860012C04D180212648A2
:10098000FFF77EFD04E04FF480712348FFF778FD08
:1009900001212248FFF766FD4FF480611E48FFF7F2
:1009A0006FFD0520FFF729FE02211C48FFF768FDB7
:1009B0000520FFF722FE1648006800F03F001549A9
:1009C0000968C02202EA011140EA01050520FFF78B
:1009D00014FE02211148FFF745FD0520FFF70DFE2B
:1009E00001210E48FFF73EFD4FF480610A48FFF7F2
:1009F00039FD012C04D180210748FFF733FD04E0C5
:100A00004FF480710448FFF72DFD284670BD0000AB
:100A100000800A4000800E4000000B4000800B4028
:100A200070B504460D46012C04D180212C48FFF7F7
:100A300027FD04E04FF480712948FFF721FD0121D3
:100A40002848FFF70FFD4FF480612548FFF70AFDA6
:100A50000520FFF7D2FD2448406840F03F002249BE
:100A600048602248406840F00C002049486045F04A
:100A7000400000F03DF80520FFF7BFFD02211948B6
:100A8000FFF7FEFC0520FFF7B8FD02211548FFF730
:100A9000E9FC0520FFF7B1FD134840684FF6C0712F
:100AA000084011494860114840684FF6F37108400A
:100AB0000E49486001210B48FFF7D4FC4FF48061D8
:100AC0000748FFF7CFFC012C04D180210448FFF731
:100AD000C9FC04E04FF480710148FFF7C3FC70BD0E
:100AE00000000B4000800B4000800A4000800E4058
:100AF0000E4909684FF6C07211400C4A1160114648
:100B0000096800F03F021143084A1160084909686A
:100B10004FF6F3721140064A1160114609680C2223
:100B200002EA20121143024A1160704700800A4015
:100B300000800E4070B504460D46012C04D1802182
:100B40002C48FFF79DFC04E04FF480712948FFF723
:100B500097FC01212848FFF785FC4FF48061254868
:100B6000FFF780FC0520FFF748FD2448406840F06F
:100B70003F00224948602248406840F00C0020496C
:100B8000486045F0B800FFF7B3FF0520FFF735FDDB
:100B900002211948FFF774FC0520FFF72EFD022102
:100BA0001548FFF75FFC0520FFF727FD1348406855
:100BB0004FF6C071084011494860114840684FF62F
:100BC000F37108400E49486001210B48FFF74AFCC9
:100BD0004FF480610748FFF745FC012C04D18021C8
:100BE0000448FFF73FFC04E04FF480710148FFF731
:100BF00039FC70BD00000B4000800B4000800A40B3
:100C000000800E4070B504460D46012C04D18021B1
:100C10002C48FFF735FC04E04FF480712948FFF7BA
:100C20002FFC01212848FFF72BFC4FF48061254859
:100C3000FFF718FC0520FFF7E0FC2448406840F06F
:100C40003F00224948602248406840F00C0020499B
:100C500048602846FFF74CFF0520FFF7CEFC022135
:100C60001948FFF70DFC0520FFF7C7FC02211648C5
:100C7000FFF7F8FB0520FFF7C0FC144840684FF66B
:100C8000C071084011494860114840684FF6F3713F
:100C900008400F49486001210B48FFF7E3FB4FF480
:100CA00080610848FFF7DEFB012C04D18021054854
:100CB000FFF7D8FB04E04FF480710248FFF7D2FB46
:100CC00070BD000000000B4000800B4000800A4017
:100CD00000800E4070B505460A200446012D04D15F
:100CE00020210C48FFF7B6FB044625B904210A4829
:100CF000FFF7B0FB0446012C01D1002070BD0CB9F8
:100D00000120FBE71CB1012C01D00A20F6E700BF4F
:100D1000F4E7000000000B4000800B40FFF7DCFC14
:100D2000FFF77AFA0024002540E00120FFF7D2FF08
:100D300001280CD15CB901241D480068401C1C49E5
:100D4000086008460068032801D1002008600120DF
:100D5000FFF7C0FF04460020FFF7BCFF01280CD1BD
:100D60005DB9012512480068401E11490860084617
:100D70000068401C08B9022008600020FFF7AAFFA5
:100D800005460C490A4A126801EB42100321FFF79D
:100D9000C7FD64200849086004E007480068401E59
:100DA00005490860044800680028F6DCBDE700003B
:100DB00004000020080000200000002000000000C7
:100DC00000000000000000DFDF0000000007070057
:100DD000070700002424FF24FF2424000000000053
:100DE00000000000006333180C66630060F69F8902
:100DF0009F76D8000000000707000000003C7EC37B
:100E000081810000008181C37E3C0000082A1C7F94
:100E10001C2A08000018187E7E181800000080E0C8
:100E20006000000000181818181818000000006072
:100E3000600000000000C0F03C0F03003E7F7159CD
:100E40004D7F3E0040427F7F404000006273594921
:100E50006F660000226349497F360000181C165354
:100E60007F7F5000276745457D3900003C7E4B4918
:100E700079300000030371790F070000367F49497C
:100E80007F360000064F49693F1E000000000066E3
:100E90006600000000008066660000000000081484
:100EA000224100000028282828282800000041228C
:100EB00014080000000203696D0702000000000032
:100EC000000000007C7E13137E7C0000417F7F4980
:100ED000497F36001C3E634141632200417F7F41D0
:100EE000633E1C00417F7F495D416300417F7F4934
:100EF0001D0103001C3E6341517372007F7F08088F
:100F00007F7F000000417F7F410000003070404142
:100F10007F3F0100417F7F081C776300417F7F4155
:100F2000406070007F7F0E1C0E7F7F007F7F060C6D
:100F3000187F7F001C3E6341633E1C00417F7F4958
:100F4000090F06001E3F21717F5E0000417F7F096F
:100F5000197F6600266F4D597332000003417F7F71
:100F6000410300003F7F60607F3F00001F3F6060E3
:100F70003F1F00007F7F3018307F7F0063673C1881
:100F80003C676300074F78784F070000476371594B
:100F90004D6773000000000000000000000000002A
:100FA0000000000000000000000000000000000041
:100FB0000000000000000000000000000000000031
:100FC00000000000207454543C784000417F3F48AA
:100FD00048783000387C44446C2800003078484918
:100FE0003F7F4000387C54545C180000487E7F49A5
:100FF000030200004C5E52527C3E0200417F7F089B
:10100000047C780000447D7D40000000307040404A
:101010007D3D0000417F7F10386C440000417F7FA0
:10102000400000007C7C18381C7C78007C7C040428
:101030007C780000387C44447C38000044787C5440
:10104000141C0800081C1454787C4000447C784C24
:10105000041C1800485C54547424000000043E7FB3
:10106000442400003C7C40403C7C40001C3C6060D0
:101070003C1C00003C7C7038707C3C00446C381098
:10108000386C44004C5C50507C3C00004C64745CF8
:101090004C640000000000000000000000000000A0
:1010A0000000000000000000000000000000000040
:1010B0000000000000000000000000000000000030
:1010C0000000000000000000000000000000000020
:1010D0000000000000000000000000000000000010
:1010E0000000000000000000000000000000000000
:1010F00000000000000000000000000000000000F0
:1011000000000000000000000000000000000000DF
:1011100000000000000000000000000000000000CF
:1011200000000000000000000000000000000000BF
:1011300000000000000000000000000000000000AF
:10114000000000000000000000000000000000009F
:10115000000000000000000000000000000000008F
:10116000000000000000000000000000000000007F
:10117000000000000000000000000000000000006F
:10118000000000000000000000000000000000005F
:10119000000000000000000000000000000000004F
:1011A000000000000000000000000000000000003F
:1011B000000000000000000000000000000000002F
:1011C000000000000000000000000000000000001F
:1011D000000000000000000000000000000000000F
:1011E00000000000000000000000000000000000FF
:1011F00000000000000000000000000000000000EF
:1012000000000000000000000000000000000000DE
:1012100000000000000000000000000000000000CE
:1012200000000000000000000000000000000000BE
:10123000000000000000000000000000000006099F
:10124000090600000000000000000000000000008F
:10125000000000000000000000000000000000008E
:10126000000000000000000000000000000000007E
:10127000000000000000000000000000000000006E
:10128000000000000000000000000000000000005E
:10129000000000000000000000000000000000004E
:1012A000000000000000000000000000000000003E
:1012B0000000000000000000000000007C7E13130E
:1012C0007E7C0000417F7F4949793300417F7F491F
:1012D000497F3600417F7F4101030300787E373329
:1012E000377E7800417F7F495D41630063147F7FD3
:1012F00014630000636349496B7F36007F7F3018B9
:101300000C7F7F007F7F301B0C7F7F00417F7F0839
:101310001C776300607F1F037F7F41007F7F0E1C6F
:101320000E7F7F007F7F08087F7F00001C3E6341A7
:10133000633E1C007F7F03037F7F0000417F7F4966
:10134000090F06001C3E63414163220003417F7F79
:101350004103000063673C180C0703001E527F7FA7
:10136000521E000063673C183C6763003F3F20202B
:101370003F3F60000F1F18587F7F40007F7F607FD6
:10138000607F7F003F203F3F203F6000017F7F481C
:10139000487830007F7F484878007F007F7F48484A
:1013A00078300000366349496B7F3E007F083E631A
:1013B00041633E00667F19097F7F410020745454C9
:1013C0003C784000307C4A4A7A310000447C7C54AE
:1013D00054280000447C7C440C08000060383434FD
:1013E00038600000387C54545C18000044287C7C31
:1013F000284400002E4454547C2800007C7C20109B
:101400007C7C00007C7C21117C7C0000447C7C1076
:10141000386C440040780C047C7C4000787C0810D8
:10142000087C78007C7C10107C7C0000387C444474
:101430007C3800007C7C04047C7C000044787C5474
:10144000141C0800387C44446C28000008447C7C50
:10145000440800004C5C50507C3C000008547C7CEC
:1014600054080000446C3810386C44003C3C203C6C
:101470003C6000001C10507C7C4000007C407C40A4
:101480007C0000003C203C203C600000443C50506C
:1014900070200000403C505020007C00403C5050E8
:1014A0005020000028445454380000007C10384478
:1014B00044380000402814147C7C0000FEFEFEFE30
:1014C000FE7E1E06061E7EFEFEFEFEFE7F5F47417E
:1014D0007C7870606070787C41475F7F202020C0FE
:1014E000CE2022CCE8EBE0EDE4F022000C15000861
:1014F0000000002070000000FC0000087C150008BF
:1015000070000020600600001801000800000000C4
:1015100000000000747261636B5F31000000000026
:1015200000000000000000000000000000000000BB
:1015300000000000747261636B5F32000000000005
:10154000000000000000000000000000000000009B
:1015500000000000747261636B5F330000000000E4
:10156000000000000000000000000000000000007B
:0C15700000000000DC14000800127A00EB
:040000050800015D91
:00000001FF
