:020000040800F2
:1000000090060020650100086D0100086F010008DE
:10001000710100087301000875010008000000006C
:100020000000000000000000000000007701000850
:1000300079010008000000007B0100087D01000834
:100040007F0100087F0100087F0100080000000018
:10005000000000007F0100087F0100087F01000808
:100060007F010008000000007F0100087F010008F8
:100070007F010008000000007F0100087F010008E8
:100080007F0100087F010008000000007F010008D8
:100090007F010008000000000000000000000000D8
:1000A0000000000000000000000000007F010008C8
:1000B0007F0100087F0100087F0100087F01000820
:1000C00000F002F800F03FF80AA090E8000C82442B
:1000D0008344AAF10107DA4501D100F034F8AFF208
:1000E000090EBAE80F0013F0010F18BFFB1A43F016
:1000F00001031847B0190000D0190000103A24BFBE
:1001000078C878C1FAD8520724BF30C830C144BF7C
:1001100004680C60704700000023002400250026BE
:10012000103A28BF78C1FBD8520728BF30C148BF5A
:100130000B607047642900F04B80002070471FB5AA
:100140001FBD10B510BD00F0C1F91146FFF7F7FF54
:1001500001F0D6F800F0DFF903B4FFF7F2FF03BCBB
:1001600000F0E2F90948804709480047FEE7FEE74A
:10017000FEE7FEE7FEE7FEE7FEE7FEE7FEE7FEE757
:1001800004480549054A064B70470000850B0008E6
:10019000C10000089000002090060020900200207E
:1001A000900200200FB41CB5084B06AA7B44694698
:1001B0000090059800F06DF904460020694600F0B3
:1001C0007BF920461CBC5DF814FB0000090300000D
:1001D0002DE9F0410646002410687529314616A520
:1001E00010D0AFF30080002802DA404213A507E0E8
:1001F00031688A0701D512A502E0490704D511A587
:10020000012401E0AFF3008000210A2206F1240757
:1002100009E0B0FBF2FCB0FBF2F302FB1C00303053
:1002200078541846491C0028F3D123462A46304604
:10023000BDE8F04100F0CFB8000000002D00000044
:100240002B000000200000002DE9F05F89460446E5
:100250004FF0000ADFF874B1FB44C0F820A020463C
:10026000E1688847002874D0252806D0D4E9012108
:100270009047206A401C2062F1E700265F46204636
:10028000E16888472028054607DB312D05D278191B
:1002900010F8200C08B10643F1E7B00701D526F0AD
:1002A0000406C4F81CA00027C4F818A02A2D09D001
:1002B000284601F01DF838B304EB8708303DC8F834
:1002C000185019E059F8041B204604EB870291618D
:1002D000E1688847012F054618D1E069002820DA37
:1002E00026F020061DE0D8F8180000EB800005EB92
:1002F00040003038C8F818002046E16888470546B5
:1003000000F0F6FF0028EED1012F0AD02E2D08D1E3
:100310002046E16888477F1C0546022F46F02006EC
:10032000C4DBA069002803DA404246F00106A06160
:10033000F00701D026F010066C2D0BD0682D09D0E7
:100340004C2D39D06A2D35D0742D35D07A2D33D03F
:1003500016E038E0E1682F4620468847B842054657
:1003600009D16C2F26D04FF48060E1680643204607
:100370008847054604E06C2F1AD04FF4807006437E
:100380000DB3A5F14100192802D8203546F40066C6
:100390004A462946204626604E46FFF7CBFE80B1EE
:1003A00001280BD0F61D26F0070000F1080956E7DA
:1003B0004020E4E78020D8E70020D6E706F10409D2
:1003C0004DE7284652E7206ABDE8F09F2418000058
:1003D0007047704770472DE9F0470D4699469246A1
:1003E000044600F124080168880604D5E06921F07C
:1003F0001001216000E00120A84201DD471B00E060
:100400000027A1697A1902EB0900081AA061207877
:10041000C00602D42046AFF30080002608E0D4E9ED
:1004200001211AF806009047206A401C761C2062C1
:100430004E45F4DB2078C0060AD52046AFF3008095
:1004400006E0D4E9012130209047206A401C206258
:10045000381EA7F10107F4DC07E0D4E9012118F800
:1004600005009047206A401C2062281EA5F1010566
:10047000F3DC2046AFF300802078000602D502208E
:10048000BDE8F0870120FBE701694A1C026108789A
:10049000704700B58FB0CDE90131002105910549C4
:1004A0007944CDE9031011466846FFF7CDFE0FB041
:1004B00000BD0000E5FFFFFF0A6802F8010B0A60BB
:1004C0007047000000487047300000207546FFF775
:1004D000F9FFAE4605006946534620F00700854601
:1004E00018B020B5FFF74CFEBDE820404FF00006E5
:1004F0004FF000074FF000084FF0000B21F007010C
:10050000AC46ACE8C009ACE8C009ACE8C009ACE84E
:10051000C0098D46704710B50446AFF300802046F1
:10052000BDE81040FFF718BE01491820ABBEFEE73A
:10053000260002007047000008B5009002E0009914
:10054000491E009100990029F9D108BD70B50246F5
:100550000B46BE48BE4E30613046006800F03800A1
:10056000411C012B01D1580200E000200143B84892
:100570000160426041F4E070B54E30603046C068C2
:100580003046C0683046C0683046C56801F0380162
:100590000160002030619007C40EE540E8B270BDF4
:1005A00070B502460B46A948A94E30613046006836
:1005B00000F03800411C012B01D1580200E000205E
:1005C0000143A3480160426041F4E070A04E3060F6
:1005D0003046C0683046C0683046C0683046C5689E
:1005E00001F0380101600020306102F00200C40017
:1005F000E540A8B270BD30B502460B46934C944D11
:100600002C612C46246804F03804611C012B01D1B4
:100610005C0200E0002421438D4C2160626041F4C3
:10062000E0748B4D2C602C46E4682C46E4682C4624
:10063000E4682C46E06801F03801216000242C6158
:1006400030BD2DE9F04106460F46804880490861DB
:100650000846006800F03800441C012F01D14815FD
:1006600000E0002004437A480460002522E070196D
:10067000774948600020886044F488640846046034
:100680000520FFF759FF44F400547148046049F60F
:100690004040FFF751FF24F480646D48046005205A
:1006A000FFF74AFF24F40154694804600120FFF772
:1006B00043FF2D1D102DDAD304F038046448046084
:1006C000002063490861BDE8F08170B506465F48C7
:1006D0005F4908610846006800F03800441C022E9B
:1006E00001D1481500E0002004435948046000256A
:1006F00022E05748456000205549886044F444642E
:10070000084604600520FFF717FF44F400545048E2
:10071000046049F64040FFF70FFF24F480644C4822
:1007200004606420FFF708FF24F421544848046063
:100730000120FFF701FF2D1D102DDAD304F038043E
:100740004348046000204249086170BD2DE9F04132
:1007500006460D4617463D483D490861012D01D129
:10076000481500E0002005463948006800F03804CC
:1007700045F001000443364804604660876044F455
:10078000825404600520FFF7D7FE44F4005430483B
:1007900004600A20FFF7D0FE44F080042C48046077
:1007A0002820FFF7C9FE24F080042948046024F4BF
:1007B000805404600520FFF7BFFE24F40154244850
:1007C00004600120FFF7B8FE04F0380020490860FB
:1007D00000200861BDE8F0812DE9F0470546884614
:1007E0001446A807C70EBC40FF2000FA07F6414692
:1007F0002846FFF700FF814629EA060004EA0601C1
:1008000040EA010241462846FFF7A0FFBDE8F08715
:100810002DE9F04705468846144605F00200C7005A
:10082000BC404FF6FF7000FA07F641462846FFF736
:10083000E2FE814629EA060004EA060140EA0102D6
:1008400041462846FFF782FFBDE8F0875155AA8A46
:100850000080014010B50B49086800EBD0714910C9
:10086000A0EB410121B90121074800F017F903E08D
:100870000121054800F004F902480068401C0149C4
:10088000086010BD0400002000800B400EB501215F
:10089000C80500F01FF9684600F00EF901208DF838
:1008A00002008DF809008DF80A006946014800F041
:1008B00003F80EBD00800B402DE9FE4F4768D0F8CD
:1008C00008C0D0F80C80D0F81090D0F814A0CDF863
:1008D00008A0D0F818A0CDF804A0D0F81CA0CDF83E
:1008E00000A00022012303254FF001160C885FE0D1
:1008F00004F0010ABAF1000F55D027EA030A91F873
:1009000002B00BFA02FB4AEA0B0791F808A04FEA83
:10091000420B0AFA0BFA2CEA050B4AEA0B0C28EAFE
:10092000030A91F80AB00BFA02FB4AEA0B0829EA1B
:10093000060A91F803B002F1100E0BFA0EFB4AEA18
:100940000B0A91F804B00BFA02FB4AEA0B09DDF836
:1009500008A02AEA060A91F805B00BFA0EFB4AEA4B
:100960000B0A91F806B00BFA02FB4AEA0B0ACDF823
:1009700008A091F809A04FEA420B0AFA0BFADDF839
:1009800004B02BEA050B4AEA0B0ACDF804A0DDF807
:1009900000A02AEA030A91F807B00BFA02FB4AEA20
:1009A0000B0ACDF800A05B00AD007600521C640875
:1009B000002C9DD1DFF8C4A0504502D14FF01F0A92
:1009C00001E04FF0000A27EA0A0AC0F804A0DFF8A5
:1009D000ACA0504502D14FF01F0A01E04FF0000AD1
:1009E0002CEA0A0AC0F808A0DFF890A0504502D10E
:1009F0004FF01F0A01E04FF0000A28EA0A0AC0F887
:100A00000CA0DFF878A0504502D14FF01F0A01E09A
:100A10004FF0000A29EA0A0AC0F810A0DFF85CA02B
:100A2000504502D14FF01F0B01E04FF0000BDDF8F5
:100A300008A02AEA0B0AC0F814A0DFF840A050452D
:100A400002D14FF01F0B01E04FF0000BDDF804A0C6
:100A50002AEA0B0AC0F818A0DFF820A0504502D1FE
:100A60004FF01F0B01E04FF0000BDDF800A02AEA69
:100A70000B0AC0F81CA0BDE8FE8F000000000C406F
:100A80000268054B984201D11F2300E000230B436D
:100A90009A4302607047000000000C400268054B5A
:100AA000984201D11F2300E000239A430A430260C9
:100AB0007047000000000C404FF6FF7101800021DC
:100AC0008170C170017141718171C1710172417296
:100AD0008172704729B1064AD2690243044BDA6138
:100AE00004E0034AD2698243014BDA617047000097
:100AF0000000024030B5204CE46804F00204022CEF
:100B000001D11E4800E01D481B4CE46804F00104BC
:100B100004B140080146184CE46804F00404042CB5
:100B200005D1154C6468C4F30324631C5943124C6B
:100B3000E468C4F3012424B1012C06D0022C13D1A3
:100B40000DE00E4C0E4D2C6013E00B4CE468C4F32A
:100B50000314641CB1FBF4F2094C226009E04FF469
:100B60000044074D2C6004E049F64044044D2C60DD
:100B700000BF00BF30BD00000000024000127A003C
:100B80000C00002000B50D480D49C8610846C0683A
:100B90000020C86008464068002048600846806819
:100BA0000020886008460069002008610846406906
:100BB00000204861FFF79EFF00BD00001000000804
:100BC0000000024070B50546002404E0E1B228466A
:100BD00000F004F8641C082CF8DB70BD70B5054605
:100BE0000E463146284600F0B3FA0021284600F0B0
:100BF00025FA00240CE000BF284600F0BBF900F005
:100C000080000028F8D10021284600F009FB641C70
:100C1000402CF0DB70BD08B5009000BF00994A1E63
:100C200000920029FAD108BD10B50446012C04D168
:100C300080212C48FFF732FF04E04FF480712948EF
:100C4000FFF72CFF01212848FFF71AFF4FF48061BE
:100C50002448FFF715FF0520FFF7DDFF2348406814
:100C600040F03F00214948602148406840F00C00B6
:100C70001F4948603F2000F049FA0520FFF7CBFFED
:100C800002211948FFF70AFF0520FFF7C4FF0221E0
:100C90001548FFF7F5FE0520FFF7BDFF01211248BB
:100CA000FFF7EEFE4FF480610E48FFF7E9FE0F48B4
:100CB00040684FF6C07108400C4948600C484068D5
:100CC0004FF6F37108400A494860012C04D1802195
:100CD0000448FFF7D5FE04E04FF480710148FFF7A8
:100CE000CFFE10BD00000B4000800B4000800A408A
:100CF00000800E4008B500F053F800F02FF800BF58
:100D0000012000F037F900F080000028F8D1012020
:100D1000FFF78AFF00BF022000F02CF900F08000EE
:100D20000028F8D10220FFF77FFF0120FFF74AFFDC
:100D30000220FFF747FF01210648006800F0FEF897
:100D400001200346002211460090034800F0B0F84D
:100D500008BD000008000020601A000810B54FF41C
:100D600000710E48FFF78CFEC820FFF754FF4FF4C8
:100D700000710A48FFF792FE0520FFF74CFF00BF05
:100D8000012000F0F7F800F0900030B1022000F0F0
:100D9000F1F800F090000028F2D110BD00000B40E7
:100DA0000EB501211C48FFF795FE00208DF80300C9
:100DB0008DF804008DF805008DF806008DF8070009
:100DC0003F20ADF8000000208DF802008DF80800EB
:100DD00001208DF80A0003208DF8090069460F48AC
:100DE000FFF76AFD0C20ADF8000069460C48FFF7DC
:100DF00063FD4FF4F060ADF8000001208DF80200B3
:100E000069460848FFF758FD0320ADF80000694621
:100E10000548FFF751FD0EBD0000E02000800A40AC
:100E200000800E4000000B4000800B402DE9F05F79
:100E300005460C4691462046E11704EB5171C91056
:100E40004E1CCA462046E11704EB5171C910A4EBB1
:100E5000C1014FEAC10B0AF0FF01F0B200F078F9CE
:100E60000BF0FF01F0B200F0E9F8202D06DBFF2DBA
:100E700004DCA5F120004FEAC00801E04FF00008B3
:100E800047460DE000BFF0B200F074F800F08000BB
:100E90000028F8D1054AD15DF0B200F0C1F97F1CFD
:100EA00008F108008742EDDBBDE8F09F6013000801
:100EB0002DE9FF4F83B08046894692464FF0000BE4
:100EC0004E4635E054462FE02046E11704EB5171C1
:100ED000C9104D1C0296E11704EB5171C910A4EB27
:100EE000C101CA000192029EF1B2E8B200F030F9ED
:100EF000019AD1B2E8B200F0A1F800270FE000BFDC
:100F0000E8B200F037F800F080000028F8D10BEBD1
:100F1000070218F80210E8B200F082F97F1C082FCF
:100F2000EDDB0BF1080B641C10988442CCDD761CC1
:100F300006988642C6DD07B0BDE8F08F70B505465D
:100F40000E46002408E0285D00B907E0285D32461F
:100F50002146FFF76BFF641C102CF4DB00BF05E09B
:100F6000324621462020FFF761FF641C102CF7DB7E
:100F700070BD000070B504462C4840684FF6C07143
:100F800008402A4948602A4840684FF6F3710840F3
:100F900027494860012C04D180212648FFF77EFDB7
:100FA00004E04FF480712348FFF778FD01212248C7
:100FB000FFF766FD4FF480611E48FFF76FFD0520C7
:100FC000FFF729FE02211C48FFF768FD0520FFF707
:100FD00022FE1648006800F03F0015490968C0224B
:100FE00002EA011140EA01050520FFF714FE022183
:100FF0001148FFF745FD0520FFF70DFE01210E48C2
:10100000FFF73EFD4FF480610A48FFF739FD012CE0
:1010100004D180210748FFF733FD04E04FF48071CD
:101020000448FFF72DFD284670BD000000800A40EF
:1010300000800E4000000B4000800B4070B504465D
:101040000D46012C04D180212C48FFF727FD04E038
:101050004FF480712948FFF721FD01212848FFF74F
:101060000FFD4FF480612548FFF70AFD0520FFF7CB
:10107000D2FD2448406840F03F00224948602248A1
:10108000406840F00C002049486045F0400000F006
:101090003DF80520FFF7BFFD02211948FFF7FEFCD0
:1010A0000520FFF7B8FD02211548FFF7E9FC0520F0
:1010B000FFF7B1FD134840684FF6C0710840114971
:1010C0004860114840684FF6F37108400E49486087
:1010D00001210B48FFF7D4FC4FF480610748FFF76C
:1010E000CFFC012C04D180210448FFF7C9FC04E0A7
:1010F0004FF480710148FFF7C3FC70BD00000B4046
:1011000000800B4000800A4000800E400E490968B4
:101110004FF6C07211400C4A11601146096800F088
:101120003F021143084A1160084909684FF6F372FB
:101130001140064A1160114609680C2202EA201289
:101140001143024A1160704700800A4000800E403F
:1011500070B504460D46012C04D180212C48FFF7C0
:101160009DFC04E04FF480712948FFF797FC0121B2
:101170002848FFF785FC4FF480612548FFF780FC85
:101180000520FFF748FD2448406840F03F00224911
:1011900048602248406840F00C002049486045F013
:1011A000B800FFF7B3FF0520FFF735FD022119480E
:1011B000FFF774FC0520FFF72EFD02211548FFF70D
:1011C0005FFC0520FFF727FD134840684FF6C0710C
:1011D000084011494860114840684FF6F3710840D3
:1011E0000E49486001210B48FFF74AFC4FF480612B
:1011F0000748FFF745FC012C04D180210448FFF784
:101200003FFC04E04FF480710148FFF739FC70BDEA
:1012100000000B4000800B4000800A4000800E4020
:1012200070B504460D46012C04D180212C48FFF7EF
:1012300035FC04E04FF480712948FFF72FFC0121B1
:101240002848FFF72BFC4FF480612548FFF718FC76
:101250000520FFF7E0FC2448406840F03F002249A9
:1012600048602248406840F00C0020494860284609
:10127000FFF74CFF0520FFF7CEFC02211948FFF7CE
:101280000DFC0520FFF7C7FC02211648FFF7F8FB0D
:101290000520FFF7C0FC144840684FF6C0710840B5
:1012A00011494860114840684FF6F37108400F49F2
:1012B000486001210B48FFF7E3FB4FF480610848C9
:1012C000FFF7DEFB012C04D180210548FFF7D8FB96
:1012D00004E04FF480710248FFF7D2FB70BD0000BC
:1012E00000000B4000800B4000800A4000800E4050
:1012F00030380A2801D201207047002070470000D2
:10130000FFF7C4FAFFF7F6FC72B6FFF7A3FA012164
:101310000820FFF7DFFB4FF0006400212046FFF7B5
:1013200090F94FF0AA3200212046FFF70FFA002172
:101330002046FFF760F905462A4605A10748FEF753
:1013400031FF03E003210548FFF7F8FDFAE700004D
:101350006E756D6265723A202564000010000020F1
:101360000000000000000000000000DFDF000000BF
:1013700000070700070700002424FF24FF2424009F
:101380000000000000000000006333180C666300DA
:1013900060F69F899F76D8000000000707000000D4
:1013A000003C7EC381810000008181C37E3C00003F
:1013B000082A1C7F1C2A08000018187E7E181800B6
:1013C000000080E0600000000018181818181800CD
:1013D00000000060600000000000C0F03C0F03004F
:1013E0003E7F71594D7F3E0040427F7F404000006C
:1013F000627359496F660000226349497F360000D5
:10140000181C16537F7F5000276745457D39000023
:101410003C7E4B4979300000030371790F070000CF
:10142000367F49497F360000064F49693F1E00005C
:101430000000006666000000000080666600000094
:10144000000008142241000000282828282828002D
:101450000000412214080000000203696D07020029
:1014600000000000000000007C7E13137E7C000062
:10147000417F7F49497F36001C3E63414163220022
:10148000417F7F41633E1C00417F7F495D41630096
:10149000417F7F491D0103001C3E6341517372006F
:1014A0007F7F08087F7F000000417F7F41000000B0
:1014B000307040417F3F0100417F7F081C7763000F
:1014C000417F7F41406070007F7F0E1C0E7F7F0058
:1014D0007F7F060C187F7F001C3E6341633E1C002B
:1014E000417F7F49090F06001E3F21717F5E00008A
:1014F000417F7F09197F6600266F4D5973320000C6
:1015000003417F7F410300003F7F60607F3F000019
:101510001F3F60603F1F00007F7F3018307F7F00DB
:1015200063673C183C676300074F78784F070000FB
:10153000476371594D677300000000000000000010
:10154000000000000000000000000000000000009B
:10155000000000000000000000000000000000008B
:101560000000000000000000207454543C7840004B
:10157000417F3F4848783000387C44446C28000064
:10158000307848493F7F4000387C54545C18000054
:10159000487E7F49030200004C5E52527C3E0200AE
:1015A000417F7F08047C780000447D7D400000007E
:1015B000307040407D3D0000417F7F10386C44001A
:1015C00000417F7F400000007C7C18381C7C780044
:1015D0007C7C04047C780000387C44447C38000027
:1015E00044787C54141C0800081C1454787C400077
:1015F000447C784C041C1800485C5454742400004B
:1016000000043E7F442400003C7C40403C7C400081
:101610001C3C60603C1C00003C7C7038707C3C00D2
:10162000446C3810386C44004C5C50507C3C0000DA
:101630004C64745C4C64000000000000000000007A
:10164000000000000000000000000000000000009A
:10165000000000000000000000000000000000008A
:10166000000000000000000000000000000000007A
:10167000000000000000000000000000000000006A
:10168000000000000000000000000000000000005A
:10169000000000000000000000000000000000004A
:1016A000000000000000000000000000000000003A
:1016B000000000000000000000000000000000002A
:1016C000000000000000000000000000000000001A
:1016D000000000000000000000000000000000000A
:1016E00000000000000000000000000000000000FA
:1016F00000000000000000000000000000000000EA
:1017000000000000000000000000000000000000D9
:1017100000000000000000000000000000000000C9
:1017200000000000000000000000000000000000B9
:1017300000000000000000000000000000000000A9
:101740000000000000000000000000000000000099
:101750000000000000000000000000000000000089
:101760000000000000000000000000000000000079
:101770000000000000000000000000000000000069
:101780000000000000000000000000000000000059
:101790000000000000000000000000000000000049
:1017A0000000000000000000000000000000000039
:1017B0000000000000000000000000000000000029
:1017C0000000000000000000000000000000000019
:1017D0000000000000000000000000000000000009
:1017E00000000609090600000000000000000000DB
:1017F00000000000000000000000000000000000E9
:1018000000000000000000000000000000000000D8
:1018100000000000000000000000000000000000C8
:1018200000000000000000000000000000000000B8
:1018300000000000000000000000000000000000A8
:101840000000000000000000000000000000000098
:101850000000000000000000000000000000000088
:101860007C7E13137E7C0000417F7F4949793300E1
:10187000417F7F49497F3600417F7F41010303005B
:10188000787E3733377E7800417F7F495D41630042
:1018900063147F7F14630000636349496B7F3600E4
:1018A0007F7F30180C7F7F007F7F301B0C7F7F0095
:1018B000417F7F081C776300607F1F037F7F4100AB
:1018C0007F7F0E1C0E7F7F007F7F08087F7F0000D8
:1018D0001C3E6341633E1C007F7F03037F7F00004B
:1018E000417F7F49090F06001C3E6341416322008E
:1018F00003417F7F4103000063673C180C0703002E
:101900001E527F7F521E000063673C183C676300D5
:101910003F3F20203F3F60000F1F18587F7F40004F
:101920007F7F607F607F7F003F203F3F203F6000E0
:10193000017F7F48487830007F7F484878007F00EB
:101940007F7F484878300000366349496B7F3E000E
:101950007F083E6341633E00667F19097F7F410037
:10196000207454543C784000307C4A4A7A3100005C
:10197000447C7C5454280000447C7C440C080000C7
:101980006038343438600000387C54545C180000EF
:1019900044287C7C284400002E4454547C280000B9
:1019A0007C7C20107C7C00007C7C21117C7C0000F5
:1019B000447C7C10386C440040780C047C7C4000F3
:1019C000787C0810087C78007C7C10107C7C0000FF
:1019D000387C44447C3800007C7C04047C7C00001F
:1019E00044787C54141C0800387C44446C28000063
:1019F00008447C7C440800004C5C50507C3C000057
:101A000008547C7C54080000446C3810386C440046
:101A10003C3C203C3C6000001C10507C7C400000A2
:101A20007C407C407C0000003C203C203C6000006E
:101A3000443C505070200000403C505020007C003E
:101A4000403C5050502000002844545438000000BE
:101A50007C10384444380000402814147C7C00007A
:101A6000FEFEFEFEFE7E1E06061E7EFEFEFEFEFE46
:101A70007F5F47417C7870606070787C41475F7F12
:101A80000400000800000000000000020001000047
:101A900010000000202020C0CE2022CCE8EBE0ED9A
:101AA000E4F02200C41A000800000020100000002A
:101AB000FC000008D41A0008100000208006000076
:101AC000180100080000000000000000941A00083F
:041AD00000127A0086
:040000050800016589
:00000001FF
