:020000040800F2
:10000000700600205D010008650100086701000816
:10001000690100086B0100086D0100080000000084
:100020000000000000000000000000006F01000858
:10003000710100080000000073010008750100084C
:100040007701000877010008770100080000000030
:100050000000000077010008770100087701000820
:100060007701000800000000770100087701000810
:100070007701000800000000E10600087701000891
:1000800077010008770100080000000077010008F0
:1000900077010008000000000000000000000000E0
:1000A00000000000000000000000000077010008D0
:1000B0007701000877010008770100087701000840
:1000C00000F002F800F03AF80AA090E8000C824430
:1000D0008344AAF10107DA4501D100F02FF8AFF20D
:1000E000090EBAE80F0013F0010F18BFFB1A43F016
:1000F00001031847B4060000D4060000103A24BFDC
:1001000078C878C1FAD8520724BF30C830C144BF7C
:1001100004680C60704700000023002400250026BE
:10012000103A28BF78C1FBD8520728BF30C148BF5A
:100130000B6070471FB51FBD10B510BD00F036F83D
:100140001146FFF7F7FF00F021FB00F054F803B46D
:10015000FFF7F2FF03BC00F057F8000009488047A2
:1001600009480047FEE7FEE7FEE7FEE7FEE7FEE799
:10017000FEE7FEE7FEE7FEE704480549054A064BB1
:100180007047000081050008C100000870000020D1
:100190007006002070020020700200207047704737
:1001A00070470000004870470C0000207546FFF7BC
:1001B000F9FFAE4605006946534620F00700854624
:1001C00018B020B5FFF7D8FFBDE820404FF000067B
:1001D0004FF000074FF000084FF0000B21F007012F
:1001E000AC46ACE8C009ACE8C009ACE8C009ACE872
:1001F000C0098D46704710B50446AFF30080204615
:10020000BDE81040FFF7A3BF01491820ABBEFEE7D1
:10021000260002007047000010B50B480068401C23
:1002200009490860086800EBD0714910A0EB410152
:1002300021B90121054800F0FDF803E00121034840
:1002400000F0EAF810BD00000400002000800B4020
:100250002DE9FE4F4768D0F808C0D0F80C80D0F8E0
:100260001090D0F814A0CDF808A0D0F818A0CDF8C0
:1002700004A0D0F81CA0CDF800A000220123032583
:100280004FF001160C885FE004F0010ABAF1000F8C
:1002900055D027EA030A91F802B00BFA02FB4AEAAA
:1002A0000B0791F808A04FEA420B0AFA0BFA2CEA66
:1002B000050B4AEA0B0C28EA030A91F80AB00BFA7C
:1002C00002FB4AEA0B0829EA060A91F803B002F198
:1002D000100E0BFA0EFB4AEA0B0A91F804B00BFA67
:1002E00002FB4AEA0B09DDF808A02AEA060A91F89F
:1002F00005B00BFA0EFB4AEA0B0A91F806B00BFAAE
:1003000002FB4AEA0B0ACDF808A091F809A04FEACF
:10031000420B0AFA0BFADDF804B02BEA050B4AEAA5
:100320000B0ACDF804A0DDF800A02AEA030A91F830
:1003300007B00BFA02FB4AEA0B0ACDF800A05B00FB
:10034000AD007600521C6408002C9DD1DFF8C4A0DB
:10035000504502D14FF01F0A01E04FF0000A27EA92
:100360000A0AC0F804A0DFF8ACA0504502D14FF053
:100370001F0A01E04FF0000A2CEA0A0AC0F808A0A0
:10038000DFF890A0504502D14FF01F0A01E04FF076
:10039000000A28EA0A0AC0F80CA0DFF878A0504545
:1003A00002D14FF01F0A01E04FF0000A29EA0A0AC1
:1003B000C0F810A0DFF85CA0504502D14FF01F0B31
:1003C00001E04FF0000BDDF808A02AEA0B0AC0F8A4
:1003D00014A0DFF840A0504502D14FF01F0B01E000
:1003E0004FF0000BDDF804A02AEA0B0AC0F818A0B1
:1003F000DFF820A0504502D14FF01F0B01E04FF075
:10040000000BDDF800A02AEA0B0AC0F81CA0BDE82A
:10041000FE8F000000000C400268054B984201D19D
:100420001F2300E000230B439A4302607047000043
:1004300000000C400268054B984201D11F2300E0E8
:1004400000239A430A4302607047000000000C40FA
:100450004FF6FF71018000218170C17001714171FF
:100460008171C171017241728172704700B587B0AC
:1004700001214FF4400000F02BF804A8FFF7E8FF3B
:100480000320ADF8100001208DF81A008DF812003D
:100490008DF8190000208DF816008DF813008DF8E6
:1004A000140004A90948FFF7D3FE01A8FFF7D0FF05
:1004B0002020ADF8040000208DF8060001208DF802
:1004C0000D008DF80E0007B000BD000000800B404D
:1004D00029B1064AD2690243044BDA6104E0034AB7
:1004E000D2698243014BDA6170470000000002408C
:1004F00030B5204CE46804F00204022C01D11E48FF
:1005000000E01D481B4CE46804F0010404B14008FD
:100510000146184CE46804F00404042C05D1154C81
:100520006468C4F30324631C5943124CE468C4F3A5
:10053000012424B1012C06D0022C13D10DE00E4C65
:100540000E4D2C6013E00B4CE468C4F30314641CE0
:10055000B1FBF4F2094C226009E04FF40044074D6E
:100560002C6004E049F64044044D2C6000BF00BFFD
:1005700030BD00000000024000127A000800002098
:1005800000B50D480D49C8610846C0680020C86024
:10059000084640680020486008468068002088605F
:1005A000084600690020086108464069002048614B
:1005B000FFF79EFF00BD0000100000080000024091
:1005C0000246104B586A104B9A4205D120F0FF00AA
:1005D000084340F0807012E00C4B9A4206D120F4A0
:1005E0007F4040EA012040F0007008E0084B9A424A
:1005F00005D120F47F0040EA014040F08060014BCB
:100600005862704700000240000007400080074029
:1006100000000840002141808180C180018141812A
:100620008181C18101824182704700210180418026
:100630008180C180018141818181C18101824182AA
:100640008182C1827047426D8A43426570470A4683
:10065000C16812B141F0010101E021F00101C16066
:10066000704730B50C8804604C8844608C88846086
:10067000CC880D892C444D892C448D892C44CD89FE
:100680006319C3604C8A0D8A04EB05148D8A2C44CF
:10069000CD8A6219026530BD0021018041808180D0
:1006A000C180018141818181C18101824182818238
:1006B000C182704710B50246936D546D1C4004EA28
:1006C00001030BB9002000E0012010BD10B5134656
:1006D000826D0BB10A4300E08A43826510BD0000C1
:1006E00010B501210548FFF7E5FF28B1FFF794FD9C
:1006F00001210248FFF7A7FF10BD000000000740DE
:1007000030B591B0044601218803FFF7E1FE0BA844
:10071000FFF7C2FF05A8FFF788FF6846FFF77AFFDB
:100720004FF4FA50ADF82E00A0B2ADF83000002121
:100730001348FFF745FF0BA91148FFF792FF0E2062
:10074000012181404209920002F1E022C2F8001129
:1007500000BF0021002807DA4A07150E094A00F0F9
:100760000F031B1FD55403E04A07130E064A135408
:1007700000BF012211460248FFF7A8FF11B030BDAB
:100780000000074018ED00E000E400E0FFF76EFE17
:100790004FF4FA70FFF7B4FF01210248FFF757FF4B
:1007A00000BFFEE700000740C80700080000002067
:1007B0000C000000FC000008D40700080C0000201A
:1007C000640600001801000800000000000000009E
:0407D00000127A0099
:040000050800015D91
:00000001FF
