:020000040800F2
:10000000700600205D010008650100086701000816
:10001000690100086B0100086D0100080000000084
:100020000000000000000000000000006F01000858
:10003000710100080000000073010008750100084C
:100040007701000877010008770100080000000030
:100050000000000077010008770100087701000820
:100060007701000800000000770100087701000810
:100070007701000800000000770100087701000800
:1000800077010008770100080000000077010008F0
:1000900077010008000000000000000000000000E0
:1000A00000000000000000000000000077010008D0
:1000B000770100081902000877010008770100089D
:1000C00000F002F800F03AF80AA090E8000C824430
:1000D0008344AAF10107DA4501D100F02FF8AFF20D
:1000E000090EBAE80F0013F0010F18BFFB1A43F016
:1000F00001031847B0050000D0050000103A24BFE6
:1001000078C878C1FAD8520724BF30C830C144BF7C
:1001100004680C60704700000023002400250026BE
:10012000103A28BF78C1FBD8520728BF30C148BF5A
:100130000B6070471FB51FBD10B510BD00F036F83D
:100140001146FFF7F7FF00F077FA00F054F803B418
:10015000FFF7F2FF03BC00F057F8000009488047A2
:1001600009480047FEE7FEE7FEE7FEE7FEE7FEE799
:10017000FEE7FEE7FEE7FEE704480549054A064BB1
:1001800070470000F9050008C10000087000002059
:100190007006002070020020700200207047704737
:1001A0007047000000487047100000207546FFF7B8
:1001B000F9FFAE4605006946534620F00700854624
:1001C00018B020B5FFF7D8FFBDE820404FF000067B
:1001D0004FF000074FF000084FF0000B21F007012F
:1001E000AC46ACE8C009ACE8C009ACE8C009ACE872
:1001F000C0098D46704710B50446AFF30080204615
:10020000BDE81040FFF7A3BF01491820ABBEFEE7D1
:10021000260002007047000010B511480068A0F5E4
:10022000434050380E4908600846006808B90D4838
:1002300008600D480D49086004E00C480068401E45
:100240000A490860094800680028F6DC4FF480611C
:10025000074800F047F910B91D2000F01BF810BD49
:1002600008000020400D0300A086010000000020CF
:1002700000000B4010B51D2000F00CF862B61D20E8
:10028000012181404209920002F1E022C2F80011EE
:1002900000BF10BD00F01F0201219140024A430936
:1002A00042F823107047000080E200E000B587B0FC
:1002B00001214FF4400000F047F904A800F036F99E
:1002C00000208DF8180001208DF81A008DF8190013
:1002D0008DF812000320ADF8100004A90D4800F0BD
:1002E0001DF801A800F022F902208DF80C00012071
:1002F0008DF80E008DF80D0000208DF806004FF4EB
:100300008060ADF8040001A9034800F007F807B0C9
:1003100000BD000000800B4000000B402DE9FE4FA7
:100320004768D0F808C0D0F80C80D0F81090D0F80A
:1003300014A0CDF808A0D0F818A0CDF804A0D0F8EB
:100340001CA0CDF800A00022012303254FF00116C8
:100350000C885FE004F0010ABAF1000F55D027EADB
:10036000030A91F802B00BFA02FB4AEA0B0791F874
:1003700008A04FEA420B0AFA0BFA2CEA050B4AEAEC
:100380000B0C28EA030A91F80AB00BFA02FB4AEABE
:100390000B0829EA060A91F803B002F1100E0BFAD5
:1003A0000EFB4AEA0B0A91F804B00BFA02FB4AEA88
:1003B0000B09DDF808A02AEA060A91F805B00BFA45
:1003C0000EFB4AEA0B0A91F806B00BFA02FB4AEA66
:1003D0000B0ACDF808A091F809A04FEA420B0AFADF
:1003E0000BFADDF804B02BEA050B4AEA0B0ACDF84C
:1003F00004A0DDF800A02AEA030A91F807B00BFA7E
:1004000002FB4AEA0B0ACDF800A05B00AD007600C3
:10041000521C6408002C9DD1DFF8C4A0504502D1C5
:100420004FF01F0A01E04FF0000A27EA0A0AC0F85D
:1004300004A0DFF8ACA0504502D14FF01F0A01E044
:100440004FF0000A2CEA0A0AC0F808A0DFF890A0D2
:10045000504502D14FF01F0A01E04FF0000A28EA90
:100460000A0AC0F80CA0DFF878A0504502D14FF07E
:100470001F0A01E04FF0000A29EA0A0AC0F810A09A
:10048000DFF85CA0504502D14FF01F0B01E04FF0A8
:10049000000BDDF808A02AEA0B0AC0F814A0DFF868
:1004A00040A0504502D14FF01F0B01E04FF0000B70
:1004B000DDF804A02AEA0B0AC0F818A0DFF820A093
:1004C000504502D14FF01F0B01E04FF0000BDDF85B
:1004D00000A02AEA0B0AC0F81CA0BDE8FE8F0000AD
:1004E00000000C40024613680B400BB1012000E0F5
:1004F000002070470268054B984201D11F2300E09D
:1005000000230B439A4302607047000000000C4038
:100510000268054B984201D11F2300E000239A4353
:100520000A4302607047000000000C404FF6FF7164
:10053000018000218170C170017141718171C171AF
:10054000017241728172704729B1064AD269024331
:10055000044BDA6104E0034AD2698243014BDA6159
:10056000704700000000024030B5204CE46804F001
:100570000204022C01D11E4800E01D481B4CE46817
:1005800004F0010404B140080146184CE46804F08A
:100590000404042C05D1154C6468C4F30324631CC3
:1005A0005943124CE468C4F3012424B1012C06D051
:1005B000022C13D10DE00E4C0E4D2C6013E00B4CB1
:1005C000E468C4F30314641CB1FBF4F2094C226028
:1005D00009E04FF40044074D2C6004E049F6404424
:1005E000044D2C6000BF00BF30BD00000000024081
:1005F00000127A000C00002000B50D480D49C861BA
:100600000846C0680020C86008464068002048606E
:10061000084680680020886008460069002008615C
:100620000846406900204861FFF79EFF00BD0000BA
:100630001000000800000240FFF738FEFFF71AFE26
:1006400014481549086023E003211448FFF760FFB0
:10065000114800681249086004E011480068401E13
:100660000F4908600E4800680028F6DC03210B489B
:10067000FFF740FF084800680949086004E008489F
:100680000068401E06490860054800680028F6DC3E
:10069000DAE70000400D03000800002000800B4056
:1006A00004000020C4060008000000201000000024
:1006B000FC000008D40600081000002060060000BE
:1006C0001801000800000000000000000000000009
:0406D00000127A009A
:040000050800015D91
:00000001FF
